:020000040800F2
:10000000780600209D010008A5010008A70100084E
:10001000A9010008AB010008AD01000800000000C4
:10002000000000000000000000000000AF01000818
:10003000B101000800000000B3010008F11200083F
:10004000B7010008B7010008B7010008B7010008B0
:10005000B7010008B7010008B7010008B7010008A0
:10006000B7010008B7010008B7010008B701000890
:10007000B7010008B7010008B7010008B701000880
:10008000B7010008B7010008B7010008B701000870
:10009000B7010008B7010008B7010008B701000860
:1000A000B7010008B7010008B7010008B701000850
:1000B000B7010008B7010008B7010008B701000840
:1000C000B7010008B7010008B7010008B701000830
:1000D000B7010008B7010008A5190008B70100081A
:1000E000B7010008B7010008B7010008B701000810
:1000F000B7010008B7010008B7010008B701000800
:10010000B7010008B7010008B7010008B7010008EF
:10011000B7010008B7010008B7010008B7010008DF
:10012000B7010008B7010008B7010008B7010008CF
:10013000B7010008B7010008B7010008B7010008BF
:10014000B7010008B7010008B7010008B7010008AF
:10015000B7010008B7010008B7010008B70100089F
:10016000B7010008B7010008B7010008B70100088F
:10017000B7010008B7010008B7010008B70100087F
:10018000B7010008B7010008DFF80CD000F0A2FBAF
:1001900000480047FD3200087806002006488047E6
:1001A00006480047FEE7FEE7FEE7FEE7FEE7FEE75C
:1001B000FEE7FEE7FEE7FEE70113000889010008FD
:1001C000D2B201E000F8012B491EFBD27047002299
:1001D000F6E710B513460A4604461946FFF7F0FF46
:1001E000204610BD2DE9FE4F804681EA0300C00F76
:1001F0000C46009021F0004123F00045B8EB0200CE
:10020000A94105D24046214690461C460B4602466F
:1002100023F00040104347D0270DC7F30A00C3F373
:100220000A510290401A019040286BDAC3F3130080
:1002300040F4801B0098924620B10023D2EB030AC1
:1002400063EB0B0B01985946C0F14002504600F099
:100250008EF906460D4650465946019A00F096F929
:1002600010EB08006141002487EA115284EAE77329
:100270001A4340D0009A62B3019A012A4FEA07520A
:1002800015DC001B61EB02014FF0004202EA07524D
:10029000CDE90042001C41F5801132462B4600F0AA
:1002A00044FA03B0BDE8F08F40462146F9E7001B51
:1002B00061EB0201001C41F5801300185B4120181E
:1002C000A2F5001747EB030140EAD570B6196D415E
:1002D00011E06D084FEA360645EAC0754FEA07524D
:1002E000001B61EB0201001C41F5801149084FEA37
:1002F00030000019514132462B4603B0BDE8F04FA3
:1003000000F004BA0098012240000023D0EB020262
:1003100063EBE073009821464FEAE074B8EB00000D
:1003200061EB0401E9E783F000435BE781F0004102
:1003300058E72DE9FE4F81EA030404F0004421F060
:10034000004100944FF0000B23F0004350EA0104F9
:100350005ED052EA03045BD0C3F30A54C1F30A55DA
:100360002C44A4F2F3340194A0FB0254C1F3130112
:1003700041F48011C3F3130343F4801301FB0244DF
:1003800000FB034E840A970A44EA815447EA8357E4
:10039000A4FB076802958D0A05FB07854FEA932C9D
:1003A00004FB0C542705029D4FEA065847EA16370E
:1003B000B5EB08056EEB070C870E920E47EA811726
:1003C00042EA8312A7FB0201B6EB0B0164EB0004C7
:1003D0002B0D43EA0C335E1844EB1C50DA465146B1
:1003E000E7FB0201C5F313044FEA0B3343EA14534E
:1003F0004FEA0432019C43EA0603A4F10C04029480
:10040000009CCDE900B400F090F903B0BDE8F08F96
:1004100000200146F9E70EB5C10F80EAE0700844FC
:10042000CA07002140F233438DE80E000A460B460E
:1004300000F07BF903B000BD0EB540F233410291EC
:100440000021CDE900110A460B4600F06EF903B019
:1004500000BD00F0004230F000400AD0C10D01F5AF
:100460006071C0F3160042EA0151C208400711430F
:10047000704700200146704730B5041E71F100043A
:1004800004DB4FF00044404264EB0101141E73F1A1
:10049000000405DB1C464FF00043524263EB0403AB
:1004A000994208BF904230BD01F0004330B421F0C2
:1004B000004150EA010206D00A0DA2F56072C1F3B4
:1004C0001301002A02DC30BC00207047440F44EACC
:1004D000C104C100E01830BC00EBC25000F0B6B857
:1004E00030B50B46014600202022012409E021FA04
:1004F00002F59D4205D303FA02F5491B04FA02F501
:100500002844151EA2F10102F1DC30BD2DE9F05F97
:100510000546002092469B46884606468146402472
:100520001BE0284641464746224600F0E5F953467F
:100530005A46C01A914110D311461846224600F07F
:1005400016F82D1A67EB01084F46224601200021BC
:1005500000F00DF817EB00094E41201EA4F1010434
:10056000DFDC484631462A464346BDE8F09F202A54
:1005700004DB203A00FA02F1002070479140C2F1FA
:10058000200320FA03F3194390407047202A06DB2A
:10059000CB17203A41FA02F043EAE07306E041FA51
:1005A00002F3D040C2F1200291400843194670473F
:1005B0000FB4002300B589B00CA900910B996FF01E
:1005C0000042CB601E4B06931E4B07930423CDE9DC
:1005D00001321D4A089202466B46002000F036FAAE
:1005E00009B05DF814FB70B586B006464FF0FF30D9
:1005F0000091CDE90101002015460C4604903246D9
:10060000694604A8FFF7D4FF02460498211825B1D3
:1006100008B1084600E020462860049800280DD064
:10062000002A02DD0098884208D0081B0094CDE91A
:1006300001043246694604A8FFF7BAFF06B070BD50
:10064000850C0008A30C0008190900080029A8BFA0
:100650007047401C490008BF20F00100704710B4EB
:10066000B0FA80FC00FA0CF050EA010404BF10BCA0
:10067000704749B1CCF1200421FA04F411FA0CF1CD
:1006800018BF012121430843A3EB0C01CB1D4FEA06
:1006900000614FEA102042BF002010BC704700EB01
:1006A000C35010440029A4BF10BC7047401C49002F
:1006B00008BF20F0010010BC7047F0B400F0004209
:1006C00021F0004120F00040CE0DC30DC1F3160112
:1006D00041F40001C0F316004C42154640F40000FE
:1006E000761E09E010EB440002D582F00042404241
:1006F0008842F7D840005B1EB342F9DA18B1F0BC6B
:100700000021FFF7ACBF2846F0BC704710B5141E9F
:1007100073F1000408DA401C41F1000192185B41BA
:100720001A4301D120F0010010BD2DE9F04D924691
:100730009B4611B1B1FA81F202E0B0FA80F22032A8
:100740009046FFF714FF04460F4640EA0A0041EACC
:100750000B0153465A46084313D0114653EA010091
:1007600019D0C8F14002504600F0C6F805460E46C2
:10077000504659464246FFF7FAFE084305D001208D
:1007800004E020463946BDE8F08D0020054346EAE6
:10079000E0762C4337430A986305E40AA0EB08008F
:1007A0000022FD0A44EA47540A3002D500200146DF
:1007B000E9E7010510196941DDE9084500196941BA
:1007C000BDE8F04DA2E72DE9F04D81EA030404F005
:1007D000004B21F0004514464FF0000A23F0004181
:1007E00050EA050220D054EA01021DD0C5F30A5791
:1007F0000246C5F31303C1F31300C1F30A5640F4D4
:10080000801543F48013A7EB0608101BD64608F2A8
:10081000FD3873EB050002D308F1010801E09218DE
:100820005B41B8F1000F03DA00200146BDE8F08D0E
:1008300000204FF48011064684460EE0171B73EB30
:10084000050705D3121B63EB050306434CEA010CB5
:1008500049084FEA300092185B4150EA0107EDD198
:1008600052EA030012D082EA040083EA0501084339
:1008700005D0101BAB4106D20122002306E0002266
:100880004FF0004302E06FF0010253101AEB060034
:100890004CEB085110EB0A0041EB0B01BDE8F04DA9
:1008A000FFF734BFC1F30A52C1F3130140F2FF3323
:1008B00041F480119A4202DA00200146704740F26A
:1008C00033439A42A2F2334202DC524200F014B89F
:1008D000FFF74DBE064C074D06E0E06840F001030F
:1008E00094E8070098471034AC42F6D3FFF750FC69
:1008F000403C0008603C0008202A04DB203A21FA32
:1009000002F00021704721FA02F3D040C2F1200228
:100910009140084319467047C0B24FF4F05100F0BF
:10092000D1B900002DE9FF4F087883B09946FF2820
:1009300005D0491C2D2804D00024002008E0002008
:100940000BE00124F9E700EB800003EB4000491CB9
:100950000B78FF2BF7D104B14042002302931478A7
:1009600019461D462D2C01D02B2C04D1521C2D2CA8
:1009700013D000240294AA461478FF2C0FD00A2525
:10098000A3FB057801FB05814FF0000C03FB0C1164
:10099000521CE3194AEB0101EEE70124EAE7814426
:1009A00053EA010002D019F5C87F06DA0398002146
:1009B000C0E9001107B0BDE8F08F0025AE4E2F460C
:1009C000DFF8B882184600F091F9CDE90001B9F1DD
:1009D000000002DAC9F1000400E004460023A74A3F
:1009E0001AEB030B42EB045A12E0E00707D02A4649
:1009F000334638464146FFF79CFC074688462A4660
:100A0000334610461946FFF794FC05460E4664101F
:100A1000002CEAD1DDE90001B9F1000F5A46534636
:100A200006DAFFF7D0FE3A464346FFF7CCFE05E074
:100A3000FFF77FFC3A464346FFF77BFC029A0AB178
:100A400081F00041039AC2E90001B3E72DE9FF4FAD
:100A50001F468DB0D7E901464FF0FF382E2045469E
:100A60004FF000090B90B9696D1C0E988847396AE0
:100A7000824688470028F6D1BAF1FF3F0AD024F415
:100A8000D064002E11DDBAF12B0F08D0BAF12D0F72
:100A90000BD102E0404611B08DE744F48064B9699F
:100AA0006D1C0E9888478246761E6946600501D502
:100AB0002D2000E02B208DF8000001F1010B0DF13D
:100AC000200809E0B9696D1C0E98884782460F9886
:100AD00044F40074761E0560002E02DDBAF1300F7A
:100AE000F0D00B998A453ED144F0800406E00F997E
:100AF000681CA9F1010944F400740860B9696D1C0F
:100B0000761E0E98884782463028F0D02BE00B994D
:100B10008A4505D1200603D444F08004761E18E0EF
:100B2000504601F0E5FD08B30DF11301761E44F4C3
:100B300000748B4508D2AAF130000BF8010B200697
:100B400007D5A9F1010003E0200602D409F1010054
:100B50008146A00502D50F99681C0860B9696D1C13
:100B60000E9888478246002ED1DC53E0002E51DDDE
:100B7000BAF1650F02D0BAF1450F4BD1A00549D5A6
:100B8000B9696D1C24F44074761E0E98884782461D
:100B9000002E0CDD2B2804D0BAF12D0F07D144F420
:100BA0008074B9696D1C0E9888478246761EE005F0
:100BB00001D52D2100E02B2108F8011BCDF82C8058
:100BC00021E00DF12901761E44F4007488450CD211
:100BD000AAF1300010F0FF0088F8000002D10B9954
:100BE000884509D908F1010806E0E00501D5244847
:100BF00001E042F20F708146B9696D1C0E9888477A
:100C000082460F980560002E04DD504601F070FD0D
:100C10000028D6D1F9690E988847FF208BF800008C
:100C200088F800000020069007904B466A4608A905
:100C300006A8FFF777FEA00502D46FF001002AE7AF
:100C400014F0240F0AD0E00714D1DDE90612386849
:100C5000031D3B600068C0E900120BE0DDE90601FE
:100C6000FFF722FC0146E00704D13868021D3A6014
:100C70000068016028460EE7000014400000F03FC5
:100C8000F1D8FFFF426842B1016811F8013B23B17E
:100C9000521EC0E90012184670470121C160881E2B
:100CA000704742685AB1C368016843B983688B4290
:100CB00005D0491E521CC0E90012002070474FF0B9
:100CC000FF3070477F2801D9002208E0064A02EB76
:100CD0005002C007127800D1120902F00F02012061
:100CE0009040084070470000003C00080EB540F2FC
:100CF000334202920022CDE900221346FFF715FD90
:100D000003B000BD21B1026842F00102026003E0BD
:100D1000026822F00102026070470000016821F0C1
:100D2000010101600021016041608160C1600161D9
:100D3000212141614A49884204D13D21484A103A63
:100D400091608CE046491831884205D14FF47461B6
:100D5000434A103A916082E041493031884205D1DE
:100D60004FF474113E4A103A916078E03C494831A2
:100D7000884205D14FF07461394A103A91606EE0B3
:100D800037496031884204D13649354A103AD1603A
:100D900065E033497831884204D13349304A103A0A
:100DA000D1605CE02E499031884204D12F492C4A11
:100DB000103AD16053E02A49A831884205D14FF05A
:100DC0003D51274A103AD16049E02949884204D16F
:100DD0003D21274A083A116041E0254918318842EF
:100DE00005D14FF47461224A083A116037E0204976
:100DF0003031884205D14FF474111D4A083A116010
:100E00002DE01B494831884205D14FF07461184AE2
:100E1000083A116023E016496031884204D1114933
:100E2000134A121F11601AE011497831884204D127
:100E30000D490F4A121F116011E00D49903188428F
:100E400004D10A490A4A121F116008E00849A83172
:100E5000884204D14FF03D51054A121F116070477E
:100E6000106002403D000020400F002000003D20A7
:100E700010640240014600200A6802F001020AB133
:100E8000012000E0002070470146486880B27047AA
:100E900010B500220268134B1A40CC680B6823433C
:100EA0004C6923438C692343CC6923430C6A234355
:100EB0004C6A23438C6A23434C6B23438C6B234340
:100EC0001A430260426922F00702D1E90B3423433E
:100ED0001A4342610B6943604B6883608B68C3604F
:100EE00010BD00003F801CF0416070471CB501211F
:100EF0000F2000F0C3F80420009001208DF80400BA
:100F00008DF8070002208DF8050000208DF80600FE
:100F10006946044800F008F80421024800F06FF820
:100F20001CBD0000000C0240F0B50A460021002361
:100F3000002400BF3DE0012505FA01F3156805EA2C
:100F400003049C4234D105684F000326BE40B543DC
:100F5000056015794E00B540066835430560157982
:100F6000012D02D01579022D16D185684F00032678
:100F7000BE40B543856055794E00B540866835431F
:100F80008560456801268E40B54345604568967981
:100F90008E40B6B235434560C5684F000326BE405B
:100FA000B543C560D5794E00B540C6683543C560C8
:100FB000491C1029BFD3F0BDF0B5002300244D0714
:100FC000ED0E02FA05F3CE1000F1200555F826507B
:100FD0004E07F70E0F26BE40B543CF1000F1200696
:100FE00046F82750CE1000F1200555F8265045EA66
:100FF0000304CE1000F1200545F82640F0BD4183E2
:101000007047000070B5002100230F22C4781CB384
:10101000174C246804F4E064C4F5E064C4F30721C9
:10102000C1F10404E3B20A4144789C40E1B28478FF
:10103000144021430C07210E0E4C057861550478AD
:1010400004F01F050124AC4005786D11AD0005F1D9
:10105000E025C5F8004109E0047804F01F050124EB
:10106000AC40054D0678761145F8264070BD00006D
:101070000CED00E000E400E080E100E029B1064A68
:1010800012680243044B1A6004E0034A1268824368
:10109000014B1A60704700003038024029B1064AFF
:1010A00012680243044B1A6004E0034A1268824348
:1010B000014B1A60704700004038024029B1064ACF
:1010C00012680243044B1A6004E0034A1268824328
:1010D000014B1A60704700002038024029B1064ACF
:1010E00012680243044B1A6004E0034A1268824308
:1010F000014B1A60704700004438024029B1064A8B
:1011000012680243044B1A6004E0034A12688243E7
:10111000014B1A607047000024380240F0B50021EE
:1011200000220024022500260223324F3F6807F0E8
:101130000C0121B1042905D0082937D105E02E4F33
:10114000076036E02D4F076033E02A4F3F1F3F68AE
:10115000C7F38056274F3F1F3F6807F03F036EB12C
:10116000264FB7FBF3F7DFF88CC0ACF1040CDCF8CA
:1011700000C0CCF3881C07FB0CF40CE01E4FB7FB3F
:10118000F3F7DFF870C0ACF1040CDCF800C0CCF36E
:10119000881C07FB0CF4174F3F1F3F68C7F301473C
:1011A0007F1C7D00B4FBF5F7076002E0124F07607B
:1011B00000BF00BF0F4F3F6807F0F0010909104F53
:1011C0007A5C0768D74047600A4F3F6807F4E051F0
:1011D000890A0B4F7A5C4768D7408760054F3F68A4
:1011E00007F46041490B064F7A5C4768D740C760F7
:1011F000F0BD0000083802400024F40000127A001C
:10120000000000200CB500200190009034480068D8
:1012100040F480303249086000BF3148006800F473
:10122000003000900198401C0190009818B9019876
:10123000B0F5A04FF1D12A48006800F4003010B199
:101240000120009001E0002000900098012846D184
:1012500023484030006840F0805021494031086008
:101260002048006840F440401E4908601C4808308F
:1012700000681B49083108600846006840F40040D7
:1012800008600846006840F4A05008601648091F2E
:101290000860081F006840F08070091F086000BFE8
:1012A0000F48006800F000700028F9D040F2057087
:1012B0000E4908600A480830006820F00300084919
:1012C000083108600846006840F00200086000BF6E
:1012D00003480830006800F00C000828F8D10CBD65
:1012E000003802400070004008544007003C0240B3
:1012F00002480068401C0149086070471000002047
:1013000010B51548006840F4700013490860134890
:10131000006840F001001149086000200F490831C1
:1013200008600E4800680E4908400C4908600D48E6
:10133000091D0860081F006820F48020091F08604C
:10134000002006490C310860FFF75CFF4FF0006099
:1013500001498039086010BD88ED00E00038024086
:10136000FFFFF6FE1030002400B58FB001210720EA
:10137000FFF784FE01210220FFF7B0FE03220621C1
:101380005F48FFF719FE032207215D48FFF714FEAF
:10139000032208215A48FFF70FFE0322072159486C
:1013A000FFF70AFE032200215748FFF705FE03223C
:1013B00001215548FFF700FE4FF4E0700D90022028
:1013C0008DF8380000208DF83A0003208DF83900A0
:1013D00000208DF83B000DA94948FFF7A5FD8020AE
:1013E0000D9002208DF8380000208DF83A0003207F
:1013F0008DF8390000208DF83B000DA94148FFF71A
:1014000093FD03200D9002208DF8380000208DF808
:101410003A0003208DF8390000208DF83B000DA91B
:101420003948FFF781FD394800F0AAF80020ADF8EF
:1014300028006020ADF82A0040F6AC500B90002048
:10144000ADF8300002208DF832000AA92F4800F0D4
:1014500067FA7020ADF814000120ADF816000420E2
:10146000ADF818004FF4FA7007900020ADF8200096
:10147000ADF82200ADF82400ADF8260005A92348F8
:1014800000F046F905A9214800F08AF905A91F488E
:1014900000F0E6F908211D4800F078F908211B4802
:1014A00000F0D0F90821194800F02AFA4FF4006042
:1014B000ADF804004010ADF806000020ADF80800BB
:1014C0006420ADF80A000020ADF80C004FF4005085
:1014D000ADF80E000020ADF8100001A90B4800F097
:1014E00023F80121094800F013F80121074800F012
:1014F00037F80121054800F027F80FB000BD0000C3
:1015000000080240000002400004024000040140C4
:1015100021B1028842F08002028004E002884FF686
:101520007F731A40028070470A884B881A438B8861
:101530001A43CB881A430B891A434B891A438B8968
:101540001A43A0F84420704721B1028842F00102FA
:10155000028004E002884FF6FE731A400280704752
:1015600031B1B0F8442042F40042A0F8442005E034
:10157000B0F84420C2F30E02A0F8442070470000E7
:1015800010B504465548844208D101210846FFF7AA
:10159000B5FD00210120FFF7B1FD9DE0B4F1804FC2
:1015A00008D101210846FFF789FD00210120FFF73E
:1015B00085FD91E04A48844208D101210220FFF7CD
:1015C0007DFD00210220FFF779FD85E0454884423A
:1015D00008D101210420FFF771FD00210420FFF74D
:1015E0006DFD79E04048844208D101210820FFF7D1
:1015F00065FD00210820FFF761FD6DE03B48844256
:1016000008D101211020FFF759FD00211020FFF71C
:1016100055FD61E03648844208D101212020FFF7C2
:101620004DFD00212020FFF749FD55E0314884425F
:1016300008D101210220FFF761FD00210220FFF700
:101640005DFD49E02C48844209D101210804FFF7DF
:1016500055FD00214FF48030FFF750FD3CE0274856
:10166000844209D101214804FFF748FD00214FF4CD
:101670000030FFF743FD2FE02148844209D10121CA
:101680008804FFF73BFD00214FF48020FFF736FD73
:1016900022E01C48844208D101214020FFF70EFDC2
:1016A00000214020FFF70AFD16E01748844208D1C8
:1016B00001218020FFF702FD00218020FFF7FEFCC2
:1016C0000AE01248844207D101218015FFF7F6FC99
:1016D0000021A015FFF7F2FC10BD00000000014042
:1016E0000004004000080040000C004000100040D2
:1016F000001400400004014000400140004401404B
:101700000048014000180040001C0040002000403C
:1017100070B5002400220023058C4FF6FE7635407C
:101720000584028C8388048B4FF68F752C40B51E80
:101730002C400D882C43751E2A408D892A434D88E4
:101740002A43104DA84202D00F4DA84213D14FF6A4
:10175000F7752A40CD892A434FF6FB752A408D88BC
:101760002A434FF6FF652B404FF6FF552B400D8A5D
:101770002B434D8A2B43838004838D684563028409
:1017800070BD000000000140000401400A46002135
:10179000018B4FF6F7731940114301837047000026
:1017A00070B5002400220023058C4FF6EF763540FB
:1017B0000584028C8388048B48F6FF752C404FF615
:1017C000FF452C400D884FF6FF7606EA05252C4391
:1017D0004FF6DF752A408D8906EA05152A434D88A4
:1017E00006EA05152A43154DA84202D0144DA84219
:1017F0001DD14FF67F752A40CD894FF6FF7606EA58
:1018000005152A434FF6BF752A408D8806EA05154F
:101810002A434FF6FF352B404FF2FF752B400D8AC0
:1018200006EA85052B434D8A06EA85052B4383800E
:1018300004838D688563028470BD00000000014050
:10184000000401400A460021018B4FF2FF7319404A
:101850004FF6FF7303EA0223194301837047000028
:1018600070B5002400220023058C4FF6FF6635403A
:101870000584028C8388848B4FF68F752C404FF63D
:10188000FC752C400D882C434FF6FF552A408D895E
:101890004FF6FF7606EA05252A434D8806EA052518
:1018A0002A43154DA84202D0144DA8421DD14FF233
:1018B000FF752A40CD894FF6FF7606EA05252A43B3
:1018C0004FF6FF352A408D8806EA05252A434EF655
:1018D000FF752B404DF6FF752B400D8A06EA051566
:1018E0002B434D8A06EA05152B43838084838D683C
:1018F000C563028470BD0000000001400004014087
:101900000A460021818B4FF6F773194011438183FA
:1019100070474163704781637047C163704700003F
:1019200000220288184B98420ED0184B98420BD0D8
:10193000B0F1804F08D0164B984205D0154B984215
:1019400002D0154B984204D14FF68F731A404B8842
:101950001A43124B984207D0114B984204D04FF6CD
:10196000FF431A400B891A4302804B68C3620B88FD
:101970000385054B984202D0044B984201D18B7AE3
:101980000386012383827047000001400004014068
:101990000004004000080040000C0040001000401F
:1019A0000014004010B540F22441154800F04AF9F7
:1019B000012824D112480088124908601048001DEF
:1019C000008808601048FFF75FFAC0F580700D4985
:1019D000086000210C48FFF795F900BF0A48FFF79F
:1019E00049FA0028FAD14FF480710748FFF77CFAD2
:1019F00001210548FFF786F901200449086010BD60
:101A000000440040140000208860024018000020BC
:101A100010B596B0044601213E48FFF72FFB012187
:101A20004804FFF73BFB072202213B48FFF7C4FABB
:101A3000072203213848FFF7BFFA02208DF854002F
:101A400000208DF856000C20149001208DF85700CE
:101A500002208DF8550014A92F48FFF765FA2620BB
:101A60008DF83C0001208DF83F000FA8FFF7CAFA5F
:101A70002A4800F06FF810940020ADF84C000C20BC
:101A8000ADF84A000020ADF84800ADF84600ADF8CA
:101A9000440010A9214800F025F9012240211F48E7
:101AA00000F04EF801211D4800F03EF8012240F2FE
:101AB00024411A4800F0F0F81948FFF72FF94FF0C9
:101AC000006000901548001D01901648029000200B
:101AD00003904FF480700490002005904FF48060D4
:101AE00006900020079008904FF480700990400203
:101AF0000A9000200B9003200C9000200D900E9077
:101B000069460748FFF7C4F901210548FFF7FAF8CD
:101B100016B010BD0100200000000240004400404B
:101B2000886002407801002021B1828942F400528D
:101B3000828104E082894DF6FF731A4082817047EA
:101B40001AB1838A0B43838202E0838A8B438382A8
:101B50007047000010B504463248844208D1012184
:101B60001020FFF7CBFA00211020FFF7C7FA57E04B
:101B70002D48844209D101214804FFF79FFA002132
:101B80004FF40030FFF79AFA4AE02848844209D11E
:101B900001218804FFF792FA00214FF48020FFF71B
:101BA0008DFA3DE02248844209D10121C804FFF7A3
:101BB00085FA00214FF40020FFF780FA30E01D483D
:101BC000844209D101210805FFF778FA00214FF47A
:101BD0008010FFF773FA23E01748844208D10121EF
:101BE0002020FFF78BFA00212020FFF787FA17E06B
:101BF0001248844209D101218807FFF75FFA0021CA
:101C00004FF08040FFF75AFA0AE00D48844207D1AE
:101C100001214005FFF752FA00216005FFF74EFA57
:101C200010BD00000010014000440040004800408A
:101C3000004C00400050004000140140007800407B
:101C4000007C004070B502460024002300250020DF
:101C500040F66A16B14200D100BFC1F3421501F04F
:101C60001F03012606FA03F3012D02D196893340A2
:101C700006E0022D02D1168A334001E0968A3340F5
:101C80000C12012606FA04F41688344013B10CB184
:101C9000012000E0002070BDF0B5034600240026BE
:101CA0000025002040F66A17B94200D100BF18464F
:101CB000C1F3421401F01F06012707FA06F5012CB3
:101CC00001D10C3004E0022C01D1103000E01430BE
:101CD0001AB107682F43076002E00768AF43076047
:101CE000F0BD00002DE9FF4705460E460024A14641
:101CF00000BFA046B08900B100BF2C8A24F4405434
:101D0000F08804432C82AC8941F20C608443B08893
:101D100031890843718908430443AC81AC8A24F4B7
:101D20004074B0890443AC826846FFF7F7F9204855
:101D3000854202D01F48854202D1DDF80C9001E0B7
:101D4000DDF80890A88900F4004040B109EBC90013
:101D500000EB091031684900B0FBF1F707E009EB2F
:101D6000C90000EB091031688900B0FBF1F764206D
:101D7000B7FBF0F004012009642101FB1078A88969
:101D800000F4004040B1322000EBC800B0FBF1F09D
:101D900000F00700044308E0322000EB0810642143
:101DA000B0FBF1F000F00F0004432C81BDE8FF8789
:101DB00000100140001401400FB4054B10B503A9F9
:101DC000044A029800F0D4FC10BC5DF814FB00003B
:101DD000E13200081C00002003B401984100009883
:101DE00050EAC12018BF04204A0D18BF40F001007E
:101DF00040F2FF72B2EB515F08BF40F002000128D1
:101E000008BF052002B0704770B59B482DED020B4E
:101E10002DED068B079D25F00044A04218DC974865
:101E2000844202DC0AD1069840B19DED060BBDEC60
:101E3000068B02B0BDE8704000F044BB002DCCBF63
:101E40009FED8F0B9FED900BBDEC068B02B070BD2C
:101E50008F48A04215DD8F48A042D8BF4FF0FF3415
:101E600058DD9DED060B51EC100BFFF7B5FF042874
:101E700008BF00F03DFB9DED060BBDEC068B02B0EC
:101E800070BD9DED060B51EC100B01F01DFACDE974
:101E9000060181489FED828BA0423CDD8248A04232
:101EA0001FDD00249FED82AB9DED060B53EC1A2B3A
:101EB00051EC100BFEF796F99DED060B41EC190B5A
:101EC00053EC1A2B51EC100BFEF733FA53EC182B92
:101ED000FEF729FA53EC192BFEF775FCCDE9060144
:101EE00049E09DED060B012453EC182B51EC100B2F
:101EF000FEF778F99DED060B41EC190B53EC182B0E
:101F000051EC100BFEF70FFA53EC192BFEF75BFCAC
:101F1000CDE906012FE06848A0421FDD02249FEDB5
:101F2000689B9DED060B53EC192B51EC100BFEF743
:101F300000FA53EC182BFEF755F99DED060B41EC1A
:101F4000180B53EC192B51EC100BFEF7ECF953EC7A
:101F5000182BFEF738FCCDE906010CE09DED060BD1
:101F6000032453EC102B9FED580B51EC100BFEF794
:101F70002AFCCDE906019DED060B53EC102B51EC2C
:101F8000100BFEF7D6F941EC180B53EC182BFEF7AB
:101F9000D0F941EC190B4E480621B0EE490AF0EE9B
:101FA000690A784400F012FA53EC182B51EC100B2C
:101FB000FEF7BFF941EC180B4648B0EE490AF0EEC7
:101FC000690A0521784400F001FA53EC192B51EC11
:101FD000100BFEF7AEF941EC100B51EC180B53EC63
:101FE000102B002C0EDAFEF7FDF89DED061B53ECCE
:101FF000112BFEF79EF99DED061B53EC112BFEF7FE
:1020000095F935E0FEF7EEF89DED061B53EC112B2C
:10201000FEF78FF941EC100B2F48784400EBC40019
:1020200090ED001B51EC100B53EC112BFEF77BF9DC
:102030009DED061B53EC112BFEF775F941EC100BCF
:102040002648784400EBC40090ED001B51EC100BC7
:1020500053EC112BFEF76AF941EC100B002DA2BFD7
:10206000BDEC068B02B070BD51EC100B81F000414D
:1020700041EC100B01E70000000010440000F07F6D
:10208000182D4454FB21F93F182D4454FB21F9BF6E
:102090000000DC3F0000203E0000F33F0000000095
:1020A000000000000000F03F0000E63F00000000DC
:1020B000000000000000004000800340000000001D
:1020C000000000000000F83F000000000000F0BF2A
:1020D000221C0000D81B0000621B00001A1B00001D
:1020E00070B56B4E2DED040B2DED028B82B0DDF83B
:1020F0001CC0DDE905235C422CF000411C4341EA91
:10210000D474049D22F00040B44205D86C422C43A4
:1021100040EAD474B4420BD99DED061B9DED040B2F
:1021200002B0BDEC028B04B0BDE8704000F0D4B941
:10213000ACF14054A4F17F641C430BD0022404EAA8
:10214000AC7444EAD27405439FED538B9FED542B3E
:1021500007D015E09DED040B51EC100B01F048F891
:1021600042E0002C11BF012C9DED040B02B0BDEC30
:10217000028B04BF04B070BD022C38D0032C3BD0BE
:102180000B439FED491B9FED4A0B0AD0B14218D17A
:10219000B04209D121F0804120F0804007910590A4
:1021A0000FE0002A15DA10E0434B7B44002C08BFF7
:1021B00093ED000B0DD0012C10D0022C17D0032C66
:1021C0001AD0B0421DD1002A03DAB0EE410AF0EE77
:1021D000610A02B0BDEC028B04B070BD93ED000B40
:1021E00051EC100B81F0004141EC100BF1E7B0EE27
:1021F000480AF0EE680AECE7B0EE420AF0EE620A36
:10220000E7E7401A00153C28C8BF8DED000B19DC2C
:10221000BCF1000FBEBF10F13C0F9FED290B8DEDFF
:10222000000B0FDB9DED060B53EC102B9DED040B0B
:1022300051EC100BFEF7C7FA01F046F800F0D8FF9A
:10224000CDE90001002C08BF9DED000BC1D0012C91
:1022500010D0022C9FED1C0B53EC102B9DED000BAE
:1022600051EC100B0DD0FEF75EF853EC182BFEF777
:102270005AF8B9E7019880F0004001909DED000BFD
:10228000A7E7FEF750F853EC182BFEF74FF8ABE733
:102290000000F07F00000000182D4454FB2109408D
:1022A000182D4454FB2109C0182D4454FB21F9BFBB
:1022B000182D4454FB21F93F4A1A00000000000089
:1022C0000000000000000000075C143326A6A13CBB
:1022D00030B583B0044600F023F99FED090B0546A5
:1022E0008DED000B002221466846FEF77CF928465A
:1022F00000F02CF99DED000B03B030BD0000000094
:1023000000000000000000002DED020B019820F0FD
:10231000004001909DED000B02B0704710B52DED0F
:10232000028BF0EE408A18EE900AB0EE608A20F040
:102330000040C0F1FF40C00F07D118EE100A20F096
:102340000040C0F1FF40C00F2BD018EE101A18EE5D
:10235000900AFEF7B2F900EE100A10EE100A6FEACA
:10236000D05010F0FF0F04BFBDEC028B10BD18EE73
:10237000900A00F0004110EE100A00F00040814287
:1023800004BFBDEC028B10BD18EE101A10EE100A3F
:10239000BDEC028B61F31E0000EE900A30EE600A85
:1023A00010BD18EE900A4FF07F41B1EB400F1CBFFB
:1023B00018EE100A5FEA4000C7D1012000F0C6F80D
:1023C000BDEC028BBDE8104000F0A2B870B5044629
:1023D0002DED028B4D1E00EBC500B0EE408AF0EEF5
:1023E000608A90ED000B35F0060017D053EC182BE7
:1023F00051EC100BFDF79DFF41EC100B6D1E04EB33
:10240000C50090ED001B51EC100B53EC112BFDF7A8
:10241000E9FE41EC100B35F00600E7D1022D36D075
:10242000042D1CD0062D1CBFBDEC028B70BD53ECDF
:10243000182B51EC100BFDF77CFF94ED0A1B53ECAD
:10244000112BFDF7CFFE53EC182BFDF772FF94ED27
:10245000081B53EC112BFDF7C5FE41EC100B53ECA0
:10246000182B51EC100BFDF764FF94ED061B53EC99
:10247000112BFDF7B7FE53EC182BFDF75AFF94ED27
:10248000040B53EC102BFDF7ADFE41EC100B53EC9D
:10249000182B51EC100BFDF74CFF94ED021B53EC85
:1024A000112BFDF79FFE53EC182BFDF742FF94ED27
:1024B000001B53EC112BFDF795FEBDEC028B41EC9C
:1024C000100B70BD10B553EC102B51EC100BFDF739
:1024D00089FE41EC100B10BD10B553EC112B51ECE3
:1024E000100BFDF77FFE41EC100B10BD000000004B
:1024F0009FED050B10B553EC102B51EC100BFDF7B5
:1025000018FF41EC100B10BD00000000000000108F
:10251000DFED020A80EEA00A704700000000000014
:1025200001480068704700007400002002E008C8FD
:10253000121F08C1002AFAD170477047002001E03D
:1025400001C1121F002AFBD1704700000149086039
:102550007047000074000020F0EE400A00EE100A00
:10256000B8EEC00A20EE800A704700002DE9FF5F38
:1025700082B00021DDE90430020DDDF840B00343F4
:1025800018D044F61050A2F2FF32424315141198AD
:1025900001281FD0A5EB0B00401C5FEA000A4FF09A
:1025A00000064E4FDFF83891B046504615D5CAF1B7
:1025B000000413E0119801244AA3012801D16FEA15
:1025C0000B010298119AC0E90031C0E9024206B03D
:1025D000BDE8F09FCBF10000DFE704460021404A50
:1025E000491842EB0450CDE9001012E0E00707D093
:1025F00032463B4640464946FDF79BFE80468946AB
:1026000032463B4610461946FDF793FE06460F46F6
:102610006410002CEAD1DDE90401DDE90023BAF100
:10262000000F06DAFDF785FE42464B46FDF781FEB8
:1026300005E0FEF7C8F842464B46FEF7C4F80446EC
:102640000E460022284BFDF717FF03D84FF0FF304E
:10265000014607E00022254B20463146FDF7C2FD2A
:10266000FEF720F9102409E0002C0ADB0A220023DF
:10267000FDF74CFF039B30321A55641E50EA0102ED
:10268000F2D1641C039AC4F111031444119A012A73
:1026900003D0012208430DD10AE0084304D00020F2
:1026A0004FF0110B119072E7A3EB0B056D1E0DE0BF
:1026B0005B4504DD4FF0000205F1010504E003DA9B
:1026C0004FF00002A5F10105002AECD00298119903
:1026D000C0E90231C0E9004579E70000000014407C
:1026E0000000F03F300000000000F0430000E03F39
:1026F00030380A2801D201207047002070470000BE
:1027000000BF0A4801684FF0E0208269074800686E
:102710008142F6D10648801AA823B0FBF3F001EB02
:102720004103C3EBC11300EBC3007047100000204E
:102730004090020010B52DED028BF0EE408ADFEDE7
:102740000B0AB0EE680AFFF7E9FDB0EE408AB5EE7D
:10275000C08AF1EE10FA04DBB0EE480ABDEC028B41
:1027600010BD9FED020A38EE000AF7E7DB0FC94003
:102770002DE9FF4F95B09B468946064600250FE29E
:10278000252877D100242746F84A0121059400E046
:10279000044316F8013F203B01FA03F01042F7D141
:1027A00030782A2811D06FF02F033078A0F1300252
:1027B000092A16D8059A44F0020402EB820203EBC0
:1027C00042021044761C0590EFE759F8042B05925D
:1027D000002A03DA504244F40054059044F0020405
:1027E000761C30782E2816D116F8010F44F0040418
:1027F0002A280DD06FF02F023078A0F13003092B7A
:1028000009D807EB870302EB4303C718761CF3E7ED
:1028100059F8047B761C30786C280FD006DC4C28E5
:1028200017D068280DD06A2814D104E0742810D07D
:102830007A280FD10DE044F400140AE044F4801427
:1028400001E044F440147278824202D104F580140D
:10285000761C761C307866280BD013DC582877D08D
:1028600009DC002875D04528F6D04628F4D0472842
:102870001AD19DE118E0632835D0642879D0652805
:1028800012D195E1702873D008DC6728F1D069284F
:102890006FD06E280DD06F2806D1B5E073282CD0EC
:1028A000752875D0782874D05A46179990476D1CB2
:1028B00075E1C4F30250022809D003280DD0D9F8DD
:1028C000001004280DD00D6009F1040967E1D9F862
:1028D0000010EA17C1E90052F6E7D9F800100D80A0
:1028E000F2E70D70F0E719F8041B8DF800100020D6
:1028F0008DF80100EA46012003E059F804AB4FF0DF
:10290000FF3061074FF0000102D40DE008F1010132
:102910008846B9420FDA8045F8DB1AF8081000291A
:10292000F4D108E008F1010188468142FADB1AF887
:1029300008100029F6D105985B46A0EB0807214650
:102940003846179A00F094FA284400EB080507E08F
:102950004DE029E10DE01AF8010B5A46179990470E
:10296000B8F10108F7D25B4621463846179A13E1C1
:1029700042E00A220092C4F302524FF0000A022AF7
:1029800008D059F804CB032A4FEAEC710AD00DE0C5
:1029900029E02AE009F1070121F00702F2E802C16B
:1029A000914609E00FFA8CFC4FEAEC71042A03D13E
:1029B0004FFA8CFC4FEAEC71002907DA0A46002135
:1029C000DCF1000C61EB02012D2202E0220504D5AE
:1029D0002B228DF80420012203E0E20701D02022FF
:1029E000F7E7904659E00A2102E010220DE010219D
:1029F0004FF0000A00910BE010224FF0000A44F063
:102A000004040827009203E008224FF0000A009215
:102A1000C4F30252022A05D059F804CB0021032A3C
:102A200008D009E009F1070121F00702F2E802C12C
:102A3000914605E01FFA8CFC042A01D10CF0FF0C32
:102A40004FF00008220728D5702806D0009B83F09D
:102A5000100353EA0A0305D00EE040228DF804204B
:102A6000012208E05CEA010206D030228DF8042041
:102A70008DF8050002229046009B83F0080353EA7C
:102A80000A030AD15CEA010201D1620705D53022AE
:102A90008DF804204FF001087F1E582804D034A080
:102AA00003900EA802900DE036A0F9E75346604669
:102AB000009AFDF72BFD84460398825C0298401E25
:102AC000029002705CEA0100F0D1029806A9081A8F
:102AD00000F1200A600702D524F4803400E00127C9
:102AE000574502DDA7EB0A0000E0002000EB0A01D9
:102AF000009005984144401A0590E00306D45B46D7
:102B00002146179A059800F0B3F90544002706E01E
:102B100001A85A46C05D179990476D1C7F1C474518
:102B2000F6DBE0030CD55B462146179A059800F0CA
:102B30009FF9054404E030205A46179990476D1CD0
:102B40000099481E00900029F5DC08E002980299DF
:102B50005A460078491C0291179990476D1CBAF1AA
:102B60000001AAF1010AF1DC65E100000928010079
:102B700030313233343536373839616263646566F3
:102B800000000000303132333435363738394142B5
:102B9000434445460000000000F058F90544761C07
:102BA000307800287FF4ECAD19B02846BDE8F08FEE
:102BB000620700D4062709F1070222F0070CFCE89F
:102BC0000223E14603F000485FEA080C02D00FF24E
:102BD000702C0DE05FEA045C02D50FF2682C07E070
:102BE0005FEAC47C02D00FF2602C01E0AFF2700CFF
:102BF0004FF0FF3823F00043CDF850C065280CD0CB
:102C000006DC452809D046281DD047283DD13DE0A7
:102C1000662818D067287ED138E00021112F01DB0B
:102C2000112000E0781CCDE9000106A90EA8FFF7ED
:102C30009DFCDDE90F010E9A03910021009207F13E
:102C4000010A04914DE04FF000400097CDE90110DA
:102C500006A90EA8FFF78AFCDDE90F0203920E9B7E
:102C600011990022DDF80CA00093049211B9791C8F
:102C700000EB010AB7EB0A0004D4C0F1FF3007F102
:102C8000010A0490AAEB0700019044E0012F00DA4A
:102C900001270021112F01DD112000E03846CDE988
:102CA000000106A90EA8FFF761FCDDE90F010E9AED
:102CB0000391002104910092BA4621070CD4039994
:102CC000514500DA8A46BAF1010F05DD009AAAF1F2
:102CD0000101515C302908D0B84202DA10F1040F2A
:102CE00006DA0121CDE9011015E0AAF10101E9E7B9
:102CF000002805DC049901440491AAEB000102E0DC
:102D0000411C514500DD8A460499401A401C01903F
:102D10004FF000400290200704D40198504501DB99
:102D2000CDF8048000208DF84F0002980DF14F0778
:102D3000B0F1004F25D02B200E9002984FF00208E2
:102D400000280CDA404202902D200E9007E00A2164
:102D50000298FDF7C5FB3031029007F8011DB8F16C
:102D60000001A8F10108F2DC02980028EFD1791ED9
:102D70000E980870307800F0200040F0450007F809
:102D8000020D12A8C01B00F107081498007800B1CA
:102D9000012000EB0A01019801EBE0710598414424
:102DA000401A401E0590E00306D45B462146179A60
:102DB000059800F05DF805441498007818B15A465B
:102DC000179990476D1CE00324D55B462146179A5E
:102DD000059800F04DF805441CE00498002807DB36
:102DE000DDE90301884203DD0098405C179901E0AA
:102DF000179930205A469047049805F10105401C68
:102E000004900198401E019004D12E205A46179933
:102E100090476D1CBAF10001AAF1010ADDDC05E062
:102E200017F8010B5A46179990476D1CB8F100012D
:102E3000A8F10108F4DC5B462146179A0598ABE639
:102E40002D0000002B000000200000002DE9F041C3
:102E5000044600251E461746880404D405E039467A
:102E60002020B0476D1C641EF9D52846BDE8F081CE
:102E70002DE9F041044600251E469046C80301D5C1
:102E8000302700E02027880404D505E04146384675
:102E9000B0476D1C641EF9D52846BDE8F0810000DE
:102EA00010B52DED068BB0EE408A9FED660AB4EEAC
:102EB000C08AF1EE10FA2BD29FED630A28EE000AC9
:102EC000B5EEC00AF1EE10FA0ADBDFED5F0AB6EEEE
:102ED000000A00EE880ABDEEC00A10EE100A09E0F2
:102EE000DFED590AB6EE000A10EE880ABDEEC00A00
:102EF00010EE100A554951F8200000EE100AB8EE05
:102F0000C00ADFED530A20EE200ABDEC068B10BD8F
:102F10009FED500AB4EEC08AF1EE10FA33D29FED65
:102F20004A0A28EE000AB5EEC00AF1EE10FA0ADBF2
:102F3000DFED450AB6EE000A00EE880ABDEEC00AD3
:102F400010EE101A09E0DFED400AB6EE000A10EEAE
:102F5000880ABDEEC00A10EE101AC1F5C7713B4ACF
:102F600052F82100FDF757FA41EC1A0B9FED3A0B8E
:102F700053EC102BFDF7DDF941EC190BFDF794FA3A
:102F800000EE100AC1E79FED360AB4EEC08AF1EEFA
:102F900010FA2BD29FED2C0A28EE000AB5EEC00ADB
:102FA000F1EE10FA0ADBDFED280AB6EE000A00EEB9
:102FB000880ABDEEC00A10EE100A09E0DFED220A11
:102FC000B6EE000A10EE880ABDEEC00A10EE100A36
:102FD000A0F5C7701D4951F8200000EE100AB8EEA8
:102FE000C00ADFED200A20EE200A8EE79FED160AC8
:102FF00028EE000AB5EEC00AF1EE10FA0ADBDFEDAA
:10300000120AB6EE000A00EE880ABDEEC00A10EE03
:10301000100A09E0DFED0C0AB6EE000A10EE880A8D
:10302000BDEEC00A10EE100AC0F54770074951F80E
:10303000200000EE100AB8EEC00ADFED0A0A20EE0A
:10304000200A62E7DB0FC93FE65FFD424038000817
:1030500017B7D138DB0F49402D431CEBE2361A3F3E
:10306000E4CB964017B7D1B8F0EE400AB0EE601A44
:1030700011EE100A0349A1EB600001EE100A20EEE8
:10308000810A7047865A375F10B52DED0A8BB0EE76
:10309000408AFFF735FB04464C480068201A00EED2
:1030A000100AB8EE400ADFED4A0A20EE200AF0EEE0
:1030B000408A46480460F5EEC08AF1EE10FA06D95F
:1030C000B6EE000AF4EEC08AF1EE10FA03DD9FEDD1
:1030D000410AF0EE408A404890ED000A20EE280AAE
:1030E00010EE101A0846FDF7B4F941EC1A0B3B48F4
:1030F00090ED000A38EE400A10EE101A0846FDF76F
:10310000A8F941EC1C0BB0EE4C0AF0EE6C0AFFF78C
:10311000FBF8B0EE40BAF0EE60BA53EC1A2B51EC6B
:103120001B0BFDF7A9F930D22C4890ED000A38EEC0
:10313000400AB5EEC00AF1EE10FA02D24FF0FF30AD
:103140000CE0264890ED000A38EE400AB5EEC00AC1
:10315000F1EE10FA01DD012000E0002000EE100A7F
:10316000B8EEC00A1C48D0ED000A60EE200A1B48E9
:1031700090ED000A00EEA80A80ED000A164890EDD6
:10318000000A174880ED000A07E0144880ED008A25
:103190009FED140A124880ED000A134890ED009A42
:1031A000124800680D4991ED000AFFF7D5F9F0EEDD
:1031B000409AB0EE691ADFED0B0AB0EE490A00F052
:1031C0003DF9B0EE490ABDEC0A8B10BD2C00002081
:1031D000BD3786356F12833A30000020340000205E
:1031E0003C000020000000002400002028000020F7
:1031F00010B541EC100BFEF707FE51EC100B10BDA3
:1032000010B52DED028B1A48006801282CD1002042
:103210001749086017480078482802D054281ED162
:1032200003E015A0FEF7C8FD19E01248401CFFF7A7
:103230004FF8B0EE408AF0EE608A51EC180BFDF7C3
:1032400033F91149086008460068FDF702F941ECBE
:10325000180B53EC182B0DA0FEF7AEFD00BF00BFFE
:1032600010210448FCF7B3FFBDEC028B10BD000039
:10327000180000207801002048656C6C6F20576FA3
:10328000726C64210D0A00007000002052583D2528
:103290002E34660D0A000000F0B50646FFF730FA3E
:1032A000054600BFFFF72CFA0446AC4201D3671B6A
:1032B00002E0C5F1FF30071906EB4600C0EBC6106F
:1032C000B7EBC00FEED3F0BD82B0CDE9000121F025
:1032D000004001909DED000B02B051EC100B7047C7
:1032E00000BF054A128802F04002002AF9D0C2B29B
:1032F000014B1B1D1A80704700440040FDF7F6FD8E
:103300004FF4E130FEF784FBFEF72EF800F014FADC
:103310004FF4FA70FFF7C0FFB2EE080A1C4880EDC8
:10332000000AB0EE040A1B4880ED000AB3EE040A5E
:10333000194880ED000A0320184908700720184931
:10334000086018A0FEF738FD9FED1A0A1A4880EDB4
:10335000000A1BE000F0FCF9184909680844174905
:103360000860084600681649884208D300201349BF
:1033700008601448006880F00400124908600E4894
:1033800090ED000A00F020F8FFF73AFFE2E70000B6
:103390002000002024000020300000205D000020DC
:1033A000280000204D6F746F722072656164792E61
:1033B0000D0A0000C3F5C840700000206C0000201A
:1033C00020A10700140C024010B52DED028BB0EEC9
:1033D000408A15480078032802D004281ED10EE048
:1033E000124880ED008A90ED000A00F0C9F91048FB
:1033F00080ED010A9FED0F0A80ED000A0FE00E48F4
:1034000080ED008A90ED000AFFF73EFE084880ED4F
:10341000010A9FED080A80ED000A00E000BF00BF2E
:10342000BDEC028B10BD00005D00002044000020B8
:103430004C000020000000004800002010B52DEDD9
:10344000108B86B0F0EE40DAB0EE60EAB0EE41DA12
:10345000B5EEC0EAF1EE10FA44D06EEE0E0A4DEE73
:10346000AD0AB0EE600AFFF7FFFDA848D0ED000AF4
:10347000C0EE20EA1EEE100AFCF7EBFF41EC1B0B3E
:103480001DEE900AFCF7E5FF41EC1C0BB0EE4B1A69
:10349000F0EE6B1AB0EE4C0AF0EE6C0AFEF720FE6E
:1034A000B0EE40FAF0EE60FA1DEE100AFCF7D1FF24
:1034B00053EC1F2BCDE900019DED000B51EC100BDF
:1034C000FCF790FECDE902019DED020B51EC100BD3
:1034D000FCF7EAFF04909DED040AFFF72BF9B0EE2C
:1034E00040DA0EE0894890ED000ACDEE80EADFED8B
:1034F000880A7DEE200AB0EE600AFFF71BF9B0EEF5
:1035000040DA9FED840ACDEE000AB7EE000A30EEF5
:10351000800ABCEEC00A10EE104A00EE904AB8EEE7
:10352000601ADFED7C1AF0EE4D0A51EE210AB0EE82
:10353000600AFFF7B5FCDFED780A20EE200A60EEA6
:103540002E8A2046FCF778FF41EC1B0B9FED730B96
:1035500053EC102BFCF7E7FE9FED720B53EC102B96
:10356000CDE900019DED000B51EC100BFCF7E1FEE5
:1035700041EC1C0B1DEE100AFCF76BFF53EC1C2BEF
:10358000CDE902019DED020B51EC100BFCF7CBFED7
:1035900041EC1F0BFCF788FF04909DED040AFFF738
:1035A0007FFCDFED5D0A20EE200A20EE2E9AB7EEBA
:1035B000000A30EE680A30EE498A072C78D2DFE83C
:1035C00004F07704172A3D506300F0EE000A88EEFD
:1035D000200A78EE890A70EE209AF0EE000A88EE52
:1035E000200A30EE09AAB0EE000AC8EE00AA66E092
:1035F000F0EE000A88EE200A70EE289AF0EE000A3B
:1036000088EE200A78EE890A30EE20AAB0EE000A91
:10361000C8EE00AA53E0B0EE000AC8EE009AF0EE41
:10362000000A88EE200A78EE890A30EE20AAF0EE31
:10363000000A88EE200A70EE09AA40E0B0EE000A07
:10364000C8EE009AF0EE000A88EE200A30EE28AAB2
:10365000F0EE000A88EE200A78EE890A70EE20AAC1
:103660002DE0F0EE000A88EE200A70EE099AB0EE26
:10367000000A88EE00AAF0EE000A88EE200A78EE32
:10368000890A70EE20AA1AE0F0EE000A88EE200AFD
:1036900078EE890A70EE209AB0EE000A88EE00AA51
:1036A000F0EE000A88EE200A70EE28AA07E0FFE795
:1036B000DFED1E9A9FED1DAADFED1CAA00BF00BF23
:1036C0009FED1B0A29EE800ABCEEC00A10EE101A0C
:1036D0001848FEF71EF99FED160A2AEE000ABCEE06
:1036E000C00A10EE101A1348FEF715F99FED100AE4
:1036F0002AEE800ABCEEC00A10EE101A0D48FEF742
:103700000CF906B0BDEC108B10BD000020000020AD
:10371000DB0FC93F920A863FD7B3DD3F00000000B0
:103720000000F03F0000004052C1F03F00000000E8
:1037300000C05A450004014004484FF0E0214861B0
:103740000020886107200861704700004090020057
:1037500070B5FEF7D5FF044608480068844203D3DD
:1037600006480068251A04E004480068C0F1FF30EC
:10377000051902480460284670BD0000680000205A
:1037800010B52DED048BB0EE408AFEF7B9FF04466C
:1037900023480068201A00EE100AB8EE400ADFED58
:1037A000210A20EE200AF0EE408A1D480460F5EE62
:1037B000C08AF1EE10FA06D9B6EE000AF4EEC08A1D
:1037C000F1EE10FA03DD9FED180AF0EE408A17487B
:1037D000D0ED000A48EE280AB0EE600AFEF7AAFF14
:1037E000124880ED000A124880ED008A114890EDE1
:1037F000009A114800680D4991ED000AFEF7ACFEF1
:10380000F0EE409AB0EE691ADFED0C0AB0EE490A0C
:10381000FFF714FEB0EE490ABDEC048B10BD0000AA
:103820002C000020BD3786356F12833A340000200B
:103830003C000020240000202800002000000000A0
:10384000000000004F0000009E000000ED0000009E
:103850003C0100008B010000D9010000280200009B
:1038600077020000C6020000150300006303000099
:10387000B2030000000400004F0400009D0400009B
:10388000EC0400003A05000088050000D6050000A1
:103890002406000072060000C00600000E070000AB
:1038A0005B070000A9070000F607000043080000BE
:1038B00090080000DD0800002A09000077090000D8
:1038C000C30900000F0A00005C0A0000A80A0000FB
:1038D000F40A00003F0B00008B0B0000D60B000029
:1038E000210C00006C0C0000B70C0000010D000062
:1038F0004C0D0000960D0000E00D0000290E0000A8
:10390000730E0000BC0E0000050F00004E0F0000FB
:10391000960F0000DF0F0000271000006E1000005F
:10392000B6100000FD100000441100008B110000D3
:10393000D1110000171200005D120000A212000059
:10394000E81200002D13000071130000B6130000F0
:10395000F91300003D14000081140000C41400009D
:1039600006150000491500008B150000CC1500005D
:103970000E1600004F1600008F160000CF16000034
:103980000F1700004F1700008E170000CD17000022
:103990000B1800004918000087180000C418000028
:1039A000011900003D19000079190000B519000047
:1039B000F01900002B1A0000661A00009F1A000080
:1039C000D91A0000121B00004B1B0000831B0000D3
:1039D000BB1B0000F21B0000291C0000601C000043
:1039E000961C0000CB1C0000001D0000351D0000CF
:1039F000691D00009D1D0000D01D0000031E000079
:103A0000351E0000671E0000981E0000C91E000041
:103A1000FA1E0000291F0000591F0000881F000027
:103A2000B61F0000E41F0000112000003E2000002F
:103A30006A20000096200000C1200000EC20000059
:103A400016210000402100006921000092210000A1
:103A5000BA210000E1210000082200002F2200000E
:103A6000552200007A2200009F220000C32200009D
:103A7000E72200000A2300002D2300004F2300004E
:103A80007023000091230000B2230000D123000026
:103A9000F12300000F2400002D2400004B2400001F
:103AA0006824000084240000A0240000BB2400003F
:103AB000D5240000EF240000092500002225000085
:103AC0003A25000052250000692500007F250000EE
:103AD00095250000AA250000BF250000D325000081
:103AE000E6250000F92500000B2600001D26000039
:103AF0002E2600003E2600004E2600005D26000017
:103B00006C2600007A26000087260000942600001C
:103B1000A0260000AB260000B6260000C02600004C
:103B2000CA260000D3260000DB260000E3260000A2
:103B3000EA260000F1260000F7260000FC2600001F
:103B40000127000005270000082700000B270000C0
:103B50000D2700000F27000010270000102700008D
:103B60004FBB610567ACDD3F182D4454FB21E93F95
:103B70009BF681D20B73EF3F182D4454FB21F93F84
:103B8000E2652F227F2B7A3C075C143326A6813C0A
:103B9000BDCBF07A8807703C075C143326A6913CB5
:103BA000C4EB98999999C9BF711623FEC671BCBF21
:103BB0006D9A74AFF2B0B3BF9AFDDE522DDEADBF89
:103BC0002F6C6A2C44B4A2BF0D5555555555D53FA1
:103BD000FF8300922449C23F6E204CC5CD45B73FBC
:103BE000513DD0A0660DB13FEB0D76244B7BA93F34
:103BF00011DA22E33AAD903F00000000000000001F
:103C0000DDDDDDDDDCBBBBDDDDDDDDDDDDDDDDDD29
:103C10009888888888888888777777777788888869
:103C20008555555666666666666666666668888801
:103C30008333333222222222222222222228888DFA
:103C4000603C000800000020780000002C250008DF
:103C5000D83C000878000020000600003C25000841
:103C60000000000001020304010203040607080922
:103C70000000000000000000000000000000000044
:103C80000000000000000000000000000000000034
:103C90000000000000000000000000000000000024
:103CA0000000000000000000000000000000000014
:103CB0000000000000000000000000000000000004
:103CC00000000000000000000000000000000000F4
:083CD0000000000000000000EC
:040000050800018965
:00000001FF
