:020000040800F2
:10000000500700209D010008A5010008A701000875
:10001000A9010008AB010008AD01000800000000C4
:10002000000000000000000000000000AF01000818
:10003000B101000800000000B3010008011C000825
:10004000B7010008B7010008B7010008B7010008B0
:10005000B7010008B7010008B7010008B7010008A0
:10006000B7010008B7010008B7010008B701000890
:10007000B7010008B7010008B7010008B701000880
:10008000B7010008210D0008B7010008B7010008FA
:10009000B7010008B7010008B7010008B701000860
:1000A000B7010008B7010008B7010008B701000850
:1000B000B7010008B7010008B7010008B701000840
:1000C000B7010008B7010008B7010008B701000830
:1000D000B7010008B7010008B1220008B701000805
:1000E000B7010008B7010008B7010008B701000810
:1000F000B7010008B7010008B7010008B701000800
:10010000B7010008B7010008B7010008B7010008EF
:10011000B7010008B7010008B7010008B7010008DF
:10012000B7010008B7010008B7010008B7010008CF
:10013000B7010008B7010008B7010008B7010008BF
:10014000B7010008B7010008B7010008B7010008AF
:10015000B7010008B7010008B7010008B70100089F
:10016000B7010008B7010008B7010008B70100088F
:10017000B7010008B7010008B7010008B70100087F
:10018000B7010008B7010008DFF80CD000F0B0FBA1
:10019000004800472D4500085007002006488047CA
:1001A00006480047FEE7FEE7FEE7FEE7FEE7FEE75C
:1001B000FEE7FEE7FEE7FEE7111C000889010008E4
:1001C000D2B201E000F8012B491EFBD27047002299
:1001D000F6E710B513460A4604461946FFF7F0FF46
:1001E000204610BD2DE9FE4F804681EA0300C00F76
:1001F0000C46009021F0004123F00045B8EB0200CE
:10020000A94105D24046214690461C460B4602466F
:1002100023F00040104347D0270DC7F30A00C3F373
:100220000A510290401A019040286BDAC3F3130080
:1002300040F4801B0098924620B10023D2EB030AC1
:1002400063EB0B0B01985946C0F14002504600F099
:1002500082F906460D4650465946019A00F08AF941
:1002600010EB08006141002487EA115284EAE77329
:100270001A4340D0009A62B3019A012A4FEA07520A
:1002800015DC001B61EB02014FF0004202EA07524D
:10029000CDE90042001C41F5801132462B4600F0AA
:1002A0000FFA03B0BDE8F08F40462146F9E7001B86
:1002B00061EB0201001C41F5801300185B4120181E
:1002C000A2F5001747EB030140EAD570B6196D415E
:1002D00011E06D084FEA360645EAC0754FEA07524D
:1002E000001B61EB0201001C41F5801149084FEA37
:1002F00030000019514132462B4603B0BDE8F04FA3
:1003000000F0CFB90098012240000023D0EB020298
:1003100063EBE073009821464FEAE074B8EB00000D
:1003200061EB0401E9E783F000435BE781F0004102
:1003300058E72DE9FE4F81EA030404F0004421F060
:10034000004100944FF0000B23F0004350EA0104F9
:100350005ED052EA03045BD0C3F30A54C1F30A55DA
:100360002C44A4F2F3340194A0FB0254C1F3130112
:1003700041F48011C3F3130343F4801301FB0244DF
:1003800000FB034E840A970A44EA815447EA8357E4
:10039000A4FB076802958D0A05FB07854FEA932C9D
:1003A00004FB0C542705029D4FEA065847EA16370E
:1003B000B5EB08056EEB070C870E920E47EA811726
:1003C00042EA8312A7FB0201B6EB0B0164EB0004C7
:1003D0002B0D43EA0C335E1844EB1C50DA465146B1
:1003E000E7FB0201C5F313044FEA0B3343EA14534E
:1003F0004FEA0432019C43EA0603A4F10C04029480
:10040000009CCDE900B400F05BF903B0BDE8F08FCB
:1004100000200146F9E70EB5C10F80EAE0700844FC
:10042000CA07002140F233438DE80E000A460B460E
:1004300000F046F903B000BD00F0004230F000408B
:100440000AD0C10D01F56071C0F3160042EA0151F6
:10045000C208400711437047002001467047000062
:1004600030B5041E71F1000404DB4FF0004440423B
:1004700064EB0101141E73F1000405DB1C464FF010
:100480000043524263EB0403994208BF904230BDDF
:1004900001F0004330B421F0004150EA010206D0DF
:1004A0000A0DA2F56072C1F31301002A02DC30BC10
:1004B00000207047440F44EAC104C100E01830BC7A
:1004C00000EBC25000F0B6B830B50B460146002034
:1004D0002022012409E021FA02F59D4205D303FA06
:1004E00002F5491B04FA02F52844151EA2F1010287
:1004F000F1DC30BD2DE9F05F0546002092469B46B9
:1005000088460646814640241BE028464146474629
:10051000224600F0FFF953465A46C01A914110D3C3
:1005200011461846224600F016F82D1A67EB01080E
:100530004F4622460120002100F00DF817EB00097C
:100540004E41201EA4F10104DFDC484631462A4614
:100550004346BDE8F09F202A04DB203A00FA02F16E
:10056000002070479140C2F1200320FA03F31943A1
:1005700090407047202A06DBCB17203A41FA02F060
:1005800043EAE07306E041FA02F3D040C2F12002F0
:1005900091400843194670470FB4002300B589B055
:1005A0000CA900910B996FF00042CB601E4B069393
:1005B0001E4B07930423CDE901321D4A08920246DF
:1005C0006B46002000F050FA09B05DF814FB70B5DE
:1005D00086B006464FF0FF300091CDE901010020C2
:1005E00015460C4604903246694604A8FFF7D4FF2E
:1005F00002460498211825B108B1084600E02046BB
:100600002860049800280DD0002A02DD0098884256
:1006100008D0081B0094CDE901043246694604A8BD
:10062000FFF7BAFF06B070BDA10C0008BF0C0008B0
:10063000350900080029A8BF7047401C490008BFC1
:1006400020F00100704710B4B0FA80FC00FA0CF002
:1006500050EA010404BF10BC704749B1CCF120043A
:1006600021FA04F411FA0CF118BF012121430843C7
:10067000A3EB0C01CB1D4FEA00614FEA102042BFF3
:10068000002010BC704700EBC35010440029A4BFE9
:1006900010BC7047401C490008BF20F0010010BC8E
:1006A000704710B5141E73F1000408DA401C41F1C4
:1006B000000192185B411A4301D120F0010010BDE6
:1006C0002DE9F04D92469B4611B1B1FA81F202E05C
:1006D000B0FA80F220329046FFF73DFF04460F4605
:1006E00040EA0A0041EA0B0153465A46084313D038
:1006F000114653EA010019D0C8F14002504600F0FB
:1007000009F905460E46504659464246FFF723FF73
:10071000084305D0012004E020463946BDE8F08DAD
:100720000020054346EAE0762C4337430A986305E8
:10073000E40AA0EB08000022FD0A44EA47540A300C
:1007400002D500200146E9E7010510196941DDE9FC
:10075000084500196941BDE8F04DA2E72DE9F04DCB
:1007600081EA030404F0004B21F0004514464FF0E9
:10077000000A23F0004150EA050220D054EA0102A9
:100780001DD0C5F30A570246C5F31303C1F3130086
:10079000C1F30A5640F4801543F48013A7EB060812
:1007A000101BD64608F2FD3873EB050002D308F1A2
:1007B000010801E092185B41B8F1000F03DA002054
:1007C0000146BDE8F08D00204FF4801106468446B6
:1007D0000EE0171B73EB050705D3121B63EB050334
:1007E00006434CEA010C49084FEA300092185B417D
:1007F00050EA0107EDD152EA030012D082EA040068
:1008000083EA0501084305D0101BAB4106D2012243
:10081000002306E000224FF0004302E06FF00102E7
:1008200053101AEB06004CEB085110EB0A0041EB99
:100830000B01BDE8F04DFFF734BF2DE9FE4FC3F3C8
:100840000A5701F000450024C1F30A56C3F313030D
:10085000C1F3130143F4801312EB020AA64641F4DC
:100860008011009543EB030CA7F1010B16E0B0EBF0
:100870000A0061EB0C01071E71F1000707DA4FF067
:100880000008D0EB080085F0004568EB0101171A5D
:1008900073EB0107EBD3761E001849415E45F6DA8B
:1008A00050EA010209D0CDE900E500221346029684
:1008B000FFF706FF03B0BDE8F08F20460099F9E787
:1008C000C1F30A52C1F3130140F2FF3341F4801126
:1008D0009A4202DA00200146704740F233439A42BE
:1008E000A2F2334202DC524200F014B8FFF733BEEA
:1008F000064C074D06E0E06840F0010394E807006D
:1009000098471034AC42F6D3FFF742FCC84F0008BA
:10091000E84F0008202A04DB203A21FA02F00021E7
:10092000704721FA02F3D040C2F1200291400843FF
:1009300019467047C0B24FF4F05100F0D1B9000031
:100940002DE9FF4F087883B09946FF2805D0491C50
:100950002D2804D00024002008E000200BE0012412
:10096000F9E700EB800003EB4000491C0B78FF2BFC
:10097000F7D104B1404200230293147819461D4672
:100980002D2C01D02B2C04D1521C2D2C13D0002443
:100990000294AA461478FF2C0FD00A25A3FB0578F1
:1009A00001FB05814FF0000C03FB0C11521CE319F5
:1009B0004AEB0101EEE70124EAE7814453EA010032
:1009C00002D019F5C87F06DA03980021C0E90011AA
:1009D00007B0BDE8F08F0025AE4E2F46DFF8B88295
:1009E000184600F091F9CDE90001B9F1000002DAF2
:1009F000C9F1000400E004460023A74A1AEB030BE8
:100A000042EB045A12E0E00707D02A463346384644
:100A10004146FFF78EFC074688462A463346104675
:100A20001946FFF786FC05460E466410002CEAD1F5
:100A3000DDE90001B9F1000F5A46534606DAFFF727
:100A40008DFE3A464346FFF789FE05E0FFF771FC4D
:100A50003A464346FFF76DFC029A0AB181F0004125
:100A6000039AC2E90001B3E72DE9FF4F1F468DB09D
:100A7000D7E901464FF0FF382E2045464FF00009D8
:100A80000B90B9696D1C0E988847396A8246884771
:100A90000028F6D1BAF1FF3F0AD024F4D064002E2A
:100AA00011DDBAF12B0F08D0BAF12D0F0BD102E0F6
:100AB000404611B08DE744F48064B9696D1C0E980E
:100AC00088478246761E6946600501D52D2000E0E4
:100AD0002B208DF8000001F1010B0DF1200809E039
:100AE000B9696D1C0E98884782460F9844F40074CB
:100AF000761E0560002E02DDBAF1300FF0D00B99A2
:100B00008A453ED144F0800406E00F99681CA9F1A3
:100B1000010944F400740860B9696D1C761E0E98D2
:100B2000884782463028F0D02BE00B998A4505D1C2
:100B3000200603D444F08004761E18E0504602F0EC
:100B4000FBFA08B30DF11301761E44F400748B45D3
:100B500008D2AAF130000BF8010B200607D5A9F145
:100B6000010003E0200602D409F101008146A0053E
:100B700002D50F99681C0860B9696D1C0E988847EA
:100B80008246002ED1DC53E0002E51DDBAF1650F14
:100B900002D0BAF1450F4BD1A00549D5B9696D1CFA
:100BA00024F44074761E0E9888478246002E0CDD91
:100BB0002B2804D0BAF12D0F07D144F48074B96901
:100BC0006D1C0E9888478246761EE00501D52D21C2
:100BD00000E02B2108F8011BCDF82C8021E00DF15D
:100BE0002901761E44F4007488450CD2AAF1300025
:100BF00010F0FF0088F8000002D10B99884509D950
:100C000008F1010806E0E00501D5244801E042F2C0
:100C10000F708146B9696D1C0E98884782460F98FF
:100C20000560002E04DD504602F086FA0028D6D179
:100C3000F9690E988847FF208BF8000088F80000BB
:100C40000020069007904B466A4608A906A8FFF7C1
:100C500077FEA00502D46FF001002AE714F0240FFC
:100C60000AD0E00714D1DDE906123868031D3B60A5
:100C70000068C0E900120BE0DDE90601FFF708FC9F
:100C80000146E00704D13868021D3A60006801603F
:100C900028460EE7000014400000F03FF1D8FFFFA7
:100CA000426842B1016811F8013B23B1521EC0E90C
:100CB0000012184670470121C160881E70474268C3
:100CC0005AB1C368016843B983688B4205D0491E95
:100CD000521CC0E90012002070474FF0FF307047EF
:100CE0007F2801D9002208E0064A02EB5002C00723
:100CF000127800D1120902F00F0201209040084042
:100D000070470000884F00080EB540F2334202924F
:100D10000022CDE900221346FFF7D2FC03B000BD4C
:100D200010B50749074800F0EFF8012807D104493A
:100D3000044800F009F80021024800F01FF810BD37
:100D400000802020A06002400246094B9A4201D256
:100D5000084801E00648103801F000531BB1064B6B
:100D60000B40C36002E0044B0B40836070470000FF
:100D700010640240006002407D0F7D0F21B10268C7
:100D800042F00102026003E0026822F00102026008
:100D900070470000016821F001010160002101603D
:100DA00041608160C1600161212141614A498842FD
:100DB00004D13D21484A103A91608CE046491831EF
:100DC000884205D14FF47461434A103A916082E041
:100DD00041493031884205D14FF474113E4A103AEE
:100DE000916078E03C494831884205D14FF0746108
:100DF000394A103A91606EE037496031884204D137
:100E00003649354A103AD16065E033497831884235
:100E100004D13349304A103AD1605CE02E49903118
:100E2000884204D12F492C4A103AD16053E02A4914
:100E3000A831884205D14FF03D51274A103AD16080
:100E400049E02949884204D13D21274A083A1160E6
:100E500041E025491831884205D14FF47461224A96
:100E6000083A116037E020493031884205D14FF40B
:100E700074111D4A083A11602DE01B49483188421F
:100E800005D14FF07461184A083A116023E0164901
:100E90006031884204D11149134A121F11601AE0CF
:100EA00011497831884204D10D490F4A121F11604F
:100EB00011E00D499031884204D10A490A4A121FB3
:100EC000116008E00849A831884204D14FF03D5133
:100ED000054A121F11607047106002403D0000205B
:100EE000400F002000003D20106402400146002019
:100EF0000A6802F001020AB1012000E000207047F8
:100F00000146486880B2704770B502460020002450
:100F10000025124EB24201D2114B01E00F4B103BA3
:100F2000104E0E4036B11E2606EAD124166806EA97
:100F3000040502E0566906F0800501F000560EB186
:100F40005C6800E01C68084E344004EA010616B1F3
:100F50000DB1012000E0002070BD000010640240CF
:100F6000006002403C0F3C0F7D0F7D0F10B501F07B
:100F700080034BB122B1436943F08003436103E036
:100F8000436923F08003436180290BD02AB10368B1
:100F900001F01E042343036004E0036801F01E0413
:100FA000A343036010BD000010B500220268134B7C
:100FB0001A40CC680B6823434C6923438C69234354
:100FC000CC6923430C6A23434C6A23438C6A234332
:100FD0004C6B23438C6B23431A430260426922F01B
:100FE0000702D1E90B3423431A4342610B69436082
:100FF0004B6883608B68C36010BD00003F801CF0AD
:10100000416070471CB501210F2000F09DFC0420B9
:10101000009001208DF804008DF8070002208DF863
:10102000050000208DF806006946044800F008F825
:101030000421024800F06FF81CBD0000000C0240C3
:10104000F0B50A4600210023002400BF3DE0012541
:1010500005FA01F3156805EA03049C4234D10568DA
:101060004F000326BE40B543056015794E00B540DC
:101070000668354305601579012D02D01579022DDA
:1010800016D185684F000326BE40B543856055796B
:101090004E00B540866835438560456801268E4020
:1010A000B5434560456896798E40B6B23543456094
:1010B000C5684F000326BE40B543C560D5794E00D4
:1010C000B540C6683543C560491C1029BFD3F0BD83
:1010D000F0B5002300244D07ED0E02FA05F3CE1003
:1010E00000F1200555F826504E07F70E0F26BE409A
:1010F000B543CF1000F1200646F82750CE1000F17E
:10110000200555F8265045EA0304CE1000F12005CD
:1011100045F82640F0BD41837047018370470000C9
:101120001CB50121022000F00FFCC020009001201E
:101130008DF804008DF8070003208DF805000020CD
:101140008DF8060069460448FFF77AFFC02102487F
:10115000FFF7E3FF1CBD00000004024010B5402172
:101160000A48FFF7D8FF80210848FFF7D4FF102076
:1011700003F080F840210548FFF7CFFF102003F06F
:1011800079F840210148FFF7C6FF10BD0004024076
:1011900010B540210A48FFF7BEFF80210848FFF73D
:1011A000BCFF102003F066F840210548FFF7B5FFAB
:1011B000102003F05FF840210148FFF7ACFF10BD9D
:1011C0000004024070B5054600241D48006820F464
:1011D00040401B490860084600680860002619E086
:1011E00040211748FFF797FF102003F043F84021F4
:1011F0001348FFF792FF6006040E11481030006894
:1012000000F0800008B1601CC4B2082003F032F87E
:10121000701CC6B2082EE3DB0948006820F4404089
:10122000074908600846006840F48040086015B926
:10123000FFF7AEFF01E0FFF791FF204670BD000011
:101240000004024070B5044640211448FFF763FFD4
:1012500000251FE004F0800020B180210F48FFF737
:101260005CFF03E080210D48FFF755FF6006040E88
:10127000102002F0FFFF40210848FFF74EFF10202A
:1012800002F0F8FF40210548FFF745FF102002F06B
:10129000F1FF6D1C082DDDD370BD0000000402407D
:1012A00010B580210A48FFF738FF40210848FFF7B2
:1012B00034FF102002F0DEFF80210548FFF72BFFEE
:1012C000102002F0D7FF40210148FFF724FF10BD96
:1012D0000004024010B540210A48FFF71CFF80219E
:1012E0000848FFF718FF102002F0C4FF402105480E
:1012F000FFF713FF80210348FFF70FFF102002F0D4
:10130000B9FF10BD0004024010B500242048006859
:1013100020F440401E4908600846006808608021AB
:101320001B48FFF7FAFE40211948FFF7F6FE082098
:1013300002F0A0FF13E0601CC0B20446FA280EDDE4
:101340001348006820F440401149086008460068CE
:1013500040F480400860FFF7BDFF012010BD0C483D
:101360001030006800F080000028E4D108480068D0
:1013700020F44040064908600846006840F4804078
:10138000086040210248FFF7C6FE0020E6E70000A3
:101390000004024010B59FED140A144880ED000AC5
:1013A0009FED130A80ED010A01F0CEFE0F4988601F
:1013B0009FED0D0A0F4880ED000A9FED0D0A80EDAC
:1013C000010A01F0C1FE0B4988609FED070A0A4837
:1013D00080ED000A9FED060A80ED010A01F0B4FEDF
:1013E0000549886010BD00000AD7A33C9802002080
:1013F00000000000A4020020B002002070B52DED16
:10140000048B0446B0EE408A01F09EFE0546A068BB
:10141000281A00EE100AB8EE400ADFED1C0A20EE92
:10142000200AF0EE408AA560F5EEC08AF1EE10FACF
:1014300004D29FED170AF0EE408A0DE09FED150AE9
:10144000F4EEC08AF1EE10FA06DD84ED018AB0EE0A
:10145000480ABDEC048B70BD94ED000AD4ED000A7F
:1014600070EEA80A80EE209A94ED010A20EE090A97
:10147000F7EE000A70EEC90AF0EE409A40EE889A44
:10148000C4ED019AB0EE690AE3E70000BD37863586
:101490006F12833A9A99993E10B5FFF741FE4FF4C7
:1014A00080500F4908600FA001F066F90A2002F091
:1014B000C9FE02F0A3FF0E4908609FED0E0A0E4818
:1014C00080ED000A01F040FE0C490860052002F0A2
:1014D000B9FE02F00FFF0A4880ED000A10BD0000BF
:1014E000200000204D315F4153353630300D0A0069
:1014F0002800002000000000300000202400002010
:101500002C00002010B51BA001F036F91C4890ED0E
:10151000000A1C48D0ED000AB4EEE00AF1EE10FA21
:1015200004DD90ED000A164880ED000A154890EDA4
:10153000000A154880ED040A124890ED000A13488D
:1015400080ED040A1248007830B90E4890ED000A88
:10155000104880ED040A05E00F4890ED000A0D48A0
:1015600080ED040A0D4890ED000A0D4880ED040A54
:1015700010BD00004D4F543A20496E69740D0A00A9
:10158000400000203C000020BC020020E0020020BF
:101590007C00002004030020500000204C000020AC
:1015A0002803002010B52DED028BB0EE408A0446D2
:1015B000B5EEC08AF1EE10FA04D0164880ED008A2C
:1015C0001548046002F09EFA02F094FE134880ED84
:1015D000000A322002F036FE03F05AFA104880ED7D
:1015E000000A052002F02EFE03F03EFA0D4880EDC1
:1015F000000A0D480078022805D10A4890ED000A3B
:101600000A4880ED000AC82002F01CFEBDEC028BE7
:1016100010BD000084000020340000202C000020B9
:101620005C000020540000207D0000208800002085
:1016300070B5002100230F22C4781CB3174C246816
:1016400004F4E064C4F5E064C4F30721C1F10404C8
:10165000E3B20A4144789C40E1B2847814402143CB
:101660000C07210E0E4C05786155047804F01F0517
:101670000124AC4005786D11AD0005F1E025C5F8F9
:10168000004109E0047804F01F050124AC40054D39
:101690000678761145F8264070BD00000CED00E09C
:1016A00000E400E080E100E010B5B6EE000A414839
:1016B00080ED000A9FED400A80ED010A9FED3E0A91
:1016C00080ED020A9FED3C0A80ED030A9FED3A0A85
:1016D00080ED050A9FED380A80ED060A9FED360A77
:1016E00080ED070A01F030FD32490862B3EE040ACA
:1016F000324880ED000A9FED300A80ED010A9FED2F
:101700002E0A80ED020A9FED2C0A80ED030A9FED60
:101710002A0A80ED050A9FED280A80ED060A9FED52
:10172000260A80ED070A01F00FFD24490862B6EE93
:10173000000A234880ED000A9FED1F0A80ED010A90
:101740009FED1D0A80ED020A9FED1B0A80ED030A42
:101750009FED190A80ED050A9FED170A80ED060A34
:101760009FED150A80ED070A01F0EEFC14490862AE
:10177000B6EE000A134880ED000A9FED0F0A80EDD7
:10178000010A9FED0D0A80ED020A9FED0B0A80ED24
:10179000030A9FED090A80ED050A9FED070A80ED17
:1017A000060A9FED050A80ED070A01F0CDFC054908
:1017B000086210BD04030020000000002803002080
:1017C000BC020020E002002070B52DED088B04461D
:1017D000B0EE409A01F0B8FC0546206A281A00EEE7
:1017E000100AB8EE400ADFED560A20EE200AB0EEED
:1017F000408A2562B5EEC08AF1EE10FA06D9B6EE3F
:10180000000AB4EEC08AF1EE10FA03DD9FED4D0A36
:10181000B0EE408A94ED000A60EE09AA94ED070A42
:10182000D4ED010A60EE880AB6EE001A60EE810A75
:1018300094ED051A31EE091AF0EE409A40EE819AC5
:1018400094ED040AB1EE400AB4EEE90AF1EE10FAA2
:1018500004DD94ED040AB1EE400A0BE094ED040AB5
:10186000B4EEE90AF1EE10FA02D294ED040A01E0B6
:10187000B0EE690AF0EE409A94ED020AD4ED050A42
:1018800079EE600A20EE200A80EE08BA3AEEA90A44
:1018900070EE0B8A94ED040AB1EE400AB4EEE80A49
:1018A000F1EE10FA04DD94ED040AB1EE400A0BE00B
:1018B00094ED040AB4EEE80AF1EE10FA02D294EDC7
:1018C000040A01E0B0EE680AF0EE408A94ED030AE3
:1018D000B5EEC00AF1EE10FA26DD94ED060A38EEF8
:1018E000C00A80EE08AA94ED030AB4EECA0AF1EE2B
:1018F00010FA08D294ED060AD4ED030A00EE880A25
:10190000F0EE408A10E094ED030AB1EE400AB4EE26
:10191000CA0AF1EE10FA07DD94ED060AD4ED030AC7
:1019200000EEC80AF0EE408AC4ED079AC4ED068ABC
:1019300084ED059AB0EE680ABDEC088B70BD00001E
:10194000BD3786356F12833A29B1064A12680243C1
:10195000044B1A6004E0034A12688243014B1A6088
:10196000704700003038024029B1064A126802432D
:10197000044B1A6004E0034A12688243014B1A6068
:10198000704700004038024029B1064A12680243FD
:10199000044B1A6004E0034A12688243014B1A6048
:1019A000704700002038024029B1064A12680243FD
:1019B000044B1A6004E0034A12688243014B1A6028
:1019C000704700004438024029B1064A12680243B9
:1019D000044B1A6004E0034A12688243014B1A6008
:1019E0007047000024380240F0B500210022002496
:1019F000022500260223324F3F6807F00C0121B177
:101A0000042905D0082937D105E02E4F076036E0BC
:101A10002D4F076033E02A4F3F1F3F68C7F38056C2
:101A2000274F3F1F3F6807F03F036EB1264FB7FBBC
:101A3000F3F7DFF88CC0ACF1040CDCF800C0CCF399
:101A4000881C07FB0CF40CE01E4FB7FBF3F7DFF824
:101A500070C0ACF1040CDCF800C0CCF3881C07FBB0
:101A60000CF4174F3F1F3F68C7F301477F1C7D00F1
:101A7000B4FBF5F7076002E0124F076000BF00BF3C
:101A80000F4F3F6807F0F0010909104F7A5C0768B3
:101A9000D74047600A4F3F6807F4E051890A0B4F6F
:101AA0007A5C4768D7408760054F3F6807F460411C
:101AB000490B064F7A5C4768D740C760F0BD00000D
:101AC000083802400024F40000127A0000000020D0
:101AD00070B5FFF7E5FB6C20FFF7B4FBFFF714FCD4
:101AE0000C20FFF7AFFBFFF70FFCFFF7D9FB6D20D2
:101AF000FFF7A8FBFFF708FC0120FFF763FB044694
:101B00000020FFF75FFB0546FFF7E4FB05EB042031
:101B100080B270BD0CB50020019000903448006880
:101B200040F480303249086000BF3148006800F45A
:101B3000003000900198401C0190009818B901985D
:101B4000B0F5A04FF1D12A48006800F4003010B180
:101B50000120009001E0002000900098012846D16B
:101B600023484030006840F08050214940310860EF
:101B70002048006840F440401E4908601C48083076
:101B800000681B49083108600846006840F40040BE
:101B900008600846006840F4A05008601648091F15
:101BA0000860081F006840F08070091F086000BFCF
:101BB0000F48006800F000700028F9D040F205706E
:101BC0000E4908600A480830006820F00300084900
:101BD000083108600846006840F00200086000BF55
:101BE00003480830006800F00C000828F8D10CBD4C
:101BF000003802400070004008544007003C02409A
:101C000002480068401C014908607047100000202D
:101C100010B51548006840F4700013490860134877
:101C2000006840F001001149086000200F490831A8
:101C300008600E4800680E4908400C4908600D48CD
:101C4000091D0860081F006820F48020091F086033
:101C5000002006490C310860FFF75CFF4FF0006080
:101C600001498039086010BD88ED00E0003802406D
:101C7000FFFFF6FE1030002400B58FB001210720D1
:101C8000FFF762FE01210220FFF78EFE03220621EC
:101C90005E48FFF71DFA032207215C48FFF718FA98
:101CA000032208215948FFF713FA03220721584855
:101CB000FFF70EFA032200215648FFF709FA032224
:101CC00001215448FFF704FA4FF4E0700D90022010
:101CD0008DF8380000208DF83A0003208DF8390087
:101CE00000208DF83B000DA94848FFF7A9F9802096
:101CF0000D9002208DF8380000208DF83A00032066
:101D00008DF8390000208DF83B000DA94048FFF701
:101D100097F903200D9002208DF8380000208DF8EF
:101D20003A0003208DF8390000208DF83B000DA902
:101D30003848FFF785F9384800F0A8F80020ADF8DA
:101D400028006020ADF82A0040F6AC500B9000202F
:101D5000ADF8300002208DF832000AA92E4800F0BC
:101D600065FA7020ADF814000120ADF816000420CB
:101D7000ADF8180000200790ADF82000ADF8220063
:101D8000ADF82400ADF8260005A9234800F046F977
:101D900005A9214800F08AF905A91F4800F0E6F9D5
:101DA00008211D4800F078F908211B4800F0D0F9FF
:101DB0000821194800F02AFA4FF40060ADF8040039
:101DC0004010ADF806000020ADF808006420ADF822
:101DD0000A000020ADF80C004FF40050ADF80E00E2
:101DE0000020ADF8100001A90B4800F023F80121F4
:101DF000094800F013F80121074800F037F80121E5
:101E0000054800F027F80FB000BD000000080240B0
:101E100000000240000402400004014021B1028899
:101E200042F08002028004E002884FF67F731A407D
:101E3000028070470A884B881A438B881A43CB88E4
:101E40001A430B891A434B891A438B891A43A0F80A
:101E50004420704721B1028842F00102028004E070
:101E600002884FF6FE731A400280704731B1B0F815
:101E7000442042F40042A0F8442005E0B0F8442099
:101E8000C2F30E02A0F844207047000010B50446CB
:101E90005548844208D101210846FFF795FD0021ED
:101EA0000120FFF791FD9DE0B4F1804F08D10121A1
:101EB0000846FFF769FD00210120FFF765FD91E06D
:101EC0004A48844208D101210220FFF75DFD00212C
:101ED0000220FFF759FD85E04548844208D10121E1
:101EE0000420FFF751FD00210420FFF74DFD79E0AC
:101EF0004048844208D101210820FFF745FD002118
:101F00000820FFF741FD6DE03B48844208D10121E4
:101F10001020FFF739FD00211020FFF735FD61E0AB
:101F20003648844208D101212020FFF72DFD0021F1
:101F30002020FFF729FD55E03148844208D10121D6
:101F40000220FFF741FD00210220FFF73DFD49E09F
:101F50002C48844209D101210804FFF735FD0021F6
:101F60004FF48030FFF730FD3CE02748844209D130
:101F700001214804FFF728FD00214FF40030FFF74E
:101F800023FD2FE02148844209D101218804FFF775
:101F90001BFD00214FF48020FFF716FD22E01C48B6
:101FA000844208D101214020FFF7EEFC00214020AF
:101FB000FFF7EAFC16E01748844208D1012180208F
:101FC000FFF7E2FC00218020FFF7DEFC0AE0124868
:101FD000844207D101218015FFF7D6FC0021A0150E
:101FE000FFF7D2FC10BD00000000014000040040DB
:101FF00000080040000C00400010004000140040A9
:1020000000040140004001400044014000480140FC
:1020100000180040001C00400020004070B5002463
:1020200000220023058C4FF6FE7635400584028C95
:102030008388048B4FF68F752C40B51E2C400D887D
:102040002C43751E2A408D892A434D882A43104D02
:10205000A84202D00F4DA84213D14FF6F7752A407F
:10206000CD892A434FF6FB752A408D882A434FF6C7
:10207000FF652B404FF6FF552B400D8A2B434D8AB1
:102080002B43838004838D684563028470BD000008
:1020900000000140000401400A460021018B4FF678
:1020A000F7731940114301837047000070B5002495
:1020B00000220023058C4FF6EF7635400584028C14
:1020C0008388048B48F6FF752C404FF6FF452C4063
:1020D0000D884FF6FF7606EA05252C434FF6DF758F
:1020E0002A408D8906EA05152A434D8806EA05151A
:1020F0002A43154DA84202D0144DA8421DD14FF6D7
:102100007F752A40CD894FF6FF7606EA05152A43EA
:102110004FF6BF752A408D8806EA05152A434FF60B
:10212000FF352B404FF2FF752B400D8A06EA8505DF
:102130002B434D8A06EA85052B43838004838D68F3
:102140008563028470BD000000000140000401406E
:102150000A460021018B4FF2FF7319404FF6FF73BF
:1021600003EA0223194301837047000070B500247D
:1021700000220023058C4FF6FF6635400584028C53
:102180008388848B4FF68F752C404FF6FC752C405E
:102190000D882C434FF6FF552A408D894FF6FF7668
:1021A00006EA05252A434D8806EA05252A43154DEA
:1021B000A84202D0144DA8421DD14FF2FF752A400B
:1021C000CD894FF6FF7606EA05252A434FF6FF35FF
:1021D0002A408D8806EA05252A434EF6FF752B40D6
:1021E0004DF6FF752B400D8A06EA05152B434D8AE7
:1021F00006EA05152B43838084838D68C5630284BA
:1022000070BD000000000140000401400A460021AA
:10221000818B4FF6F77319401143818370474163F7
:10222000704781637047C1637047000000220288D5
:10223000184B98420ED0184B98420BD0B0F1804FFB
:1022400008D0164B984205D0154B984202D0154B3A
:10225000984204D14FF68F731A404B881A43124BA1
:10226000984207D0114B984204D04FF6FF431A40D2
:102270000B891A4302804B68C3620B880385054BA8
:10228000984202D0044B984201D18B7A03860123F5
:1022900083827047000001400004014000040040B8
:1022A00000080040000C00400010004000140040F6
:1022B00010B540F22441154800F0A4F9012824D1BA
:1022C00012480088124908601048001D0088086004
:1022D0001048FEF715FEC0F580700D49086000211A
:1022E0000C48FEF74BFD00BF0A48FEF7FFFD002833
:1022F000FAD14FF480710748FEF782FE01210548AC
:10230000FEF73CFD01200449086010BD0044004078
:1023100014000020886002401800002010B596B01C
:10232000044601215E48FFF70FFB01214804FFF737
:102330001BFB072202215B48FEF7CAFE072203218E
:102340005848FEF7C5FE0C20149002208DF854006A
:1023500000208DF8560001208DF8570002208DF8DE
:10236000550014A94F48FEF76BFE26208DF83C005F
:1023700000208DF83D008DF83E0001208DF83F00D3
:102380000FA8FFF755F911208DF83C0001208DF8BA
:102390003D008DF83E008DF83F000FA8FFF748F98B
:1023A000414800F0B7F810940020ADF84C000C2024
:1023B000ADF84A000020ADF84800ADF84600ADF891
:1023C000440010A9384800F06DF901224021364838
:1023D00000F096F80121344800F086F8012240F21E
:1023E0002441314800F038F93048FEF7D3FC4FF073
:1023F000006000902C48001D01902D480290402064
:10240000039080000490002005904FF480600690B7
:1024100000200790089009904FF480300A90002027
:102420000B9003200C9000200D900E9069461F48E1
:10243000FEF7BAFD012210211C48FEF797FD1B484C
:102440001838FEF7A7FC4FF0006000901648001DFA
:10245000019018480290002003904FF4807004907F
:10246000002005904FF480600690002007900890AF
:102470004FF48070099040020A9000200B900320D6
:102480000C9000200D900E90694608481838FEF711
:102490008BFD012105481838FEF770FC16B010BD01
:1024A000010020000000024000440040A060024003
:1024B000980000209801002010B50446002108482B
:1024C000FEF75CFCA1B20648FEF79AFD0121044824
:1024D000FEF754FC01228021024800F011F810BDE3
:1024E000A06002400044004021B1828942F40052C1
:1024F000828104E082894DF6FF731A408281704721
:102500001AB1838A0B43838202E0838A8B438382DE
:102510007047000010B504463248844208D10121BA
:102520001020FFF751FA00211020FFF74DFA57E075
:102530002D48844209D101214804FFF725FA0021E2
:102540004FF40030FFF720FA4AE02848844209D1CE
:1025500001218804FFF718FA00214FF48020FFF7CB
:1025600013FA3DE02248844209D10121C804FFF753
:102570000BFA00214FF40020FFF706FA30E01D4867
:10258000844209D101210805FFF7FEF900214FF42B
:102590008010FFF7F9F923E01748844208D10121A0
:1025A0002020FFF711FA00212020FFF70DFA17E095
:1025B0001248844209D101218807FFF7E5F900217B
:1025C0004FF08040FFF7E0F90AE00D48844207D160
:1025D00001214005FFF7D8F900216005FFF7D4F984
:1025E00010BD0000001001400044004000480040C1
:1025F000004C0040005000400014014000780040B2
:10260000007C004070B50246002400230025002015
:1026100040F66A16B14200D100BFC1F3421501F085
:102620001F03012606FA03F3012D02D196893340D8
:1026300006E0022D02D1168A334001E0968A33402B
:102640000C12012606FA04F41688344013B10CB1BA
:10265000012000E0002070BDF0B5034600240026F4
:102660000025002040F66A17B94200D100BF184685
:10267000C1F3421401F01F06012707FA06F5012CE9
:1026800001D10C3004E0022C01D1103000E01430F4
:102690001AB107682F43076002E00768AF4307607D
:1026A000F0BD00002DE9FF4705460E460024A14677
:1026B00000BFA046B08900B100BF2C8A24F440546A
:1026C000F08804432C82AC8941F20C608443B088CA
:1026D00031890843718908430443AC81AC8A24F4EE
:1026E0004074B0890443AC826846FFF77DF9204806
:1026F000854202D01F48854202D1DDF80C9001E0EE
:10270000DDF80890A88900F4004040B109EBC90049
:1027100000EB091031684900B0FBF1F707E009EB65
:10272000C90000EB091031688900B0FBF1F76420A3
:10273000B7FBF0F004012009642101FB1078A8899F
:1027400000F4004040B1322000EBC800B0FBF1F0D3
:1027500000F00700044308E0322000EB0810642179
:10276000B0FBF1F000F00F0004432C81BDE8FF87BF
:1027700000100140001401400FB4054B10B503A92F
:10278000044A029800F02CFD10BC5DF814FB000018
:10279000D94200081C0000200FB4084B10B504A952
:1027A00002AA039800F01CFD044602A9002001F0D3
:1027B00093F9204610BC5DF814FB0000D93A0008DC
:1027C00003B401984100009850EAC12018BF0420CA
:1027D0004A0D18BF40F0010040F2FF72B2EB515FAA
:1027E00008BF40F00200012808BF052002B0704772
:1027F00070B59B482DED020B2DED068B079D25F046
:102800000044A04218DC9748844202DC0AD10698B2
:1028100040B19DED060BBDEC068B02B0BDE87040EB
:1028200000F06EBB002DCCBF9FED8F0B9FED900B8A
:10283000BDEC068B02B070BD8F48A04215DD8F48FD
:10284000A042D8BF4FF0FF3458DD9DED060B51EC90
:10285000100BFFF7B5FF042808BF00F075FB9DEDD6
:10286000060BBDEC068B02B070BD9DED060B51EC66
:10287000100B01F025FDCDE9060181489FED828B0B
:10288000A0423CDD8248A0421FDD00249FED82ABC8
:102890009DED060B53EC1A2B51EC100BFDF7A2FC2F
:1028A0009DED060B41EC190B53EC1A2B51EC100B60
:1028B000FDF73FFD53EC182BFDF735FD53EC192BBD
:1028C000FDF74CFFCDE9060149E09DED060B012423
:1028D00053EC182B51EC100BFDF784FC9DED060B0F
:1028E00041EC190B53EC182B51EC100BFDF71BFDB1
:1028F00053EC192BFDF732FFCDE906012FE06848B4
:10290000A0421FDD02249FED689B9DED060B53EC5A
:10291000192B51EC100BFDF70CFD53EC182BFDF7A8
:1029200061FC9DED060B41EC180B53EC192B51EC9F
:10293000100BFDF7F8FC53EC182BFDF70FFFCDE95A
:1029400006010CE09DED060B032453EC102B9FEDCC
:10295000580B51EC100BFDF701FFCDE906019DED81
:10296000060B53EC102B51EC100BFDF7E2FC41EC85
:10297000180B53EC182BFDF7DCFC41EC190B4E48FF
:102980000621B0EE490AF0EE690A784400F03CFAFC
:1029900053EC182B51EC100BFDF7CBFC41EC180B52
:1029A0004648B0EE490AF0EE690A0521784400F085
:1029B0002BFA53EC192B51EC100BFDF7BAFC41EC40
:1029C000100B51EC180B53EC102B002C0EDAFDF70A
:1029D00009FC9DED061B53EC112BFDF7AAFC9DEDA8
:1029E000061B53EC112BFDF7A1FC35E0FDF7FAFBBC
:1029F0009DED061B53EC112BFDF79BFC41EC100BDE
:102A00002F48784400EBC40090ED001B51EC100BF4
:102A100053EC112BFDF787FC9DED061B53EC112B9E
:102A2000FDF781FC41EC100B2648784400EBC40014
:102A300090ED001B51EC100B53EC112BFDF776FCC5
:102A400041EC100B002DA2BFBDEC068B02B070BD97
:102A500051EC100B81F0004141EC100B01E700003C
:102A6000000010440000F07F182D4454FB21F93F72
:102A7000182D4454FB21F9BF0000DC3F0000203E2C
:102A80000000F33F00000000000000000000F03FE5
:102A90000000E63F000000000000000000000040D1
:102AA0000080034000000000000000000000F83F2C
:102AB000000000000000F0BFC225000078250000E3
:102AC00002250000BA24000070B56B4E2DED040BFA
:102AD0002DED028B82B0DDF81CC0DDE905235C42E0
:102AE0002CF000411C4341EAD474049D22F00040C4
:102AF000B44205D86C422C4340EAD474B4420BD99A
:102B00009DED061B9DED040B02B0BDEC028B04B0E5
:102B1000BDE8704000F0FEB9ACF14054A4F17F6410
:102B20001C430BD0022404EAAC7444EAD27405437B
:102B30009FED538B9FED542B07D015E09DED040BBB
:102B400051EC100B01F092FA42E0002C11BF012C65
:102B50009DED040B02B0BDEC028B04BF04B070BD50
:102B6000022C38D0032C3BD00B439FED491B9FED2B
:102B70004A0B0AD0B14218D1B04209D121F08041AC
:102B800020F08040079105900FE0002A15DA10E050
:102B9000434B7B44002C08BF93ED000B0DD0012C60
:102BA00010D0022C17D0032C1AD0B0421DD1002A0D
:102BB00003DAB0EE410AF0EE610A02B0BDEC028B1E
:102BC00004B070BD93ED000B51EC100B81F000418F
:102BD00041EC100BF1E7B0EE480AF0EE680AECE7C2
:102BE000B0EE420AF0EE620AE7E7401A00153C2810
:102BF000C8BF8DED000B19DCBCF1000FBEBF10F19A
:102C00003C0F9FED290B8DED000B0FDB9DED060BAF
:102C100053EC102B9DED040B51EC100BFDF79EFDBA
:102C200001F04EFB01F022FACDE90001002C08BFB3
:102C30009DED000BC1D0012C10D0022C9FED1C0B80
:102C400053EC102B9DED000B51EC100B0DD0FDF74C
:102C50006AFB53EC182BFDF766FBB9E7019880F08F
:102C6000004001909DED000BA7E7FDF75CFB53ECE6
:102C7000182BFDF75BFBABE70000F07F00000000C6
:102C8000182D4454FB210940182D4454FB2109C040
:102C9000182D4454FB21F9BF182D4454FB21F93F52
:102CA000EA23000000000000000000000000000017
:102CB000075C143326A6A13C30B583B0044600F06F
:102CC00053F99FED090B05468DED000B00222146BF
:102CD0006846FDF77CFC284600F05CF99DED000B92
:102CE00003B030BD00000000000000000000000044
:102CF0002DED020B019820F0004001909DED000B9E
:102D000002B0704710B52DED040B86B09DED060B9B
:102D100010EE100A10EE901A8DED000B002818BF6F
:102D20000120084320F00040C0F17F6000F1E04046
:102D3000C00F21D19DED080B10EE101A10EE900A75
:102D40008DED000B002918BF0121084320F0004041
:102D5000C0F17F6000F1E040C00F0DD12949079814
:102D6000B1EB400F04BF0698002842D009984000FC
:102D700004BF089800283CD09DED080B53EC102BA5
:102D80009DED060B51EC100BFDF757FDCDE902014F
:102D90009DED020B40F2FF7110EE900A8DED000BDD
:102DA00031EA105021D00798039900F0004001F05B
:102DB0000041884219D09DED080B8DED040B9DED6F
:102DC000020B8DED000B10EE900A059961F31E00C9
:102DD00005909DED041B9DED020B51EC110B53EC86
:102DE000102BFDF7A3FACDE902019DED020B0AB00D
:102DF00010BD012000F0CEF80AB0BDE8104000F090
:102E000093B800000000E0FF70B504462DED028B82
:102E10004D1E00EBC500B0EE408AF0EE608A90EDEA
:102E2000000B35F0060017D053EC182B51EC100BAB
:102E3000FDF77FFA41EC100B6D1E04EBC50090ED21
:102E4000001B51EC100B53EC112BFDF7CBF941ECAF
:102E5000100B35F00600E7D1022D36D0042D1CD022
:102E6000062D1CBFBDEC028B70BD53EC182B51EC32
:102E7000100BFDF75EFA94ED0A1B53EC112BFDF7D6
:102E8000B1F953EC182BFDF754FA94ED081B53ECF1
:102E9000112BFDF7A7F941EC100B53EC182B51EC5B
:102EA000100BFDF746FA94ED061B53EC112BFDF7C2
:102EB00099F953EC182BFDF73CFA94ED040B53EC05
:102EC000102BFDF78FF941EC100B53EC182B51EC44
:102ED000100BFDF72EFA94ED021B53EC112BFDF7AE
:102EE00081F953EC182BFDF724FA94ED001B53ECF9
:102EF000112BFDF777F9BDEC028B41EC100B70BD87
:102F000010B553EC102B51EC100BFDF76BF941ECA5
:102F1000100B10BD10B553EC112B51EC100BFDF73D
:102F200061F941EC100B10BD9FED050B10B553EC92
:102F3000102B51EC100BFDF711FC41EC100B10BDE8
:102F400000000000000000009FED050B10B553ECE1
:102F5000102B51EC100BFDF7ECF941EC100B10BDF0
:102F600000000000000000100148006870470000E9
:102F70009400002002E008C8121F08C1002AFAD1FC
:102F800070477047002001E001C1121F002AFBD1E9
:102F9000704700000149086070470000940000205D
:102FA000F0EE400A00EE100AB8EEC00A20EE800AE9
:102FB000704700002DE9FF5F82B00021DDE9043099
:102FC000020DDDF840B0034318D044F61050A2F2D1
:102FD000FF3242431514119801281FD0A5EB0B00B6
:102FE000401C5FEA000A4FF000064E4FDFF83891B0
:102FF000B046504615D5CAF1000413E011980124DB
:103000004AA3012801D16FEA0B010298119AC0E985
:103010000031C0E9024206B0BDE8F09FCBF10000EC
:10302000DFE704460021404A491842EB0450CDE94D
:10303000001012E0E00707D032463B4640464946C2
:10304000FDF777F98046894632463B4610461946D9
:10305000FDF76FF906460F466410002CEAD1DDE952
:103060000401DDE90023BAF1000F06DAFDF761F98A
:1030700042464B46FDF75DF905E0FDF76FFB424622
:103080004B46FDF76BFB04460E460022284BFDF72E
:10309000E7F903D84FF0FF30014607E00022254B47
:1030A00020463146FDF79EF8FDF70AFC102409E0A2
:1030B000002C0ADB0A220023FDF71CFA039B3032A6
:1030C0001A55641E50EA0102F2D1641C039AC4F13D
:1030D00011031444119A012A03D0012208430DD18F
:1030E0000AE0084304D000204FF0110B119072E762
:1030F000A3EB0B056D1E0DE05B4504DD4FF00002F8
:1031000005F1010504E003DA4FF00002A5F1010525
:10311000002AECD002981199C0E90231C0E90045BB
:1031200079E70000000014400000F03F300000008C
:103130000000F0430000E03F30380A2801D20120AF
:10314000704700207047000000BF0A4801684FF038
:10315000E0208269074800688142F6D10648801A5B
:10316000A823B0FBF3F001EB4103C3EBC11300EB69
:10317000C3007047100000204090020010B52DEDF4
:10318000068BB0EE408A18EE100AFDF755F941ECB7
:103190001A0B9FED101BB0EE4A0AF0EE6A0AFFF719
:1031A000B1FDB0EE409AF0EE609A51EC190BFDF7CC
:1031B0006FF908EE900AF5EEC08AF1EE10FA04DB22
:1031C000B0EE680ABDEC068B10BD9FED040A38EE28
:1031D000800AF7E700000060FB211940DB0FC940BF
:1031E0002DE9FF4F95B09B468946064600250FE224
:1031F000252877D100242746F84A0121059400E0CC
:10320000044316F8013F203B01FA03F01042F7D1C6
:1032100030782A2811D06FF02F033078A0F13002D7
:10322000092A16D8059A44F0020402EB820203EB45
:1032300042021044761C0590EFE759F8042B0592E2
:10324000002A03DA504244F40054059044F002048A
:10325000761C30782E2816D116F8010F44F004049D
:103260002A280DD06FF02F023078A0F13003092BFF
:1032700009D807EB870302EB4303C718761CF3E773
:1032800059F8047B761C30786C280FD006DC4C286B
:1032900017D068280DD06A2814D104E0742810D003
:1032A0007A280FD10DE044F400140AE044F48014AD
:1032B00001E044F440147278824202D104F5801493
:1032C000761C761C307866280BD013DC582877D013
:1032D00009DC002875D04528F6D04628F4D04728C8
:1032E0001AD19DE118E0632835D0642879D065288B
:1032F00012D195E1702873D008DC6728F1D06928D5
:103300006FD06E280DD06F2806D1B5E073282CD071
:10331000752875D0782874D05A46179990476D1C37
:1033200075E1C4F30250022809D003280DD0D9F862
:10333000001004280DD00D6009F1040967E1D9F8E7
:103340000010EA17C1E90052F6E7D9F800100D8025
:10335000F2E70D70F0E719F8041B8DF8001000205B
:103360008DF80100EA46012003E059F804AB4FF064
:10337000FF3061074FF0000102D40DE008F10101B8
:103380008846B9420FDA8045F8DB1AF808100029A0
:10339000F4D108E008F1010188468142FADB1AF80D
:1033A00008100029F6D105985B46A0EB08072146D6
:1033B0003846179A00F094FA284400EB080507E015
:1033C0004DE029E10DE01AF8010B5A461799904794
:1033D000B8F10108F7D25B4621463846179A13E147
:1033E00042E00A220092C4F302524FF0000A022A7D
:1033F00008D059F804CB032A4FEAEC710AD00DE04B
:1034000029E02AE009F1070121F00702F2E802C1F0
:10341000914609E00FFA8CFC4FEAEC71042A03D1C3
:103420004FFA8CFC4FEAEC71002907DA0A460021BA
:10343000DCF1000C61EB02012D2202E0220504D533
:103440002B228DF80420012203E0E20701D0202284
:10345000F7E7904659E00A2102E010220DE0102122
:103460004FF0000A00910BE010224FF0000A44F0E8
:1034700004040827009203E008224FF0000A00929B
:10348000C4F30252022A05D059F804CB0021032AC2
:1034900008D009E009F1070121F00702F2E802C1B2
:1034A000914605E01FFA8CFC042A01D10CF0FF0CB8
:1034B0004FF00008220728D5702806D0009B83F023
:1034C000100353EA0A0305D00EE040228DF80420D1
:1034D000012208E05CEA010206D030228DF80420C7
:1034E0008DF8050002229046009B83F0080353EA02
:1034F0000A030AD15CEA010201D1620705D5302234
:103500008DF804204FF001087F1E582804D034A005
:1035100003900EA802900DE036A0F9E753466046EE
:10352000009AFCF7E7FF84460398825C0298401EED
:10353000029002705CEA0100F0D1029806A9081A14
:1035400000F1200A600702D524F4803400E001274E
:10355000574502DDA7EB0A0000E0002000EB0A015E
:10356000009005984144401A0590E00306D45B465C
:103570002146179A059800F0B3F90544002706E0A4
:1035800001A85A46C05D179990476D1C7F1C47459E
:10359000F6DBE0030CD55B462146179A059800F050
:1035A0009FF9054404E030205A46179990476D1C56
:1035B0000099481E00900029F5DC08E00298029965
:1035C0005A460078491C0291179990476D1CBAF130
:1035D0000001AAF1010AF1DC65E1000009280100FF
:1035E0003031323334353637383961626364656679
:1035F000000000003031323334353637383941423B
:10360000434445460000000000F058F90544761C8C
:10361000307800287FF4ECAD19B02846BDE8F08F73
:10362000620700D4062709F1070222F0070CFCE824
:103630000223E14603F000485FEA080C02D00FF2D3
:10364000702C0DE05FEA045C02D50FF2682C07E0F5
:103650005FEAC47C02D00FF2602C01E0AFF2700C84
:103660004FF0FF3823F00043CDF850C065280CD050
:1036700006DC452809D046281DD047283DD13DE02D
:10368000662818D067287ED138E00021112F01DB91
:10369000112000E0781CCDE9000106A90EA8FFF773
:1036A00089FCDDE90F010E9A03910021009207F1D8
:1036B000010A04914DE04FF000400097CDE9011060
:1036C00006A90EA8FFF776FCDDE90F0203920E9B18
:1036D00011990022DDF80CA00093049211B9791C15
:1036E00000EB010AB7EB0A0004D4C0F1FF3007F188
:1036F000010A0490AAEB0700019044E0012F00DAD0
:1037000001270021112F01DD112000E03846CDE90D
:10371000000106A90EA8FFF74DFCDDE90F010E9A86
:103720000391002104910092BA4621070CD4039919
:10373000514500DA8A46BAF1010F05DD009AAAF177
:103740000101515C302908D0B84202DA10F1040FAF
:1037500006DA0121CDE9011015E0AAF10101E9E73E
:10376000002805DC049901440491AAEB000102E061
:10377000411C514500DD8A460499401A401C0190C5
:103780004FF000400290200704D40198504501DB1F
:10379000CDF8048000208DF84F0002980DF14F07FE
:1037A000B0F1004F25D02B200E9002984FF0020868
:1037B00000280CDA404202902D200E9007E00A21EA
:1037C0000298FCF781FE3031029007F8011DB8F134
:1037D0000001A8F10108F2DC02980028EFD1791E5F
:1037E0000E980870307800F0200040F0450007F88F
:1037F000020D12A8C01B00F107081498007800B150
:10380000012000EB0A01019801EBE07105984144A9
:10381000401A401E0590E00306D45B462146179AE5
:10382000059800F05DF805441498007818B15A46E0
:10383000179990476D1CE00324D55B462146179AE3
:10384000059800F04DF805441CE00498002807DBBB
:10385000DDE90301884203DD0098405C179901E02F
:10386000179930205A469047049805F10105401CED
:1038700004900198401E019004D12E205A461799B9
:1038800090476D1CBAF10001AAF1010ADDDC05E0E8
:1038900017F8010B5A46179990476D1CB8F10001B3
:1038A000A8F10108F4DC5B462146179A0598ABE6BF
:1038B0002D0000002B000000200000002DE9F04149
:1038C000044600251E461746880404D405E0394600
:1038D0002020B0476D1C641EF9D52846BDE8F08154
:1038E0002DE9F041044600251E469046C80301D547
:1038F000302700E02027880404D505E041463846FB
:10390000B0476D1C641EF9D52846BDE8F081000063
:1039100010B52DED068BB0EE408A9FED660AB4EE31
:10392000C08AF1EE10FA2BD29FED630A28EE000A4E
:10393000B5EEC00AF1EE10FA0ADBDFED5F0AB6EE73
:10394000000A00EE880ABDEEC00A10EE100A09E077
:10395000DFED590AB6EE000A10EE880ABDEEC00A85
:1039600010EE100A554951F8200000EE100AB8EE8A
:10397000C00ADFED530A20EE200ABDEC068B10BD15
:103980009FED500AB4EEC08AF1EE10FA33D29FEDEB
:103990004A0A28EE000AB5EEC00AF1EE10FA0ADB78
:1039A000DFED450AB6EE000A00EE880ABDEEC00A59
:1039B00010EE101A09E0DFED400AB6EE000A10EE34
:1039C000880ABDEEC00A10EE101AC1F5C7713B4A55
:1039D00052F82100FCF71FFD41EC1A0B9FED3A0B4A
:1039E00053EC102BFCF7A5FC41EC190BFCF750FD38
:1039F00000EE100AC1E79FED360AB4EEC08AF1EE80
:103A000010FA2BD29FED2C0A28EE000AB5EEC00A60
:103A1000F1EE10FA0ADBDFED280AB6EE000A00EE3E
:103A2000880ABDEEC00A10EE100A09E0DFED220A96
:103A3000B6EE000A10EE880ABDEEC00A10EE100ABB
:103A4000A0F5C7701D4951F8200000EE100AB8EE2D
:103A5000C00ADFED200A20EE200A8EE79FED160A4D
:103A600028EE000AB5EEC00AF1EE10FA0ADBDFED2F
:103A7000120AB6EE000A00EE880ABDEEC00A10EE89
:103A8000100A09E0DFED0C0AB6EE000A10EE880A13
:103A9000BDEEC00A10EE100AC0F54770074951F894
:103AA000200000EE100AB8EEC00ADFED0A0A20EE90
:103AB000200A62E7DB0FC93FE65FFD42C84B000802
:103AC00017B7D138DB0F49402D431CEBE2361A3FC4
:103AD000E4CB964017B7D1B80A68531C0B6010703E
:103AE00070470000F0EE400AB0EE601A11EE100AC6
:103AF0000349A1EB600001EE100A20EE810A704735
:103B0000865A375F10B52DED088BA5A0FEF734FE61
:103B1000A948006800287CD100241CE000EE104A6F
:103B2000B8EEC00ADFEDA50A60EE200A9FEDA41AE8
:103B300080EE810ADFEDA30A70EE209AB0EE691ADA
:103B4000DFEDA10AA14890ED000A00F041FE02203D
:103B500000F078FB641CB4F5FA7FDFDD00F0CAFBEF
:103B6000B0EE408A4FF4FA741EE000EE104AB8EE50
:103B7000C00ADFED920A20EE200A9FED911AC0EEF6
:103B8000010A9FED900A30EE800AF0EE409AB0EE06
:103B9000691ADFED8D0A8D4890ED000A00F018FEDD
:103BA000022000F04FFB641E002CDEDA00F0A2FBC6
:103BB000F0EE408A9FED841ADFED830A9FED820AC2
:103BC00000F006FEC82000F03DFB18EE100AFCF7DE
:103BD00033FC41EC1A0B53EC1A2B7DA0FEF7CCFD05
:103BE00018EE900AFCF728FC41EC1A0B53EC1A2B48
:103BF0007CA0FEF7C1FD38EE680A10EE101A0846E8
:103C0000FCF71AFC41EC1B0BB0EE4B0AF0EE6B0A12
:103C100000E074E0FFF76CF8B0EE40AAF0EE60AAA6
:103C200051EC1A0BFCF734FC09EE100AB4EE688A6A
:103C3000F1EE10FA06D09FED700AB4EEC09AF1EEE4
:103C400010FA0AD26DA0FEF797FD00217648FEF724
:103C500001F90020BDEC088B10BDB4EEE88AF1EE4E
:103C600010FA07D271A0FEF787FD4FF0FF305249DE
:103C7000086005E075A0FEF77FFD01204E49086051
:103C800079A0FEF779FD7C4890ED000AF8EEC00AB5
:103C90009FED4A0A19EE200A10EE101A0846FCF7AA
:103CA000CBFB41EC1B0BB0EE4B0AF0EE6B0AFFF7BF
:103CB0001FF8B0EE40AAF0EE60AA9FED700B53EC37
:103CC000102B51EC1A0BFCF7CBFB14D26DA0FEF7B6
:103CD00053FDDFED3A0A80EE890AF6EE000A30EE77
:103CE000200ABDEEC00A644880ED000A01686BA09E
:103CF000FEF742FD06E06BA0FEF73EFD02E06BA082
:103D0000FEF73AFD6F4890ED000AB5EEC00AF1EEFD
:103D100010FA3FD19FED2B1ADFED2B0A2B4890EDC7
:103D2000000A00F055FD4FF42F7000F08BFA00F000
:103D3000E1FA2148D0ED000AF8EEE00A20EE200A70
:103D4000F0EE40AA4C480068FFF72AF9B0EE40AA0E
:103D5000FFF714FA5B4880ED000A142000F072FAB5
:103D600059A0FEF709FD57480068FCF765FB41ECD8
:103D70001A0B53EC1A2B5AA0FEF7FEFC9FED121AF9
:103D8000DFED110A9FED100A00F022FDC82000F0BF
:103D900059FA02E054A0FEF7EFFC01205AE70000B8
:103DA0004D4F543A20416C69676E2073656E736F96
:103DB000722E0D0A0000000034000020DB0FC94005
:103DC0000000FA43E4CB96400000000040000020D1
:103DD0006D69645F616E676C653D252E34660D0A02
:103DE00000000000656E645F616E676C653D252EA6
:103DF00034660D0A000000000AD7233C4D4F543AA8
:103E0000204661696C656420746F206E6F7469630D
:103E100065206D6F76656D656E74206C6F6F7032A6
:103E200032322E0D0A000000000401404D4F543A7A
:103E30002073656E736F725F646972656374696F16
:103E40006E3D3D4343570D0A000000004D4F543A6C
:103E50002073656E736F725F646972656374696FF6
:103E60006E3D3D43570D0A004D4F543A20505020AF
:103E7000636865636B3A2000440000200000000086
:103E80000000E03F6661696C202D20657374696DE8
:103E9000617465642070703A0000000025640D0AAA
:103EA000000000004F4B210D0A0000004D4F543A16
:103EB00020536B6970206469722063616C69622EA3
:103EC0000D0A0000840000204D4F543A205A6572BC
:103ED0006F20656C65632E20616E676C653A00002B
:103EE000252E34660D0A00004D4F543A20536B695D
:103EF00070206F66667365742063616C69622E0D55
:103F00000A00000010B52DED0A8BB0EE408AFFF7D5
:103F10001BF904464C480068201A00EE100AB8EE5F
:103F2000400ADFED4A0A20EE200AF0EE408AF5EE64
:103F3000C08AF1EE10FA06D9B6EE000AF4EEC08A95
:103F4000F1EE10FA03DD9FED420AF0EE408A3E48A2
:103F50000460404890ED000A20EE280A10EE101A86
:103F60000846FCF769FA41EC1A0B3B4890ED000A51
:103F700038EE400A10EE101A0846FCF75DFA41ECE4
:103F80001C0BB0EE4C0AF0EE6C0AFEF7B1FEB0EE80
:103F900040BAF0EE60BA53EC1A2B51EC1B0BFCF755
:103FA0005FFA30D22C4890ED000A38EE400AB5EEA8
:103FB000C00AF1EE10FA02D24FF0FF300CE02648B2
:103FC00090ED000A38EE400AB5EEC00AF1EE10FAA4
:103FD00001DD012000E0002000EE100AB8EEC00A6A
:103FE0001C48D0ED000A60EE200A1B4890ED000A44
:103FF00000EEA80A80ED000A164890ED000A174866
:1040000080ED000A07E0144880ED008A9FED140A55
:10401000124880ED000A134890ED009A124800689B
:104020000D4991ED000AFEF7BBFFF0EE409AB0EEAD
:10403000691ADFED0B0AB0EE490A00F0C9FBB0EED9
:10404000490ABDEC0A8B10BD48000020BD378635FB
:104050006F12833A4C000020540000205C000020C6
:1040600000000000400000204400002010B541EC9A
:10407000100BFEF7BDFB51EC100B10BD10B52DED74
:10408000028B5648006801287DD100205349086002
:1040900053480078502832D006DC412874D0482894
:1040A00007D049280CD14CE054280AD05628F9D121
:1040B0006BE04CA14F48FEF76FFB0446FEF7FCF99E
:1040C00083E04748401CFEF7F7FDB0EE408AF0EE73
:1040D000608A51EC180BFCF7DBF947490860084689
:1040E0000068FCF7A9F941EC180B53EC182B43A11D
:1040F0004048FEF751FB0446FEF7DEF965E038481C
:10410000401CFEF7D9FDB0EE408AF0EE608A51EC1B
:10411000180BFCF7BDF93C490860084690ED000A11
:1041200010EE101A0846FCF787F941EC180B53EC17
:10413000182B36A12F48FEF72FFB0446FEF7BCF9DB
:1041400043E02748401CFEF7B7FDB0EE408AF0EE92
:10415000608A51EC180BFCF79BF92B494860084624
:1041600090ED010A10EE101A0846FCF765F941ECD3
:10417000180B53EC182B28A11E48FEF70DFB044624
:10418000FEF79AF921E025E00FE026480068FCF7E9
:1041900053F941EC180B53EC182B23A11548FEF7EB
:1041A000FBFA0446FEF788F90FE022480068FCF7A6
:1041B00043F941EC180B53EC182B1FA10D48FEF7E7
:1041C000EBFA0446FEF778F900BF00BF102104485F
:1041D000FBF7FDFFBDEC028B10BD000018000020B6
:1041E0009801002048656C6C6F20576F726C6421D9
:1041F0000D0A0000980000208800002052583D253C
:104200002E32660D0A00000004030020503D252ECA
:1042100032660D0A00000000493D252E32660D0A67
:10422000000000005C00002056656C3D252E3266C3
:104230000D0A000054000020416E673D252E3266B5
:104240000D0A0000F0B50646FEF77EFF054600BFEA
:10425000FEF77AFF0446AC4201D3671B02E0C5F1CA
:10426000FF30071906EB4600C0EBC610B7EBC00FD6
:10427000EED3F0BD00BF011EA0F10100FBD17047DD
:1042800010B50B48D0ED000A0A4890ED001A30EE48
:10429000811A0948D0ED000AF8EEE01A0748D0ED7F
:1042A000000A51EE210AB0EE600AFEF767FF10BD6A
:1042B00054000020800000204400002084000020E2
:1042C00082B0CDE9000121F0004001909DED000B8E
:1042D00002B051EC100B704700BF054A128802F083
:1042E0004002002AF9D0C2B2014B1B1D1A80704750
:1042F0000044004070B500F081F80446354800687D
:10430000251A281E01DB014600E0414200EE101A8A
:10431000F8EEC00A304991ED000AB8EEC00A9FEDF0
:104320002F1A20EE010AF4EEC00AF1EE10FA0DDDAC
:10433000002D02DD9FED2A0A01E09FED2A0A2A489E
:10434000D0ED000A30EE200A80ED000A214804601A
:10435000254890ED000ADFED250AB4EEE00AF1EE03
:1043600010FA0CDB9FED220A80ED000A214890ED47
:10437000000ADFED1E0A30EE600A80ED000A1A48DE
:1043800090ED000ADFED1C0AB4EEE00AF1EE10FA3F
:104390000CD89FED170A80ED000A164890ED000A30
:1043A000DFED120A30EE200A80ED000A00EE104A1E
:1043B000B8EEC01A084890ED000AB8EEC00AC1EE87
:1043C000000A094890ED000A9FED061A00EE810AE6
:1043D00070BD00002800002020000020CDCC4C3F04
:1043E000DB0FC9C0DB0FC940300000207C594446B8
:1043F000000000002C0000207C5944C610B5FDF7D9
:1044000067FBC0F30B04204610BD000010B52DED76
:10441000048BFEF799FE044618480068201A00EE47
:10442000100AB8EEC00ADFED160A20EE200AB0EE40
:10443000408AB5EEC08AF1EE10FA06D9B6EE000A4F
:10444000B4EEC08AF1EE10FA03DD9FED0E0AB0EE75
:10445000408AFFF74FFFF0EE408A0B4890ED000ACC
:1044600038EEC00A80EE089AC0ED008A0348046066
:10447000B0EE490ABDEC048B10BD00002400002002
:10448000BD3786356F12833A2C00002010B51948CD
:104490000078042803D017480078032800D110BD05
:1044A00000F0E2FA144880ED000AFFF7E9FE134835
:1044B00080ED000A1248007820B1012803D00228BC
:1044C00003D101E005E004E003E00EA0FEF754F99B
:1044D00000BF00BF144890ED001AF0EE410A90EDC5
:1044E000011AB0EE410A054890ED001A00F070F98B
:1044F00000BFD4E77D0000205400002058000020B9
:104500007C0000204D4F543A206E6F20746F727102
:10451000756520636F6E74726F6C2073656C656374
:10452000746564210D0A00006C000020FCF76AFD30
:104530004FF4E130FDF7F2FEFDF79EFB00F0C0FA0C
:104540004FF4FA70FFF77EFEFCF7A6FFFCF722FFA0
:10455000FDF7AAF8B2EE080A334880ED000A0720FA
:1045600032490860B0EE080A314880ED000AB1EE29
:10457000040A304880ED000AB3EE040A2E4880EDAC
:10458000000A9FED2E0A2E4880ED000A00202D49DA
:10459000087002202C4908709FED2C0A2C4880EDF1
:1045A000000AB7EE000A80ED010AB3EE040A2948BA
:1045B00080ED000A9FED210A254880ED030A9FED5A
:1045C000260A264880ED000A9FED250A254880ED41
:1045D000000AFCF797FF00209FED210AFCF7E2FF9D
:1045E00021A0FEF7C9F81DE000F076FA224909681B
:1045F000084421490860084600682049884208D3D9
:1046000000201D4908601E48006880F004001C4915
:104610000860144890ED000A00F034F8FFF736FF08
:10462000FFF72CFDE0E700003800002044000020E8
:10463000400000203C0000204C00002000004842C8
:10464000500000207C0000207D000020CDCC4C3E9E
:1046500004030020280300200AD7A33CB002002056
:1046600000000000880000204D6F746F722072659A
:104670006164792E0D0A00009000002020A107003F
:10468000140C024010B52DED028BB0EE408A00F004
:10469000FFF9444880ED000A4348007805287CD2A1
:1046A000DFE800F0033D0E5D6C004048007818B96B
:1046B0003F4880ED018A02E03E4880ED008A6CE0D0
:1046C0003D4880ED008AD0ED000A3C4890ED001A8C
:1046D00070EEC10AB0EE600A3948FDF775F8394846
:1046E00080ED000AD0ED000A2E4890ED001A70EE21
:1046F000C10AB0EE600A3448FDF766F82D4880ED37
:10470000000A2A48007848B92A4890ED000A28484B
:1047100080ED010A9FED2D0A80ED000A3DE0294859
:1047200080ED008AD0ED000A1E4890ED001A70EE70
:10473000C10AB0EE600A2448FDF746F81D4880ED36
:10474000000A1A48007848B91A4890ED000A18483B
:1047500080ED010A9FED1D0A80ED000A1DE0194859
:1047600080ED008A90ED000A00F0CEF9104880ED4F
:10477000010A9FED160A80ED000A0EE00E4880ED5A
:10478000008A90ED000AFFF7BDFB094880ED010AA1
:104790009FED0E0A80ED000A00BF00BFBDEC028B4A
:1047A00010BD00005C0000207D0000207C00002087
:1047B0006C000020600000206800002054000020F1
:1047C00028030020640000200403002000000000F3
:1047D00010B52DED108B86B0F0EE40EAB0EE60FA29
:1047E000B0EE41EAB5EEC0FAF1EE10FA38D06FEE55
:1047F0000F0A4EEEAE0AB0EE600AFFF773F9934867
:10480000D0ED000AC0EE20FA1FEE100AFBF714FEEE
:10481000CDE902011EEE900AFBF70EFECDE9000184
:104820009DED021B9DED000BFEF74EF9B0EE40CA68
:10483000F0EE60CA1EEE100AFBF7FEFD41EC1D0B08
:1048400053EC1C2BFBF7CEFC41EC1B0BFBF720FEC3
:1048500004909DED040AFEF791FCB0EE40EA0EE0F4
:104860007A4890ED000ACEEE80FADFED790A7EEE0E
:10487000200AB0EE600AFEF781FCB0EE40EADFED00
:10488000750A8EEE200AF7EE000A30EE200ABCEE22
:10489000C00A10EE104A00EE904AB8EE601ADFED42
:1048A0006D1AF0EE4E0A51EE210AB0EE600AFFF7E3
:1048B0002FF8DFED690A20EE200A60EE2F8A00EE65
:1048C000904AF8EE600AB7EE001A30EEC11ADFED3A
:1048D000611AF0EE4E0A41EE610AB0EE600AFFF78F
:1048E00017F8DFED5D0A20EE200A20EE2F9AB7EED2
:1048F000000A30EE680A30EE498A072C78D2DFE8E9
:1049000004F07704172A3D506300F0EE000A88EEA9
:10491000200A78EE890A70EE209AF0EE000A88EEFE
:10492000200A30EE09AAB0EE000AC8EE00AA66E03E
:10493000F0EE000A88EE200A70EE289AF0EE000AE7
:1049400088EE200A78EE890A30EE20AAB0EE000A3E
:10495000C8EE00AA53E0B0EE000AC8EE009AF0EEEE
:10496000000A88EE200A78EE890A30EE20AAF0EEDE
:10497000000A88EE200A70EE09AA40E0B0EE000AB4
:10498000C8EE009AF0EE000A88EE200A30EE28AA5F
:10499000F0EE000A88EE200A78EE890A70EE20AA6E
:1049A0002DE0F0EE000A88EE200A70EE099AB0EED3
:1049B000000A88EE00AAF0EE000A88EE200A78EEDF
:1049C000890A70EE20AA1AE0F0EE000A88EE200AAA
:1049D00078EE890A70EE209AB0EE000A88EE00AAFE
:1049E000F0EE000A88EE200A70EE28AA07E0FFE742
:1049F000DFED1A9A9FED19AADFED18AA00BF00BFDC
:104A00009FED170A29EE800ABCEEC00A10EE101ABC
:104A10001448FDF704FC9FED120A2AEE000ABCEED2
:104A2000C00A10EE101A0F48FDF7FBFB9FED0C0AB1
:104A30002AEE800ABCEEC00A10EE101A0948FDF7F3
:104A4000F2FB06B0BDEC108B10BD0000380000205A
:104A5000DB0FC93F920A863FD7B3DD3F000000005D
:104A600000C05A450004014010B5FFF743FCF0EECA
:104A7000400A054890ED000A044890ED001AB8EE8F
:104A8000C11A11EE200A10BD800000203400002061
:104A900010B52DED028BFFF7B9FCB0EE408A064849
:104AA000FCF7ACFC0548D0ED000AF8EEE00A20EE79
:104AB000200ABDEC028B10BDB002002034000020A3
:104AC00004484FF0E0214861002088610720086118
:104AD000704700004090020070B5FEF735FB0446B9
:104AE00008480068844203D306480068251A04E099
:104AF00004480068C0F1FF300519024804602846E8
:104B000070BD00008C00002010B52DED048BB0EEC0
:104B1000408AFEF719FB044623480068201A00EE7D
:104B2000100AB8EE400ADFED210A20EE200AF0EE6E
:104B3000408AF5EEC08AF1EE10FA06D9B6EE000A08
:104B4000F4EEC08AF1EE10FA03DD9FED190AF0EEE3
:104B5000408A154804601748D0ED000A48EE280A3C
:104B6000B0EE600AFEF70AFB124880ED000A124818
:104B700080ED008A114890ED009A114800680D49B7
:104B800091ED000AFEF70CFAF0EE409AB0EE691AC9
:104B9000DFED0C0AB0EE490AFFF71AFEB0EE490A43
:104BA000BDEC048B10BD000048000020BD378635E9
:104BB0006F12833A540000205C0000204000002067
:104BC0004400002000000000000000004F00000032
:104BD0009E000000ED0000003C0100008B01000081
:104BE000D90100002802000077020000C602000080
:104BF0001503000063030000B2030000000400007E
:104C00004F0400009D040000EC0400003A05000081
:104C100088050000D605000024060000720600008A
:104C2000C00600000E0700005B070000A907000097
:104C3000F60700004308000090080000DD080000AF
:104C40002A09000077090000C30900000F0A0000CC
:104C50005C0A0000A80A0000F40A00003F0B0000F4
:104C60008B0B0000D60B0000210C00006C0C000028
:104C7000B70C0000010D00004C0D0000960D000067
:104C8000E00D0000290E0000730E0000BC0E0000B5
:104C9000050F00004E0F0000960F0000DF0F000010
:104CA000271000006E100000B6100000FD1000007C
:104CB000441100008B110000D111000017120000F8
:104CC0005D120000A2120000E81200002D13000087
:104CD00071130000B6130000F91300003D1400002A
:104CE00081140000C41400000615000049150000DE
:104CF0008B150000CC1500000E1600004F160000AA
:104D00008F160000CF1600000F1700004F1700008D
:104D10008E170000CD1700000B1800004918000086
:104D200087180000C4180000011900003D19000098
:104D300079190000B5190000F01900002B1A0000C5
:104D4000661A00009F1A0000D91A0000121B00000A
:104D50004B1B0000831B0000BB1B0000F21B00006C
:104D6000291C0000601C0000961C0000CB1C0000E9
:104D7000001D0000351D0000691D00009D1D000084
:104D8000D01D0000031E0000351E0000671E00003D
:104D9000981E0000C91E0000FA1E0000291F000016
:104DA000591F0000881F0000B61F0000E41F00000C
:104DB000112000003E2000006A2000009620000024
:104DC000C1200000EC20000016210000402100005E
:104DD0006921000092210000BA210000E1210000B9
:104DE000082200002F220000552200007A22000035
:104DF0009F220000C3220000E72200000A230000D7
:104E00002D2300004F230000702300009123000099
:104E1000B2230000D1230000F12300000F24000082
:104E20002D2400004B24000068240000842400008E
:104E3000A0240000BB240000D5240000EF240000C3
:104E400009250000222500003A2500005225000017
:104E5000692500007F25000095250000AA25000097
:104E6000BF250000D3250000E6250000F92500003D
:104E70000B2600001D2600002E2600003E26000006
:104E80004E2600005D2600006C2600007A260000F9
:104E90008726000094260000A0260000AB26000014
:104EA000B6260000C0260000CA260000D326000057
:104EB000DB260000E3260000EA260000F1260000C1
:104EC000F7260000FC26000001270000052700004F
:104ED000082700000B2700000D2700000F27000007
:104EE00010270000102700004FBB610567ACDD3FB5
:104EF000182D4454FB21E93F9BF681D20B73EF3F01
:104F0000182D4454FB21F93FE2652F227F2B7A3C78
:104F1000075C143326A6813CBDCBF07A8807703C31
:104F2000075C143326A6913CC4EB98999999C9BFA4
:104F3000711623FEC671BCBF6D9A74AFF2B0B3BFD9
:104F40009AFDDE522DDEADBF2F6C6A2C44B4A2BF99
:104F50000D5555555555D53FFF8300922449C23F05
:104F60006E204CC5CD45B73F513DD0A0660DB13F39
:104F7000EB0D76244B7BA93F11DA22E33AAD903F4B
:104F80000000000000000000DDDDDDDDDCBBBBDD7E
:104F9000DDDDDDDDDDDDDDDD9888888888888888D9
:104FA00077777777778888888555555666666666F9
:104FB00066666666666888888333333222222222D8
:104FC000222222222228888DE84F0008000000209B
:104FD00098000000742F00088050000898000020FE
:104FE000B8060000842F000800000000010203043E
:104FF0000102030406070809000000000000000089
:1050000000000000000000000000000000000000A0
:105010000000000000000000000000000000000090
:105020000000000000000000000000000000000080
:105030000000000000000000000000000000000070
:105040000000000000000000000000000000000060
:105050000000000000000000000000000000000050
:105060000000000000000000000000000000000040
:105070000000000000000000000000000000000030
:040000050800018965
:00000001FF
