:020000040800F2
:10000000580600209D01000855100008C50A000888
:100010005110000847070008A5190008000000005B
:10002000000000000000000000000000C1120008F5
:100030003109000800000000D1100008B1130008C9
:10004000B7010008B7010008B7010008B7010008B0
:10005000B7010008B7010008B7010008B7010008A0
:10006000B7010008B7010008B7010008B701000890
:10007000B7010008B7010008B7010008B701000880
:10008000B7010008B7010008B7010008B701000870
:10009000B7010008B7010008B701000861090008AE
:1000A000B7010008B7010008B7010008B701000850
:1000B000B7010008B7010008B7010008B701000840
:1000C000B7010008B7010008B7010008B701000830
:1000D000B7010008B701000891150008B701000832
:1000E00035090008B7010008B7010008B70100088A
:1000F000B7010008B7010008B7010008B701000800
:10010000B7010008B7010008B7010008B7010008EF
:10011000B7010008B7010008B70100087D14000806
:10012000B7010008B7010008B7010008B7010008CF
:10013000B7010008B7010008B7010008B7010008BF
:10014000B7010008B7010008B7010008B7010008AF
:10015000B7010008B7010008B7010008B70100089F
:10016000B7010008B7010008B7010008B70100088F
:10017000B7010008B7010008B7010008B70100087F
:10018000B7010008B7010008DFF80CD000F098FABA
:1001900000480047ED230008580600200648804725
:1001A00006480047FEE7FEE7FEE7FEE7FEE7FEE75C
:1001B000FEE7FEE7FEE7FEE7B51300088901000849
:1001C0002DE9FE4F81EA030404F0004421F00041D0
:1001D00000944FF0000B23F0004350EA01045ED07E
:1001E00052EA03045BD0C3F30A54C1F30A552C440A
:1001F000A4F2F3340194A0FB0254C1F3130141F4BF
:100200008011C3F3130343F4801301FB024400FB8A
:10021000034E840A970A44EA815447EA8357A4FBB1
:10022000076802958D0A05FB07854FEA932C04FBAE
:100230000C542705029D4FEA065847EA1637B5EBDE
:1002400008056EEB070C870E920E47EA811742EA0B
:100250008312A7FB0201B6EB0B0164EB00042B0D2C
:1002600043EA0C335E1844EB1C50DA465146E7FB78
:100270000201C5F313044FEA0B3343EA14534FEA68
:100280000432019C43EA0603A4F10C040294009C8E
:10029000CDE900B400F098F803B0BDE8F08F00207D
:1002A0000146F9E70EB5C10F80EAE0700844CA07BD
:1002B000002140F233438DE80E000A460B4600F061
:1002C00083F803B000BD00F0004230F000400AD0D7
:1002D000C10D01F56071C0F3160042EA0151C20878
:1002E00040071143704700200146704730B5041E97
:1002F00071F1000404DB4FF00044404264EB010163
:10030000141E73F1000405DB1C464FF000435242FB
:1003100063EB0403994208BF904230BD30B50B46F1
:10032000014600202022012409E021FA02F59D4225
:1003300005D303FA02F5491B04FA02F52844151EF9
:10034000A2F10102F1DC30BD2DE9F05F054600208D
:1003500092469B4688460646814640241BE0284636
:1003600041464746224600F0CCF953465A46C01A49
:10037000914110D311461846224600F0B3F92D1AC8
:1003800067EB01084F4622460120002100F0AAF940
:1003900017EB00094E41201EA4F10104DFDC4846A2
:1003A00031462A464346BDE8F09F10B5141E73F14E
:1003B000000408DA401C41F1000192185B411A4325
:1003C00001D120F0010010BD2DE9F04D92469B4671
:1003D00011B1B1FA81F202E0B0FA80F22032904617
:1003E00000F080F904460F4640EA0A0041EA0B019A
:1003F00053465A46084313D0114653EA010019D018
:10040000C8F14002504600F07CF905460E465046C1
:100410005946424600F066F9084305D0012004E041
:1004200020463946BDE8F08D0020054346EAE076D7
:100430002C4337430A986305E40AA0EB0800002226
:10044000FD0A44EA47540A3002D500200146E9E794
:10045000010510196941DDE9084500196941BDE848
:10046000F04DA2E72DE9FE4F804681EA0300C00F60
:100470000C46009021F0004123F00045B8EB02004B
:10048000A94105D24046214690461C460B460246ED
:1004900023F00040104347D0270DC7F30A00C3F3F1
:1004A0000A510290401A019040286BDAC3F31300FE
:1004B00040F4801B0098924620B10023D2EB030A3F
:1004C00063EB0B0B01985946C0F14002504600F017
:1004D00009F906460D4650465946019A00F021F9A1
:1004E00010EB08006141002487EA115284EAE773A7
:1004F0001A4340D0009A62B3019A012A4FEA075288
:1005000015DC001B61EB02014FF0004202EA0752CA
:10051000CDE90042001C41F5801132462B46FFF721
:1005200053FF03B0BDE8F08F40462146F9E7001BBA
:1005300061EB0201001C41F5801300185B4120189B
:10054000A2F5001747EB030140EAD570B6196D41DB
:1005500011E06D084FEA360645EAC0754FEA0752CA
:10056000001B61EB0201001C41F5801149084FEAB4
:1005700030000019514132462B4603B0BDE8F04F20
:10058000FFF713BF0098012240000023D0EB0202C6
:1005900063EBE073009821464FEAE074B8EB00008B
:1005A00061EB0401E9E783F000435BE781F0004180
:1005B00058E72DE9F04D81EA030404F0004B21F0E7
:1005C000004514464FF0000A23F0004150EA0502AE
:1005D00020D054EA01021DD0C5F30A570246C5F3E4
:1005E0001303C1F31300C1F30A5640F4801543F41A
:1005F0008013A7EB0608101BD64608F2FD3873EBF4
:10060000050002D308F1010801E092185B41B8F13E
:10061000000F03DA00200146BDE8F08D00204FF402
:100620008011064684460EE0171B73EB050705D3C1
:10063000121B63EB050306434CEA010C49084FEA21
:10064000300092185B4150EA0107EDD152EA0300F5
:1006500012D082EA040083EA0501084305D0101B8A
:10066000AB4106D20122002306E000224FF00043F6
:1006700002E06FF0010253101AEB06004CEB085138
:1006800010EB0A0041EB0B01BDE8F04DFFF78DBE0A
:10069000C1F30A52C1F3130140F2FF3341F4801158
:1006A0009A4202DA00200146704740F233439A42F0
:1006B000A2F2334202DC524200F023B800F012B83A
:1006C000064C074D06E0E06840F0010394E807009F
:1006D00098471034AC42F6D3FFF75AFDF4240008D3
:1006E00014250008202A04DB203A00FA02F1002039
:1006F00070479140C2F1200320FA03F31943904060
:100700007047202A04DB203A21FA02F000217047CA
:1007100021FA02F3D040C2F1200291400843194669
:100720007047202A06DBCB17203A41FA02F043EA51
:10073000E07306E041FA02F3D040C2F1200291409A
:1007400008431946704700BFFEE721B1026842F036
:100750000102026003E0026822F0010202607047B9
:10076000016821F0010101600021016041608160A8
:10077000C1600161212141614A49884204D13D2182
:10078000484A103A91608CE046491831884205D1B8
:100790004FF47461434A103A916082E0414930312C
:1007A000884205D14FF474113E4A103A916078E0C6
:1007B0003C494831884205D14FF07461394A103ABA
:1007C00091606EE037496031884204D13649354A3C
:1007D000103AD16065E033497831884204D1334919
:1007E000304A103AD1605CE02E499031884204D101
:1007F0002F492C4A103AD16053E02A49A831884247
:1008000005D14FF03D51274A103AD16049E02949BE
:10081000884204D13D21274A083A116041E0254928
:100820001831884205D14FF47461224A083A1160A8
:1008300037E020493031884205D14FF474111D4A08
:10084000083A11602DE01B494831884205D14FF02C
:100850007461184A083A116023E0164960318842F1
:1008600004D11149134A121F11601AE0114978315D
:10087000884204D10D490F4A121F116011E00D4941
:100880009031884204D10A490A4A121F116008E0D7
:100890000849A831884204D14FF03D51054A121F42
:1008A00011607047106002403D000020400F0020A2
:1008B00000003D2010640240014600200A6802F05A
:1008C00001020AB1012000E000207047014648689B
:1008D00080B2704710B500220268134B1A40CC68F2
:1008E0000B6823434C6923438C692343CC6923431E
:1008F0000C6A23434C6A23438C6A23434C6B234387
:100900008C6B23431A430260426922F00702D1E94B
:100910000B3423431A4342610B6943604B68836085
:100920008B68C36010BD00003F801CF041607047C1
:100930007047000010B54FF40041074800F0B5F8CB
:10094000012803D10021054800F0DDFD4FF40040EF
:1009500000F01CF810BD0000000802400008004034
:1009600010B54FF40071074800F09FF8012803D13B
:100970000021054800F0C7FD4FF4007000F006F8B4
:1009800010BD00000008024000040040014908605A
:1009900070470000143C01401CB501210F2000F0FD
:1009A00099FB0420009001208DF804008DF80700C9
:1009B00002208DF8050000208DF8060069460448E5
:1009C00000F008F80421024800F078F81CBD00008F
:1009D000000C0240F0B50A4600210023002400BFAD
:1009E0003DE0012505FA01F3156805EA03049C4280
:1009F00034D105684F000326BE40B5430560157924
:100A00004E00B5400668354305601579012D02D0CA
:100A10001579022D16D185684F000326BE40B543D7
:100A2000856055794E00B5408668354385604568D8
:100A300001268E40B5434560456896798E40B6B232
:100A400035434560C5684F000326BE40B543C560C9
:100A5000D5794E00B540C6683543C560491C10299C
:100A6000BFD3F0BDF0B5002300244D07ED0E02FA10
:100A700005F3CE1000F1200555F826504E07F70E6D
:100A80000F26BE40B543CF1000F1200646F8275090
:100A9000CE1000F1200555F8265045EA0304CE108B
:100AA00000F1200545F82640F0BD024600201369FC
:100AB0000B400BB1012000E00020704741837047DC
:100AC0000183704700BFFEE71CB5044601210220E8
:100AD00000F000FBACB93020009001208DF804003C
:100AE0008DF8070003208DF8050000208DF8060022
:100AF00069460F48FFF76EFF30210D48FFF7E0FF12
:100B000014E0C020009001208DF804008DF807004B
:100B100003208DF8050000208DF806006946044882
:100B2000FFF758FFC0210248FFF7CAFF1CBD0000B5
:100B30000004024010B510210A48FFF7BFFF202132
:100B40000848FFF7BBFF102001F0D5FB1021054836
:100B5000FFF7B6FF102001F0CEFB10210148FFF790
:100B6000ADFF10BD0004024010B510210A48FFF788
:100B7000A5FF20210848FFF7A3FF102001F0BBFBD1
:100B800010210548FFF79CFF102001F0B4FB102155
:100B90000148FFF793FF10BD0004024070B5054601
:100BA00000241D48006820F440601B490860084686
:100BB00000680860002619E010211748FFF77EFF43
:100BC000102001F098FB10211348FFF779FF600611
:100BD000040E11481030006800F0200008B1601CBD
:100BE000C4B2082001F087FB701CC6B2082EE3DBFC
:100BF0000948006820F4406007490860084600681A
:100C000040F48060086015B9FFF7AEFF01E0FFF720
:100C100091FF204670BD00000004024070B50446FC
:100C200010211448FFF74AFF00251FE004F0800060
:100C300020B120210F48FFF743FF03E020210D489A
:100C4000FFF73CFF6006040E102001F054FB10215A
:100C50000848FFF735FF102001F04DFB1021054833
:100C6000FFF72CFF102001F046FB6D1C082DDDD393
:100C700070BD00000004024010B520210A48FFF7B3
:100C80001FFF10210848FFF71BFF102001F033FB66
:100C900020210548FFF712FF102001F02CFB102146
:100CA0000148FFF70BFF10BD0004024010B51021F2
:100CB0000A48FFF703FF20210848FFF7FFFE102036
:100CC00001F019FB10210548FFF7FAFE2021034827
:100CD000FFF7F6FE102001F00EFB10BD00040240ED
:100CE00010B500242048006820F440601E490860C8
:100CF00008460068086020211B48FFF7E1FE10212C
:100D00001948FFF7DDFE082001F0F5FA13E0601C3A
:100D1000C0B20446FA280EDD1348006820F4406093
:100D2000114908600846006840F480600860FFF7D9
:100D3000BDFF012010BD0C481030006800F02000FD
:100D40000028E4D10848006820F4406006490860A3
:100D50000846006840F48060086010210248FFF7F0
:100D6000ADFE0020E6E700000004024010B540217F
:100D70000A48FFF7A3FE80210848FFF79FFE1020D6
:100D800001F0B9FA40210548FFF79AFE102001F062
:100D9000B2FA40210148FFF791FE10BD0004024065
:100DA00010B540210A48FFF789FE80210848FFF767
:100DB00087FE102001F09FFA40210548FFF780FED2
:100DC000102001F098FA40210148FFF777FE10BD8E
:100DD0000004024070B5054600241D48006820F458
:100DE00040401B490860084600680860002619E07A
:100DF00040211748FFF762FE102001F07CFA4021E5
:100E00001348FFF75DFE6006040E114810300068BD
:100E100000F0800008B1601CC4B2082001F06BFA39
:100E2000701CC6B2082EE3DB0948006820F440407D
:100E3000074908600846006840F48040086015B91A
:100E4000FFF7AEFF01E0FFF791FF204670BD000005
:100E50000004024070B5044640211448FFF72EFEFE
:100E600000251FE004F0800020B180210F48FFF72B
:100E700027FE03E080210D48FFF720FE6006040EE8
:100E8000102001F038FA40210848FFF719FE102021
:100E900001F031FA40210548FFF710FE102001F063
:100EA0002AFA6D1C082DDDD370BD0000000402403D
:100EB00010B580210A48FFF703FE40210848FFF7DC
:100EC000FFFD102001F017FA80210548FFF7F6FD1D
:100ED000102001F010FA40210148FFF7EFFD10BD8E
:100EE0000004024010B540210A48FFF7E7FD8021C9
:100EF0000848FFF7E3FD102001F0FDF94021054807
:100F0000FFF7DEFD80210348FFF7DAFD102001F036
:100F1000F2F910BD0004024010B50024204800681A
:100F200020F440401E49086008460068086080219F
:100F30001B48FFF7C5FD40211948FFF7C1FD0820F8
:100F400001F0D9F913E0601CC0B20446FA280EDDA6
:100F50001348006820F440401149086008460068C2
:100F600040F480400860FFF7BDFF012010BD0C4831
:100F70001030006800F080000028E4D108480068C4
:100F800020F44040064908600846006840F480406C
:100F9000086040210248FFF791FD0020E6E70000CD
:100FA0000004024010B50020FFF78EFD4FF4805082
:100FB0001E4948601EA000F0F7FC0120FFF784FDE9
:100FC0004FF480501D4948601DA000F0EDFC0A2040
:100FD00001F06DF9002001F0F9F91449C8609FEDA6
:100FE0001B0A084680ED050A00208860052001F0F4
:100FF0005EF90E4801F094F90C4880ED040A0120D6
:1010000001F0E4F90D49C8609FED100A084680ED33
:10101000050A00208860052001F049F9074801F021
:101020007FF9064880ED040A10BD0000240200206C
:101030004D305F4153353630300D0A003C02002000
:101040004D315F4153353630300D0A00000000004D
:1010500000BFFEE77047000070B5002100230F229B
:10106000C4781CB3174C246804F4E064C4F5E0644D
:10107000C4F30721C1F10404E3B20A4144789C405F
:10108000E1B28478144021430C07210E0E4C057800
:101090006155047804F01F050124AC4005786D11FA
:1010A000AD0005F1E025C5F8004109E0047804F041
:1010B0001F050124AC40054D0678761145F8264001
:1010C00070BD00000CED00E000E400E080E100E015
:1010D0007047000029B1064A12680243044B1A60A7
:1010E00004E0034A12688243014B1A607047000013
:1010F0003038024029B1064A12680243044B1A6094
:1011000004E0034A12688243014B1A6070470000F2
:101110004038024029B1064A12680243044B1A6063
:1011200004E0034A12688243014B1A6070470000D2
:101130002038024029B1064A12680243044B1A6063
:1011400004E0034A12688243014B1A6070470000B2
:1011500024380240F0B50021002200240225002698
:101160000223324F3F6807F00C0121B1042905D05A
:10117000082937D105E02E4F076036E02D4F076074
:1011800033E02A4F3F1F3F68C7F38056274F3F1F6A
:101190003F6807F03F036EB1264FB7FBF3F7DFF868
:1011A0008CC0ACF1040CDCF800C0CCF3881C07FB4D
:1011B0000CF40CE01E4FB7FBF3F7DFF870C0ACF196
:1011C000040CDCF800C0CCF3881C07FB0CF4174FB0
:1011D0003F1F3F68C7F301477F1C7D00B4FBF5F755
:1011E000076002E0124F076000BF00BF0F4F3F686B
:1011F00007F0F0010909104F7A5C0768D740476093
:101200000A4F3F6807F4E051890A0B4F7A5C476840
:10121000D7408760054F3F6807F46041490B064F90
:101220007A5C4768D740C760F0BD000008380240CC
:101230000024F40000127A000000002070B5064679
:10124000EEB9FFF719FD6C20FFF7E8FCFFF748FD4A
:101250000C20FFF7E3FCFFF743FDFFF70DFD6D20CA
:10126000FFF7DCFCFFF73CFD0120FFF797FC04468D
:101270000020FFF793FC0546FFF718FD1CE0FFF781
:1012800017FE6C20FFF7E6FDFFF746FE0C20FFF788
:10129000E1FDFFF741FEFFF70BFE6D20FFF7DAFDE2
:1012A000FFF73AFE0120FFF795FD04460020FFF707
:1012B00091FD0546FFF716FE05EB042080B270BDD8
:1012C000704700000CB50020019000903448006881
:1012D00040F480303249086000BF3148006800F4B3
:1012E000003000900198401C0190009818B90198B6
:1012F000B0F5A04FF1D12A48006800F4003010B1D9
:101300000120009001E0002000900098012846D1C3
:1013100023484030006840F0805021494031086047
:101320002048006840F440401E4908601C480830CE
:1013300000681B49083108600846006840F4004016
:1013400008600846006840F4A05008601648091F6D
:101350000860081F006840F08070091F086000BF27
:101360000F48006800F000700028F9D040F20570C6
:101370000E4908600A480830006820F00300084958
:10138000083108600846006840F00200086000BFAD
:1013900003480830006800F00C000828F8D10CBDA4
:1013A000003802400070004008544007003C0240F2
:1013B0007047000010B51548006840F470001349EC
:1013C00008601348006840F00100114908600020DF
:1013D0000F49083108600E4800680E4908400C4962
:1013E00008600D48091D0860081F006820F480206F
:1013F000091F0860002006490C310860FFF762FFF2
:101400004FF0006001498039086010BD88ED00E0B0
:1014100000380240FFFFF6FE103000241FB5012106
:101420002020FFF767FE37208DF8000001208DF89F
:10143000010003208DF8020001208DF803006846AA
:10144000FFF70AFE40F2E73002905320ADF80400A7
:101450000020ADF80600ADF80C0001A9064800F028
:1014600055F801221146044800F044F801210248D1
:1014700000F023F81FBD00000014004010B501214A
:10148000094800F026F8012809D108480068401CE6
:101490000649086006480068401C054908600121AB
:1014A000014800F007F810BD001400401C000020A7
:1014B00020000020CA430282704721B1028842F016
:1014C0000102028004E002884FF6FE731A40028097
:1014D000704730B50246002000230024158A05EA33
:1014E0000103958905EA010413B10CB1012000E064
:1014F000002030BD1AB183890B43838102E08389C8
:101500008B4383817047416270470000002202884C
:10151000184B98420ED0184B98420BD0B0F1804F28
:1015200008D0164B984205D0154B984202D0154B67
:10153000984204D14FF68F731A404B881A43124BCE
:10154000984207D0114B984204D04FF6FF431A40FF
:101550000B891A4302804B68C3620B880385054BD5
:10156000984202D0044B984201D18B7A0386012322
:1015700083827047000001400004014000040040E5
:1015800000080040000C0040001000400014004023
:1015900010B540F22441154800F04AF9012824D141
:1015A00012480088124908601048001D0088086031
:1015B0001048FFF78BF9C0F580700D4908600021D5
:1015C0000C48FFF7C2F800BF0A48FFF775F900287A
:1015D000FAD14FF480710748FFF7A8F901210548B7
:1015E000FFF7B3F801200449086010BD0044004033
:1015F00010000020886002401400002010B596B052
:10160000044601213E48FFF765FD01214804FFF72C
:1016100071FD072202213B48FFF724FA072203212C
:101620003848FFF71FFA02208DF8540000208DF88B
:1016300056000C20149001208DF8570002208DF8E0
:10164000550014A92F48FFF7C5F926208DF83C0056
:1016500001208DF83F000FA8FFF7FEFC2A4800F09C
:101660006FF810940020ADF84C000C20ADF84A0043
:101670000020ADF84800ADF84600ADF8440010A9D0
:10168000214800F025F9012240211F4800F04EF8C2
:1016900001211D4800F03EF8012240F224411A4881
:1016A00000F0F0F81948FFF75BF84FF00060009089
:1016B0001548001D019016480290002003904FF439
:1016C00080700490002005904FF480600690002008
:1016D000079008904FF48070099040020A90002013
:1016E0000B9003200C9000200D900E906946074847
:1016F000FFF7F0F801210548FFF727F816B010BDF5
:1017000001002000000002400044004088600240C8
:101710002401002021B1828942F40052828104E038
:1017200082894DF6FF731A40828170471AB1838A0D
:101730000B43838202E0838A8B43838270470000DD
:1017400010B504463248844208D101211020FFF729
:10175000F1FC00211020FFF7EDFC57E02D488442FA
:1017600009D101214804FFF7D5FC00214FF40030D6
:10177000FFF7D0FC4AE02848844209D101218804BF
:10178000FFF7C8FC00214FF48020FFF7C3FC3DE0C9
:101790002248844209D10121C804FFF7BBFC002183
:1017A0004FF40020FFF7B6FC30E01D48844209D119
:1017B00001210805FFF7AEFC00214FF48010FFF770
:1017C000A9FC23E01748844208D101212020FFF71B
:1017D000B1FC00212020FFF7ADFC17E01248844245
:1017E00009D101218807FFF795FC00214FF08040C7
:1017F000FFF790FC0AE00D48844207D10121400523
:10180000FFF788FC00216005FFF784FC10BD000095
:10181000001001400044004000480040004C0040DF
:10182000005000400014014000780040007C00405F
:1018300070B50246002400230025002040F66A16F9
:10184000B14200D100BFC1F3421501F01F030126D0
:1018500006FA03F3012D02D19689334006E0022DEA
:1018600002D1168A334001E0968A33400C120126D9
:1018700006FA04F41688344013B10CB1012000E0DC
:10188000002070BDF0B5034600240026002500208E
:1018900040F66A17B94200D100BF1846C1F342149E
:1018A00001F01F06012707FA06F5012C01D10C30C3
:1018B00004E0022C01D1103000E014301AB10768A6
:1018C0002F43076002E00768AF430760F0BD0000E8
:1018D0002DE9FF4705460E460024A14600BFA0465D
:1018E000B08900B100BF2C8A24F44054F08804432E
:1018F0002C82AC8941F20C608443B0883189084362
:10190000718908430443AC81AC8A24F44074B089E3
:101910000443AC826846FFF71DFC2048854202D094
:101920001F48854202D1DDF80C9001E0DDF80890F7
:10193000A88900F4004040B109EBC90000EB091090
:1019400031684900B0FBF1F707E009EBC90000EB93
:10195000091031688900B0FBF1F76420B7FBF0F0A3
:1019600004012009642101FB1078A88900F40040DB
:1019700040B1322000EBC800B0FBF1F000F00700EE
:10198000044308E0322000EB08106421B0FBF1F0C2
:1019900000F00F0004432C81BDE8FF8700100140D8
:1019A0000014014000BFFEE70FB4054B10B503A9BA
:1019B000044A029800F0E4F810BC5DF814FB000043
:1019C00005230008180000202DED020B019820F0DF
:1019D000004001909DED000B02B0704702E008C886
:1019E000121F08C1002AFAD170477047002001E099
:1019F00001C1121F002AFBD1704700002DE9FF5FD3
:101A000082B00021DDE90430020DDDF840B003436F
:101A100018D044F61050A2F2FF3242431514119828
:101A200001281FD0A5EB0B00401C5FEA000A4FF015
:101A300000064E4FDFF83891B046504615D5CAF132
:101A4000000413E0119801244AA3012801D16FEA90
:101A50000B010298119AC0E90031C0E9024206B0B8
:101A6000BDE8F09FCBF10000DFE704460021404ACB
:101A7000491842EB0450CDE9001012E0E00707D00E
:101A800032463B4640464946FEF79AFB8046894629
:101A900032463B4610461946FEF792FB06460F4675
:101AA0006410002CEAD1DDE90401DDE90023BAF17C
:101AB000000F06DAFEF784FB42464B46FEF780FB3A
:101AC00005E0FEF776FD42464B46FEF772FD044602
:101AD0000E460022284BFEF709FC03D84FF0FF30DA
:101AE000014607E00022254B20463146FEF7BAFCAE
:101AF000FEF7CEFD102409E0002C0ADB0A220023A9
:101B0000FEF722FC039B30321A55641E50EA010294
:101B1000F2D1641C039AC4F111031444119A012AEE
:101B200003D0012208430DD10AE0084304D000206D
:101B30004FF0110B119072E7A3EB0B056D1E0DE03A
:101B40005B4504DD4FF0000205F1010504E003DA16
:101B50004FF00002A5F10105002AECD0029811997E
:101B6000C0E90231C0E9004579E7000000001440F7
:101B70000000F03F300000000000F0430000E03FB4
:101B80002DE9FF4F95B09B468946064600250FE29A
:101B9000252877D100242746F84A0121059400E042
:101BA000044316F8013F203B01FA03F01042F7D13D
:101BB00030782A2811D06FF02F033078A0F130024E
:101BC000092A16D8059A44F0020402EB820203EBBC
:101BD00042021044761C0590EFE759F8042B059259
:101BE000002A03DA504244F40054059044F0020401
:101BF000761C30782E2816D116F8010F44F0040414
:101C00002A280DD06FF02F023078A0F13003092B75
:101C100009D807EB870302EB4303C718761CF3E7E9
:101C200059F8047B761C30786C280FD006DC4C28E1
:101C300017D068280DD06A2814D104E0742810D079
:101C40007A280FD10DE044F400140AE044F4801423
:101C500001E044F440147278824202D104F5801409
:101C6000761C761C307866280BD013DC582877D089
:101C700009DC002875D04528F6D04628F4D047283E
:101C80001AD19DE118E0632835D0642879D0652801
:101C900012D195E1702873D008DC6728F1D069284B
:101CA0006FD06E280DD06F2806D1B5E073282CD0E8
:101CB000752875D0782874D05A46179990476D1CAE
:101CC00075E1C4F30250022809D003280DD0D9F8D9
:101CD000001004280DD00D6009F1040967E1D9F85E
:101CE0000010EA17C1E90052F6E7D9F800100D809C
:101CF000F2E70D70F0E719F8041B8DF800100020D2
:101D00008DF80100EA46012003E059F804AB4FF0DA
:101D1000FF3061074FF0000102D40DE008F101012E
:101D20008846B9420FDA8045F8DB1AF80810002916
:101D3000F4D108E008F1010188468142FADB1AF883
:101D400008100029F6D105985B46A0EB080721464C
:101D50003846179A00F094FA284400EB080507E08B
:101D60004DE029E10DE01AF8010B5A46179990470A
:101D7000B8F10108F7D25B4621463846179A13E1BD
:101D800042E00A220092C4F302524FF0000A022AF3
:101D900008D059F804CB032A4FEAEC710AD00DE0C1
:101DA00029E02AE009F1070121F00702F2E802C167
:101DB000914609E00FFA8CFC4FEAEC71042A03D13A
:101DC0004FFA8CFC4FEAEC71002907DA0A46002131
:101DD000DCF1000C61EB02012D2202E0220504D5AA
:101DE0002B228DF80420012203E0E20701D02022FB
:101DF000F7E7904659E00A2102E010220DE0102199
:101E00004FF0000A00910BE010224FF0000A44F05E
:101E100004040827009203E008224FF0000A009211
:101E2000C4F30252022A05D059F804CB0021032A38
:101E300008D009E009F1070121F00702F2E802C128
:101E4000914605E01FFA8CFC042A01D10CF0FF0C2E
:101E50004FF00008220728D5702806D0009B83F099
:101E6000100353EA0A0305D00EE040228DF8042047
:101E7000012208E05CEA010206D030228DF804203D
:101E80008DF8050002229046009B83F0080353EA78
:101E90000A030AD15CEA010201D1620705D53022AA
:101EA0008DF804204FF001087F1E582804D034A07C
:101EB00003900EA802900DE036A0F9E75346604665
:101EC000009AFEF741FA84460398825C0298401E0D
:101ED000029002705CEA0100F0D1029806A9081A8B
:101EE00000F1200A600702D524F4803400E00127C5
:101EF000574502DDA7EB0A0000E0002000EB0A01D5
:101F0000009005984144401A0590E00306D45B46D2
:101F10002146179A059800F0B3F90544002706E01A
:101F200001A85A46C05D179990476D1C7F1C474514
:101F3000F6DBE0030CD55B462146179A059800F0C6
:101F40009FF9054404E030205A46179990476D1CCC
:101F50000099481E00900029F5DC08E002980299DB
:101F60005A460078491C0291179990476D1CBAF1A6
:101F70000001AAF1010AF1DC65E100000928010075
:101F800030313233343536373839616263646566EF
:101F900000000000303132333435363738394142B1
:101FA000434445460000000000F058F90544761C03
:101FB000307800287FF4ECAD19B02846BDE8F08FEA
:101FC000620700D4062709F1070222F0070CFCE89B
:101FD0000223E14603F000485FEA080C02D00FF24A
:101FE000702C0DE05FEA045C02D50FF2682C07E06C
:101FF0005FEAC47C02D00FF2602C01E0AFF2700CFB
:102000004FF0FF3823F00043CDF850C065280CD0C6
:1020100006DC452809D046281DD047283DD13DE0A3
:10202000662818D067287ED138E00021112F01DB07
:10203000112000E0781CCDE9000106A90EA8FFF7E9
:10204000DDFCDDE90F010E9A03910021009207F1FA
:10205000010A04914DE04FF000400097CDE90110D6
:1020600006A90EA8FFF7CAFCDDE90F0203920E9B3A
:1020700011990022DDF80CA00093049211B9791C8B
:1020800000EB010AB7EB0A0004D4C0F1FF3007F1FE
:10209000010A0490AAEB0700019044E0012F00DA46
:1020A00001270021112F01DD112000E03846CDE984
:1020B000000106A90EA8FFF7A1FCDDE90F010E9AA9
:1020C0000391002104910092BA4621070CD4039990
:1020D000514500DA8A46BAF1010F05DD009AAAF1EE
:1020E0000101515C302908D0B84202DA10F1040F26
:1020F00006DA0121CDE9011015E0AAF10101E9E7B5
:10210000002805DC049901440491AAEB000102E0D7
:10211000411C514500DD8A460499401A401C01903B
:102120004FF000400290200704D40198504501DB95
:10213000CDF8048000208DF84F0002980DF14F0774
:10214000B0F1004F25D02B200E9002984FF00208DE
:1021500000280CDA404202902D200E9007E00A2160
:102160000298FEF7DBF83031029007F8011DB8F154
:102170000001A8F10108F2DC02980028EFD1791ED5
:102180000E980870307800F0200040F0450007F805
:10219000020D12A8C01B00F107081498007800B1C6
:1021A000012000EB0A01019801EBE0710598414420
:1021B000401A401E0590E00306D45B462146179A5C
:1021C000059800F05DF805441498007818B15A4657
:1021D000179990476D1CE00324D55B462146179A5A
:1021E000059800F04DF805441CE00498002807DB32
:1021F000DDE90301884203DD0098405C179901E0A6
:10220000179930205A469047049805F10105401C63
:1022100004900198401E019004D12E205A4617992F
:1022200090476D1CBAF10001AAF1010ADDDC05E05E
:1022300017F8010B5A46179990476D1CB8F1000129
:10224000A8F10108F4DC5B462146179A0598ABE635
:102250002D0000002B000000200000002DE9F041BF
:10226000044600251E461746880404D405E0394676
:102270002020B0476D1C641EF9D52846BDE8F081CA
:102280002DE9F041044600251E469046C80301D5BD
:10229000302700E02027880404D505E04146384671
:1022A000B0476D1C641EF9D52846BDE8F081014693
:1022B00045F208224A434FF0E0235A6100229A6116
:1022C0001A46126942F001021A6100BF4FF0E02283
:1022D000106900F001021AB100F48032002AF5D032
:1022E0004FF0E022126922F001024FF0E0231A6160
:1022F00000229A61704700BF011EA0F10100FBD1CE
:102300007047000000BF054A128802F04002002A10
:10231000F9D0C2B2014B1B1D1A8070470044004027
:1023200070B52DED068B0446207800F04FF8054679
:10233000E0682E1A94ED010AB8EEC00ADFED200A1B
:1023400020EE200A10EE101A0846FDF7BCFF41EC03
:10235000180B3046FDF7A6FF41EC1A0BB0EE4A0A07
:10236000F0EE6A0AFFF730FBB0EE409AF0EE609AAA
:1023700053EC182B51EC190BFDF7B8FF0CD294ED70
:10238000050A002E02DDDFED0F0A01E0DFED0E0A87
:1023900030EE200A84ED050AE56094ED010AB8EEFE
:1023A000C01A00EE105AB8EEC00AC0EE010A94ED51
:1023B000050A9FED051A00EE810ABDEC068B70BD83
:1023C000CDCC4C3FDB0FC9C0DB0FC94070B5054613
:1023D0002DB90020FEF732FFC0F30B0404E001200A
:1023E000FEF72CFFC0F30B04204670BD2DED068BCD
:1023F00082B0FEF7D1FA4FF4E130FFF7FFF800208A
:10240000264908700120264908704FF4FA70FFF73A
:102410004EFFFEF7C7FDFFF701F8C820FFF747FFA3
:1024200020A0FFF7C1FA00F059F835E02148006814
:10243000C82808D300201F4908601F48006880F0A2
:1024400004001D4908601548FFF76AFFF0EE408A56
:102450001348FFF765FFB0EE408A18480068B0F5F2
:10246000FA7F15D300201549086018EE100AFDF711
:102470002AFF41EC190B18EE900AFDF724FF41ECFE
:102480001A0B8DED009B53EC1A2B0DA0FFF78CFA65
:1024900041F28830FFF72FFFC8E700002402002038
:1024A0003C0200204D6F746F722072656164792E5A
:1024B0000D0A00001C000020140C02402000002027
:1024C000616E676C65303D252E32662C616E676CDF
:1024D00065313D252E32660D0A00000004484FF09C
:1024E000E0214861002088610120086170470000F8
:1024F000FEFFFF001425000800000020240000005B
:10250000DC190008382500082400002034060000EB
:10251000EC1900080000000001020304010203049A
:10252000060708090000000000000000000000008D
:082530000000000000000000A3
:040000050800018965
:00000001FF
