:020000040800F2
:10000000D80700209D010008A5010008A7010008ED
:10001000A9010008AB010008AD01000800000000C4
:10002000000000000000000000000000AF01000818
:10003000B101000800000000B3010008812600089B
:10004000B7010008B7010008B7010008B7010008B0
:10005000B7010008B7010008B7010008B7010008A0
:10006000B7010008B7010008B7010008B701000890
:10007000B7010008B7010008B7010008B701000880
:10008000B7010008F1140008D1100008B7010008FA
:10009000B7010008B7010008B7010008611800089F
:1000A000B7010008B7010008B7010008B701000850
:1000B000B7010008B7010008B7010008B701000840
:1000C000B7010008B7010008B7010008B701000830
:1000D000B7010008B70100081D2D0008B70100088E
:1000E00035180008B7010008B7010008B70100087B
:1000F000B7010008B7010008B7010008B701000800
:10010000B7010008B7010008B7010008B7010008EF
:10011000B7010008B7010008B7010008B7010008DF
:1001200019150008B7010008B7010008B701000859
:10013000B7010008B7010008B7010008B7010008BF
:10014000B7010008B7010008B7010008B7010008AF
:10015000B7010008B7010008B7010008B70100089F
:10016000B7010008B7010008B7010008B70100088F
:10017000B7010008B7010008B7010008B70100087F
:10018000B7010008B7010008DFF80CD000F0B6FB9B
:100190000048004701560008D8070020064880475D
:1001A00006480047FEE7FEE7FEE7FEE7FEE7FEE75C
:1001B000FEE7FEE7FEE7FEE791260008890100085A
:1001C000D2B201E000F8012B491EFBD27047002299
:1001D000F6E710B513460A4604461946FFF7F0FF46
:1001E000204610BD421C10F8011B0029FBD1801ACB
:1001F00070472DE9FE4F804681EA0300C00F0C4690
:10020000009021F0004123F00045B8EB0200A94125
:1002100005D24046214690461C460B46024623F036
:100220000040104347D0270DC7F30A00C3F30A511B
:100230000290401A019040286BDAC3F3130040F497
:10024000801B0098924620B10023D2EB030A63EB97
:100250000B0B01985946C0F14002504600F081F95D
:1002600006460D4650465946019A00F089F910EBB2
:1002700008006141002487EA115284EAE7731A43B7
:1002800040D0009A62B3019A012A4FEA075215DC66
:10029000001B61EB02014FF0004202EA0752CDE978
:1002A0000042001C41F5801132462B4600F00EFA48
:1002B00003B0BDE8F08F40462146F9E7001B61EB33
:1002C0000201001C41F5801300185B412018A2F5C3
:1002D000001747EB030140EAD570B6196D4111E0F4
:1002E0006D084FEA360645EAC0754FEA0752001B13
:1002F00061EB0201001C41F5801149084FEA300012
:100300000019514132462B4603B0BDE8F04F00F0D2
:10031000CEB90098012240000023D0EB020263EB2B
:10032000E073009821464FEAE074B8EB000061EBFF
:100330000401E9E783F000435BE781F0004158E7FF
:100340002DE9FE4F81EA030404F0004421F000414E
:1003500000944FF0000B23F0004350EA01045ED0FC
:1003600052EA03045BD0C3F30A54C1F30A552C4488
:10037000A4F2F3340194A0FB0254C1F3130141F43D
:100380008011C3F3130343F4801301FB024400FB09
:10039000034E840A970A44EA815447EA8357A4FB30
:1003A000076802958D0A05FB07854FEA932C04FB2D
:1003B0000C542705029D4FEA065847EA1637B5EB5D
:1003C00008056EEB070C870E920E47EA811742EA8A
:1003D0008312A7FB0201B6EB0B0164EB00042B0DAB
:1003E00043EA0C335E1844EB1C50DA465146E7FBF7
:1003F0000201C5F313044FEA0B3343EA14534FEAE7
:100400000432019C43EA0603A4F10C040294009C0C
:10041000CDE900B400F05AF903B0BDE8F08F002038
:100420000146F9E70EB5C10F80EAE0700844CA073B
:10043000002140F233438DE80E000A460B4600F0DF
:1004400045F903B000BD00F0004230F000400AD092
:10045000C10D01F56071C0F3160042EA0151C208F6
:1004600040071143704700200146704730B5041E15
:1004700071F1000404DB4FF00044404264EB0101E1
:10048000141E73F1000405DB1C464FF0004352427A
:1004900063EB0403994208BF904230BD01F0004372
:1004A00030B421F0004150EA010206D00A0DA2F555
:1004B0006072C1F31301002A02DC30BC00207047D7
:1004C000440F44EAC104C100E01830BC00EBC25044
:1004D00000F0B6B830B50B460146002020220124BA
:1004E00009E021FA02F59D4205D303FA02F5491B02
:1004F00004FA02F52844151EA2F10102F1DC30BD18
:100500002DE9F05F0546002092469B468846064648
:10051000814640241BE0284641464746224600F0DB
:10052000FFF953465A46C01A914110D31146184656
:10053000224600F016F82D1A67EB01084F462246B6
:100540000120002100F00DF817EB00094E41201E9C
:10055000A4F10104DFDC484631462A464346BDE8A3
:10056000F09F202A04DB203A00FA02F100207047B5
:100570009140C2F1200320FA03F3194390407047E1
:10058000202A06DBCB17203A41FA02F043EAE07357
:1005900006E041FA02F3D040C2F120029140084344
:1005A000194670470FB4002300B589B00CA900911B
:1005B0000B996FF00042CB601E4B06931E4B0793C6
:1005C0000423CDE901321D4A089202466B46002001
:1005D00000F050FA09B05DF814FB70B586B006461D
:1005E0004FF0FF300091CDE90101002015460C4687
:1005F00004903246694604A8FFF7D4FF02460498E7
:10060000211825B108B1084600E02046286004986A
:1006100000280DD0002A02DD0098884208D0081B6F
:100620000094CDE901043246694604A8FFF7BAFFF9
:1006300006B070BDAD0C0008CB0C000841090008E5
:100640000029A8BF7047401C490008BF20F00100E6
:10065000704710B4B0FA80FC00FA0CF050EA0104C4
:1006600004BF10BC704749B1CCF1200421FA04F456
:1006700011FA0CF118BF012121430843A3EB0C012F
:10068000CB1D4FEA00614FEA102042BF002010BC92
:10069000704700EBC35010440029A4BF10BC704742
:1006A000401C490008BF20F0010010BC704710B585
:1006B000141E73F1000408DA401C41F10001921885
:1006C0005B411A4301D120F0010010BD2DE9F04D2E
:1006D00092469B4611B1B1FA81F202E0B0FA80F283
:1006E00020329046FFF73DFF04460F4640EA0A00DD
:1006F00041EA0B0153465A46084313D0114653EAC8
:10070000010019D0C8F14002504600F009F9054631
:100710000E46504659464246FFF723FF084305D090
:10072000012004E020463946BDE8F08D0020054355
:1007300046EAE0762C4337430A986305E40AA0EBC7
:1007400008000022FD0A44EA47540A3002D500207E
:100750000146E9E7010510196941DDE9084500197D
:100760006941BDE8F04DA2E72DE9F04D81EA0304AF
:1007700004F0004B21F0004514464FF0000A23F02E
:10078000004150EA050220D054EA01021DD0C5F311
:100790000A570246C5F31303C1F31300C1F30A5607
:1007A00040F4801543F48013A7EB0608101BD646CF
:1007B00008F2FD3873EB050002D308F1010801E0EF
:1007C00092185B41B8F1000F03DA00200146BDE842
:1007D000F08D00204FF48011064684460EE0171B72
:1007E00073EB050705D3121B63EB050306434CEAC5
:1007F000010C49084FEA300092185B4150EA0107AA
:10080000EDD152EA030012D082EA040083EA050126
:10081000084305D0101BAB4106D20122002306E09D
:1008200000224FF0004302E06FF0010253101AEB78
:1008300006004CEB085110EB0A0041EB0B01BDE840
:10084000F04DFFF734BF2DE9FE4FC3F30A5701F017
:1008500000450024C1F30A56C3F31303C1F3130187
:1008600043F4801312EB020AA64641F4801100956E
:1008700043EB030CA7F1010B16E0B0EB0A0061EBB0
:100880000C01071E71F1000707DA4FF00008D0EBEA
:10089000080085F0004568EB0101171A73EB0107AA
:1008A000EBD3761E001849415E45F6DA50EA0102A4
:1008B00009D0CDE900E5002213460296FFF706FFB6
:1008C00003B0BDE8F08F20460099F9E7C1F30A5262
:1008D000C1F3130140F2FF3341F480119A4202DA6E
:1008E00000200146704740F233439A42A2F233425D
:1008F00002DC524200F014B8FFF733BE064C074D3D
:1009000006E0E06840F0010394E8070098471034DF
:10091000AC42F6D3FFF73CFCB0610008D0610008A0
:10092000202A04DB203A21FA02F00021704721FA44
:1009300002F3D040C2F120029140084319467047AB
:10094000C0B24FF4F05100F0D1B900002DE9FF4FD3
:10095000087883B09946FF2805D0491C2D2804D07B
:100960000024002008E000200BE00124F9E700EB60
:10097000800003EB4000491C0B78FF2BF7D104B13A
:10098000404200230293147819461D462D2C01D0B5
:100990002B2C04D1521C2D2C13D000240294AA46D7
:1009A0001478FF2C0FD00A25A3FB057801FB0581E5
:1009B0004FF0000C03FB0C11521CE3194AEB010130
:1009C000EEE70124EAE7814453EA010002D019F579
:1009D000C87F06DA03980021C0E9001107B0BDE81E
:1009E000F08F0025AE4E2F46DFF8B882184600F093
:1009F00091F9CDE90001B9F1000002DAC9F1000472
:100A000000E004460023A74A1AEB030B42EB045A0A
:100A100012E0E00707D02A46334638464146FFF742
:100A20008FFC074688462A46334610461946FFF78C
:100A300087FC05460E466410002CEAD1DDE9000172
:100A4000B9F1000F5A46534606DAFFF78DFE3A46D3
:100A50004346FFF789FE05E0FFF772FC3A4643463E
:100A6000FFF76EFC029A0AB181F00041039AC2E9D5
:100A70000001B3E72DE9FF4F1F468DB0D7E90146CE
:100A80004FF0FF382E2045464FF000090B90B96912
:100A90006D1C0E988847396A824688470028F6D12F
:100AA000BAF1FF3F0AD024F4D064002E11DDBAF170
:100AB0002B0F08D0BAF12D0F0BD102E0404611B038
:100AC0008DE744F48064B9696D1C0E9888478246AE
:100AD000761E6946600501D52D2000E02B208DF89B
:100AE000000001F1010B0DF1200809E0B9696D1C4E
:100AF0000E98884782460F9844F40074761E05606D
:100B0000002E02DDBAF1300FF0D00B998A453ED1AC
:100B100044F0800406E00F99681CA9F1010944F42F
:100B200000740860B9696D1C761E0E98884782466D
:100B30003028F0D02BE00B998A4505D1200603D44C
:100B400044F08004761E18E0504603F053F808B3D2
:100B50000DF11301761E44F400748B4508D2AAF1FE
:100B600030000BF8010B200607D5A9F1010003E0C6
:100B7000200602D409F101008146A00502D50F9993
:100B8000681C0860B9696D1C0E9888478246002E63
:100B9000D1DC53E0002E51DDBAF1650F02D0BAF17D
:100BA000450F4BD1A00549D5B9696D1C24F440749B
:100BB000761E0E9888478246002E0CDD2B2804D026
:100BC000BAF12D0F07D144F48074B9696D1C0E98E9
:100BD00088478246761EE00501D52D2100E02B21B5
:100BE00008F8011BCDF82C8021E00DF12901761EBB
:100BF00044F4007488450CD2AAF1300010F0FF00D4
:100C000088F8000002D10B99884509D908F101083C
:100C100006E0E00501D5244801E042F20F7081466C
:100C2000B9696D1C0E98884782460F980560002EA2
:100C300004DD504602F0DEFF0028D6D1F9690E9897
:100C40008847FF208BF8000088F8000000200690FD
:100C500007904B466A4608A906A8FFF777FEA0054D
:100C600002D46FF001002AE714F0240F0AD0E00745
:100C700014D1DDE906123868031D3B600068C0E945
:100C800000120BE0DDE90601FFF708FC0146E00772
:100C900004D13868021D3A600068016028460EE7FA
:100CA000000014400000F03FF1D8FFFF426842B15D
:100CB000016811F8013B23B1521EC0E90012184629
:100CC00070470121C160881E704742685AB1C368ED
:100CD000016843B983688B4205D0491E521CC0E9A4
:100CE0000012002070474FF0FF3070477F2801D975
:100CF000002208E0064A02EB5002C007127800D139
:100D0000120902F00F0201209040084070470000D5
:100D1000706100080EB540F2334202920022CDE924
:100D200000221346FFF7D2FC03B000BD00B597B018
:100D30000121880501F028FB0121080201F054FB84
:100D400038208DF8580001208DF85B0016A801F0BE
:100D50008DF9002007903848089038480990002005
:100D60000A9004200B9000200C904FF480600D90AE
:100D700040000E9080000F904011109040021190A2
:100D8000002012900120139000201490159007A9C4
:100D90002B4800F021FD0121294800F007FC10211B
:100DA000274800F0CFFB01221021254800F0F6FC77
:100DB0000020019001208DF8080000208DF8090026
:100DC0000390059004208DF8180001A91A484C38AA
:100DD00000F0DAF9042301220F2117484C3800F003
:100DE00055FA04230222194613484C3800F04EFAF3
:100DF00004230322052110484C3800F047FA04234D
:100E00001A4606210C484C3800F040FA01210A48E5
:100E10004C3800F036F9012107484C3800F026F92B
:100E2000012105484C3800F0C8F803484C3800F060
:100E300093FA17B000BD00004C200140D4020020FE
:100E40001064024000B587B00121480201F0CCFADD
:100E5000002001908DF808008DF809004FF08050B7
:100E600003904FF0606004900020059001208DF801
:100E7000180001A91E4800F087F900211C4800F065
:100E800000F900211A4800F007F9002301220D2182
:100E9000174800F0FBF90121154800F0EBF9002399
:100EA00001220A21124800F099F900221421104869
:100EB00000F048FA4FF480110D4800F000F94FF4AB
:100EC00080310B4800F0F3F80021094800F06AF87F
:100ED0000021074800F0C3F9012240F2074104480D
:100EE00000F042F90121024800F067F807B000BDA8
:100EF0000021014000B587B00121880201F074FA99
:100F0000002001908DF808008DF809004FF0805006
:100F100003904FF0606004900020059001208DF850
:100F2000180001A91E4800F02FF900211C4800F00C
:100F3000A8F800211A4800F0AFF8002301220C2184
:100F4000174800F0A3F90121154800F093F9002398
:100F500001220B21124800F041F90022142110480F
:100F600000F0F0F94FF480110D4800F0A8F84FF4AC
:100F700080310B4800F09BF80021094800F012F87E
:100F80000021074800F06BF9012240F207410448B4
:100F900000F0EAF80121024800F00FF807B000BDA8
:100FA0000022014021B1426842F48062426003E0C5
:100FB000426822F480624260704721B1826842F048
:100FC0000102826003E0826822F0010282607047C1
:100FD0000021084A1168084A1140D0E900231A4349
:100FE00083681A43C3681A431143044AC2F80413BE
:100FF0007047000004230140E030FCFF0020014066
:1010000000B587B00121052001F0BEF901210802D9
:1010100001F0EAF97020059003208DF8180005A969
:10102000104800F0E3FC2F20059003208DF81800F5
:1010300005A90D4800F0DAFC12208DF810000120FF
:101040008DF8130004A801F011F8002000904FF46F
:10105000803001900020029003906846FFF7B8FFAF
:1010600007B000BD000002400008024021B18268C4
:1010700042F48072826003E0826822F480728260AF
:10108000704721B1826842F40072826003E0826896
:1010900022F400728260704721B1826842F480625B
:1010A000826003E0826822F48062826070470A46B0
:1010B0000021816821F470211143816070470A4644
:1010C0000021816821F440111143816070470000C4
:1010D0001D48006800F00400042834D11B48006853
:1010E00000F0040004282ED1C043174908601849B5
:1010F000C1F800021748008800F0100018BB124821
:101100003C30006800EE100AB8EE400ADFED120A2B
:1011100020EE200ADFED110A80EE201A104880ED43
:10112000001A0846D0F83C0200EE100AB8EE400A59
:10113000DFED090A20EE200ADFED080A80EE201A12
:10114000084880ED001A704700210140002201404C
:10115000002001400000014033335340000080452F
:10116000240000202800002010B50B460021D9B231
:10117000012404FA01F11AB144680C43446002E00E
:1011800044688C43446010BD30B502460020002303
:101190005068104C20400D790C6844EA0524204327
:1011A000506090680C4C2040D1E903542C438D686A
:1011B0002C434D7944EA450420439060D06A20F4E2
:1011C00070000C7D641EE4B2234340EA0350D062F9
:1011D00030BD0000FFFEFFFCFDF7FFC0F0B5044688
:1011E0001546002000220026092911DDE068A1F142
:1011F0000A0707EB470C072707FA0CF29043A1F107
:101200000A0707EB470703FA07F21043E0600CE018
:10121000206901EB410C072707FA0CF2904301EB20
:10122000410703FA07F210432061A06BC0F3015697
:10123000EF1C06F1010CA7EB0C0707EB870C1F272F
:1012400007FA0CF29043EF1C06F1010CA7EB0C0718
:1012500007EB870701FA07F21043A063F0BD21B145
:10126000426842F48052426003E0426822F48052B5
:101270004260704710B50A4600210023816B21F4BB
:101280004011531E41EA0351816310BDF0B504467D
:101290000D4600200021092D11DDE068A5F10A06A8
:1012A00006EB4607072606FA07F18843A5F10A066A
:1012B00006EB460603FA06F10843E0600CE02069FD
:1012C00005EB4507072606FA07F1884305EB4506B7
:1012D00003FA06F108432061072A0FDA606B561EF5
:1012E00006EB86071F2606FA07F18843561E06EB13
:1012F000860605FA06F10843606322E00D2A0FDA3C
:10130000206BD61F06EB86071F2606FA07F18843D7
:10131000D61F06EB860605FA06F10843206310E0A7
:10132000E06AA2F10D0606EB86071F2606FA07F112
:101330008843A2F10D0606EB860605FA06F108437E
:10134000E062F0BD08B5002300930090009B0B44C1
:101350000093009B1A6008BD816841F08041816064
:101360007047000010B52DED068B84B09FED480A44
:10137000484880ED000A9FED460A474880ED000A84
:101380009FED430A454880ED000A002433E04448BD
:101390000068444988420AD03E4890ED000A42481D
:1013A000D0ED000A30EE200A3A4880ED000A3F48AE
:1013B00000683C4988420AD0374890ED000A3C4812
:1013C000D0ED000A30EE200A334880ED000A39489B
:1013D0000068344988420AD0304890ED000A364807
:1013E000D0ED000A30EE200A2C4880ED000A0120E2
:1013F00003F03CFD641CB4F57A7FC8DB2848006824
:101400002849884208D0234890ED000ADFED2B0AD6
:1014100080EE201A80ED001A244800682149884295
:1014200008D01D4890ED000ADFED240A80EE201A56
:1014300080ED001A1F4800681A49884208D01748F2
:1014400090ED000ADFED1D0A80EE201A80ED001AF3
:1014500012480068FEF7F7FF41EC180B0E480068D1
:10146000FEF7F1FF41EC190B0A480068FEF7EBFFAD
:1014700041EC1A0B8DED028B8DED009B53EC1A2B7A
:101480000FA001F0AFFE04B0BDEC068B10BD000054
:1014900000000000B4000020B8000020BC000020C4
:1014A0009C000020C7CFFFFF20000020A0000020EC
:1014B00024000020A40000202800002000007A441E
:1014C0006F66667365745F69613A252E34662C6FAA
:1014D00066667365745F69623A252E34662C6F66A2
:1014E000667365745F69633A252E34662E0D0A00B3
:1014F00010B50749074800F01FF9012807D1044932
:10150000044800F039F80021024800F04FF810BDFF
:1015100000802020A060024010B50749074800F075
:101520000BF9012806D10449044800F025F80448C5
:10153000FFF712FF10BD0000208000101064024071
:10154000002001400246094B9A4201D2084801E0BE
:101550000648103801F000531BB1064B0B40C36026
:1015600002E0044B0B4083607047000010640240AF
:10157000006002407D0F7D0F0246094B9A4201D266
:10158000084801E00648103801F000531BB1064B33
:101590000B40C36002E0044B0B40836070470000C7
:1015A00010640240006002407D0F7D0F21B102688F
:1015B00042F00102026003E0026822F001020260D0
:1015C00070470000016821F0010101600021016005
:1015D00041608160C1600161212141614A498842C5
:1015E00004D13D21484A103A91608CE046491831B7
:1015F000884205D14FF47461434A103A916082E009
:1016000041493031884205D14FF474113E4A103AB5
:10161000916078E03C494831884205D14FF07461CF
:10162000394A103A91606EE037496031884204D1FE
:101630003649354A103AD16065E0334978318842FD
:1016400004D13349304A103AD1605CE02E499031E0
:10165000884204D12F492C4A103AD16053E02A49DC
:10166000A831884205D14FF03D51274A103AD16048
:1016700049E02949884204D13D21274A083A1160AE
:1016800041E025491831884205D14FF47461224A5E
:10169000083A116037E020493031884205D14FF4D3
:1016A00074111D4A083A11602DE01B4948318842E7
:1016B00005D14FF07461184A083A116023E01649C9
:1016C0006031884204D11149134A121F11601AE097
:1016D00011497831884204D10D490F4A121F116017
:1016E00011E00D499031884204D10A490A4A121F7B
:1016F000116008E00849A831884204D14FF03D51FB
:10170000054A121F11607047106002403D00002022
:10171000400F002000003D201064024001460020E0
:101720000A6802F001020AB1012000E000207047BF
:101730000146486880B2704770B502460020002418
:101740000025124EB24201D2114B01E00F4B103B6B
:10175000104E0E4036B11E2606EAD124166806EA5F
:10176000040502E0566906F0800501F000560EB14E
:101770005C6800E01C68084E344004EA010616B1BB
:101780000DB1012000E0002070BD00001064024097
:10179000006002403C0F3C0F7D0F7D0F10B501F043
:1017A00080034BB122B1436943F08003436103E0FE
:1017B000436923F08003436180290BD02AB1036879
:1017C00001F01E042343036004E0036801F01E04DB
:1017D000A343036010BD000010B500220268134B44
:1017E0001A40CC680B6823434C6923438C6923431C
:1017F000CC6923430C6A23434C6A23438C6A2343FA
:101800004C6B23438C6B23431A430260426922F0E2
:101810000702D1E90B3423431A4342610B69436049
:101820004B6883608B68C36010BD00003F801CF074
:101830004160704710B54FF40041074800F041F98E
:10184000012803D10021054801F024FA4FF400409B
:1018500000F020F810BD0000000802400008004021
:1018600010B54FF40071084800F02BF9012806D19B
:101870000021064801F00EFA0120054908604FF4E6
:10188000007000F007F810BD00080240000400409E
:10189000640000200149086070470000143C0140CA
:1018A00000B585B00121042000F06EFD0121880300
:1018B00000F09AFD4FF40070039000208DF81000A6
:1018C00001208DF8110000208DF8130003A91348A2
:1018D00000F08CF80921022000F03CFE4FF400706B
:1018E000009000208DF8040008208DF805000120EC
:1018F0008DF80600684600F013F817208DF80800F0
:1019000000208DF8090002208DF80A0001208DF8D2
:101910000B0002A800F0AAFB05B000BD00080240C1
:10192000002123498279002A3AD00A4612680368C6
:101930009A430B461A600A1D126803689A430B1DEE
:101940001A60027911440A6803681A430A60184A47
:101950000832126803689A43154B08331A601A1D3F
:10196000126803689A43124B0C331A604279102AAA
:101970000ED11A1F126803681A430D4B08331A6000
:101980001A1D126803681A43094B0C331A600DE0E4
:101990000749427911440A6803681A430A6005E05E
:1019A000027911440A6803689A430A60704700008C
:1019B000003C01401CB501210F2000F0E5FC042093
:1019C000009001208DF804008DF8070000208DF8AC
:1019D00005008DF806006946034800F007F8042169
:1019E000014800F077F81CBD000C0240F0B50A4633
:1019F00000210023002400BF3DE0012505FA01F38A
:101A0000156805EA03049C4234D105684F0003269B
:101A1000BE40B543056015794E00B54006683543B4
:101A200005601579012D02D01579022D16D1856832
:101A30004F000326BE40B543856055794E00B54042
:101A4000866835438560456801268E40B54345600C
:101A5000456896798E40B6B235434560C5684F00FB
:101A60000326BE40B543C560D5794E00B540C66873
:101A70003543C560491C1029BFD3F0BDF0B5002324
:101A800000244D07ED0E02FA05F3CE1000F12005FB
:101A900055F826504E07F70E0F26BE40B543CF101F
:101AA00000F1200646F82750CE1000F1200555F829
:101AB000265045EA0304CE1000F1200545F82640E3
:101AC000F0BD0246002013690B400BB1012000E07D
:101AD0000020704741837047018370471CB5012186
:101AE000022000F051FC3020009001208DF804000D
:101AF0008DF8070003208DF8050000208DF8060002
:101B000069460448FFF772FF30210248FFF7E4FFFF
:101B10001CBD00000004024010B510210A48FFF768
:101B2000D9FF20210848FFF7D5FF102003F0B6F9B0
:101B300010210548FFF7D0FF102003F0AFF9102166
:101B40000148FFF7C7FF10BD0004024010B5102187
:101B50000A48FFF7BFFF20210848FFF7BDFF10200C
:101B600003F09CF910210548FFF7B6FF102003F0A1
:101B700095F910210148FFF7ADFF10BD00040240A8
:101B800070B5054600241D48006820F440601B49DC
:101B90000860084600680860002619E01021174810
:101BA000FFF798FF102003F079F910211348FFF791
:101BB00093FF6006040E11481030006800F020000A
:101BC00008B1601CC4B2082003F068F9701CC6B2EA
:101BD000082EE3DB0948006820F4406007490860EC
:101BE0000846006840F48060086015B9FFF7AEFF52
:101BF00001E0FFF791FF204670BD000000040240A5
:101C000070B5044610211448FFF764FF00251FE05B
:101C100004F0800020B120210F48FFF75DFF03E0B2
:101C200020210D48FFF756FF6006040E102003F038
:101C300035F910210848FFF74FFF102003F02EF967
:101C400010210548FFF746FF102003F027F96D1C0F
:101C5000082DDDD370BD00000004024010B5202126
:101C60000A48FFF739FF10210848FFF735FF102019
:101C700003F014F920210548FFF72CFF102003F092
:101C80000DF910210148FFF725FF10BD00040240A7
:101C900010B510210A48FFF71DFF20210848FFF763
:101CA00019FF102003F0FAF810210548FFF714FF80
:101CB00020210348FFF710FF102003F0EFF810BDBC
:101CC0000004024010B500242048006820F4406061
:101CD0001E49086008460068086020211B48FFF77D
:101CE000FBFE10211948FFF7F7FE082003F0D6F895
:101CF00013E0601CC0B20446FA280EDD13480068E9
:101D000020F44060114908600846006840F4806093
:101D10000860FFF7BDFF012010BD0C4810300068BF
:101D200000F020000028E4D10848006820F440605A
:101D3000064908600846006840F480600860102189
:101D40000248FFF7C7FE0020E6E70000000402405B
:101D500010B59FED140A144880ED000A9FED130A98
:101D600080ED010A01F04EFF0F4988609FED0D0ADA
:101D70000F4880ED000A9FED0D0A80ED010A01F089
:101D800041FF0B4988609FED070A0A4880ED000A71
:101D90009FED060A80ED010A01F034FF05498860D5
:101DA00010BD00000AD7A33C14030020000000006F
:101DB000200300202C03002070B52DED048B044679
:101DC000B0EE408A01F01EFF0546A068281A00EE1A
:101DD000100AB8EE400ADFED1C0A20EE200AF0EEF1
:101DE000408AA560F5EEC08AF1EE10FA04D29FEDAC
:101DF000170AF0EE408A0DE09FED150AF4EEC08A56
:101E0000F1EE10FA06DD84ED018AB0EE480ABDEC71
:101E1000048B70BD94ED000AD4ED000A70EEA80AA0
:101E200080EE209A94ED010A20EE090AF7EE000AEE
:101E300070EEC90AF0EE409A40EE889AC4ED019A1D
:101E4000B0EE690AE3E70000BD3786356F12833ACA
:101E50009A99993EB0EE401A0D4B18600D4B1960DF
:101E60000D4B1A60B7EE002AC2EE011A81EEA02ACD
:101E7000B0EE420A094B83ED000AF1EE401A084B1E
:101E8000C3ED001AF1EE401A064BC3ED001A70477D
:101E90009C000020A0000020A4000020A80000203A
:101EA000AC000020B000002010B5FFF7A9F8FEF745
:101EB0003DFFFEF7C7FFFFF71DF80121044800F0C2
:101EC000F5FC0A2002F0D2FFFFF74CFA10BD00002B
:101ED0000000014010B5FFF701FE4FF480500F499C
:101EE00008600FA001F07EF90A2002F0BFFF03F0A6
:101EF00081FA0E4908609FED0E0A0E4880ED000A37
:101F000001F080FE0C490860052002F0AFFF03F0ED
:101F100005F80A4880ED000A10BD00002C000020E2
:101F20004D305F4153353630300D0A00340000200B
:101F3000000000003C00002030000020380000209D
:101F400010B51BA001F04EF91C4890ED000A1C488A
:101F5000D0ED000AB4EEE00AF1EE10FA04DD90EDE7
:101F6000000A164880ED000A154890ED000A154851
:101F700080ED040A124890ED000A134880ED040A2F
:101F80001248007830B90E4890ED000A104880EDF4
:101F9000040A05E00F4890ED000A0D4880ED040AA0
:101FA0000D4890ED000A0D4880ED040A10BD0000B8
:101FB0004D4F543A20496E69740D0A004C000020C0
:101FC00048000020380300205C030020900000201F
:101FD000800300205C00002058000020A4030020A3
:101FE00010B52DED028BB0EE408A0446B5EEC08AE6
:101FF000F1EE10FA04D0164880ED008A154804600E
:1020000002F088FB02F08AFF134880ED000A3220BC
:1020100002F02CFF03F030FE104880ED000A05208E
:1020200002F024FF03F014FE0D4880ED000A0D4875
:102030000078022805D10A4890ED000A0A4880ED90
:10204000000AC82002F012FFBDEC028B10BD000098
:102050009800002040000020380000207000002080
:102060006800002091000020C800002070B5002109
:1020700000230F22C4781CB3174C246804F4E064D6
:10208000C4F5E064C4F30721C1F10404E3B20A41DA
:1020900044789C40E1B28478144021430C07210E1F
:1020A0000E4C05786155047804F01F050124AC40FE
:1020B00005786D11AD0005F1E025C5F8004109E096
:1020C000047804F01F050124AC40054D0678761114
:1020D00045F8264070BD00000CED00E000E400E093
:1020E00080E100E010B59FED420A424880ED000A11
:1020F000B7EE000A80ED010A9FED3F0A80ED020A6B
:102100009FED3D0A80ED030A9FED3B0A80ED050A35
:102110009FED390A80ED060A9FED370A80ED070A28
:1021200001F070FD33490862B3EE040A334880EDD4
:10213000000A9FED310A80ED010A9FED2F0A80ED24
:10214000020A9FED2D0A80ED030A9FED2B0A80ED18
:10215000050A9FED290A80ED060A9FED270A80ED0A
:10216000070A01F04FFD25490862B6EE000A24482F
:1021700080ED000A9FED200A80ED010A9FED1E0A06
:1021800080ED020A9FED1C0A80ED030A9FED1A0AFA
:1021900080ED050A9FED180A80ED060A9FED160AEC
:1021A00080ED070A01F02EFD15490862B6EE000A1F
:1021B000144880ED000A9FED100A80ED010A9FEDA2
:1021C0000E0A80ED020A9FED0C0A80ED030A9FEDD6
:1021D0000A0A80ED050A9FED080A80ED060A9FEDC8
:1021E000060A80ED070A01F00DFD0649086210BDE0
:1021F000CDCC4C3E8003002000000000A403002052
:10220000380300205C03002070B52DED088B0446D8
:10221000B0EE409A01F0F6FC0546206A281A00EE5E
:10222000100AB8EE400ADFED560A20EE200AB0EEA2
:10223000408A2562B5EEC08AF1EE10FA06D9B6EEF4
:10224000000AB4EEC08AF1EE10FA03DD9FED4D0AEC
:10225000B0EE408A94ED000A60EE09AA94ED070AF8
:10226000D4ED010A60EE880AB6EE001A60EE810A2B
:1022700094ED051A31EE091AF0EE409A40EE819A7B
:1022800094ED040AB1EE400AB4EEE90AF1EE10FA58
:1022900004DD94ED040AB1EE400A0BE094ED040A6B
:1022A000B4EEE90AF1EE10FA02D294ED040A01E06C
:1022B000B0EE690AF0EE409A94ED020AD4ED050AF8
:1022C00079EE600A20EE200A80EE08BA3AEEA90AFA
:1022D00070EE0B8A94ED040AB1EE400AB4EEE80AFF
:1022E000F1EE10FA04DD94ED040AB1EE400A0BE0C1
:1022F00094ED040AB4EEE80AF1EE10FA02D294ED7D
:10230000040A01E0B0EE680AF0EE408A94ED030A98
:10231000B5EEC00AF1EE10FA26DD94ED060A38EEAD
:10232000C00A80EE08AA94ED030AB4EECA0AF1EEE0
:1023300010FA08D294ED060AD4ED030A00EE880ADA
:10234000F0EE408A10E094ED030AB1EE400AB4EEDC
:10235000CA0AF1EE10FA07DD94ED060AD4ED030A7D
:1023600000EEC80AF0EE408AC4ED079AC4ED068A72
:1023700084ED059AB0EE680ABDEC088B70BD0000D4
:10238000BD3786356F12833A29B1064A1268024377
:10239000044B1A6004E0034A12688243014B1A603E
:1023A000704700003038024029B1064A12680243E3
:1023B000044B1A6004E0034A12688243014B1A601E
:1023C000704700004038024029B1064A12680243B3
:1023D000044B1A6004E0034A12688243014B1A60FE
:1023E000704700002038024029B1064A12680243B3
:1023F000044B1A6004E0034A12688243014B1A60DE
:10240000704700004438024029B1064A126802436E
:10241000044B1A6004E0034A12688243014B1A60BD
:102420007047000024380240F0B50021002200244B
:10243000022500260223324F3F6807F00C0121B12C
:10244000042905D0082937D105E02E4F076036E072
:102450002D4F076033E02A4F3F1F3F68C7F3805678
:10246000274F3F1F3F6807F03F036EB1264FB7FB72
:10247000F3F7DFF88CC0ACF1040CDCF800C0CCF34F
:10248000881C07FB0CF40CE01E4FB7FBF3F7DFF8DA
:1024900070C0ACF1040CDCF800C0CCF3881C07FB66
:1024A0000CF4174F3F1F3F68C7F301477F1C7D00A7
:1024B000B4FBF5F7076002E0124F076000BF00BFF2
:1024C0000F4F3F6807F0F0010909104F7A5C076869
:1024D000D74047600A4F3F6807F4E051890A0B4F25
:1024E0007A5C4768D7408760054F3F6807F46041D2
:1024F000490B064F7A5C4768D740C760F0BD0000C3
:10250000083802400024F40000127A000000002085
:1025100070B5FFF7A3FB6C20FFF772FBFFF7D2FB50
:102520000C20FFF76DFBFFF7CDFBFFF797FB6D204E
:10253000FFF766FBFFF7C6FB0120FFF721FB044610
:102540000020FFF71DFB0546FFF7A2FB05EB04206B
:1025500080B270BD30B500228B071C0F0F2303FA29
:1025600004F20B4B8C1053F824309343084C8D101D
:1025700044F8253023468C1053F824308C07240F60
:1025800000FA04F42343024C8D1044F8253030BD8A
:10259000083801400CB500200190009034480068D4
:1025A00040F480303249086000BF3148006800F4D0
:1025B000003000900198401C0190009818B90198D3
:1025C000B0F5A04FF1D12A48006800F4003010B1F6
:1025D0000120009001E0002000900098012846D1E1
:1025E00023484030006840F0805021494031086065
:1025F0002048006840F440401E4908601C480830EC
:1026000000681B49083108600846006840F4004033
:1026100008600846006840F4A05008601648091F8A
:102620000860081F006840F08070091F086000BF44
:102630000F48006800F000700028F9D040F20570E3
:102640000E4908600A480830006820F00300084975
:10265000083108600846006840F00200086000BFCA
:1026600003480830006800F00C000828F8D10CBDC1
:10267000003802400070004008544007003C02400F
:1026800002480068401C01490860704710000020A3
:1026900010B51548006840F47000134908601348ED
:1026A000006840F001001149086000200F4908311E
:1026B00008600E4800680E4908400C4908600D4843
:1026C000091D0860081F006820F48020091F0860A9
:1026D000002006490C310860FFF75CFF4FF00060F6
:1026E00001498039086010BD88ED00E000380240E3
:1026F000FFFFF6FE1030002400B58FB0012103204B
:10270000FFF742FE01210846FFF76EFE0122082175
:102710005548FFF7B3F9012209215348FFF7AEF9F5
:1027200001220A215048FFF7A9F901220D214F4843
:10273000FFF7A4F901220E214C48FFF79FF901226F
:102740000F214A48FFF79AF94FF4E0600D900220FC
:102750008DF8380000208DF83A0003208DF83900FC
:1027600000208DF83B000DA93F48FFF73FF94FF4DB
:1027700060400D9002208DF8380000208DF83A005E
:1027800003208DF8390000208DF83B000DA9374853
:10279000FFF72CF9364800F0A5F80020ADF8280026
:1027A0006020ADF82A0040F6AC500B900020ADF848
:1027B000300002208DF832000AA92D4800F06CFA92
:1027C0007020ADF814000120ADF816000420ADF81B
:1027D000180000200790ADF82000ADF82200ADF8F9
:1027E0002400ADF8260005A9214800F043F905A909
:1027F0001F4800F087F905A91D4800F0E3F90821FA
:102800001B4800F075F90821194800F0CDF908219E
:10281000174800F027FA4FF40060ADF804004010AC
:10282000ADF806000020ADF808006420ADF80A00FD
:102830000020ADF80C004FF40050ADF80E00002061
:10284000ADF8100001A90A4800F020F8202108483E
:1028500000F011FA0121064800F00CF801210448AB
:1028600000F030F80FB000BD00000240000402404C
:102870000000014021B1028842F08002028004E0A1
:1028800002884FF67F731A40028070470A884B888F
:102890001A438B881A43CB881A430B891A434B89F6
:1028A0001A438B891A43A0F84420704721B102884B
:1028B00042F00102028004E002884FF6FE731A40E3
:1028C0000280704731B1B0F8442042F40042A0F8D1
:1028D000442005E0B0F84420C2F30E02A0F84420E2
:1028E0007047000010B504465548844208D10121C4
:1028F0000846FFF789FD00210120FFF785FD9DE0D7
:10290000B4F1804F08D101210846FFF75DFD002199
:102910000120FFF759FD91E04A48844208D1012186
:102920000220FFF751FD00210220FFF74DFD85E059
:102930004548844208D101210420FFF745FD0021CC
:102940000420FFF741FD79E04048844208D101218D
:102950000820FFF739FD00210820FFF735FD6DE065
:102960003B48844208D101211020FFF72DFD0021B2
:102970001020FFF729FD61E03648844208D101218B
:102980002020FFF721FD00212020FFF71DFD55E04D
:102990003148844208D101210220FFF735FD002192
:1029A0000220FFF731FD49E02C48844209D1012182
:1029B0000804FFF729FD00214FF48030FFF724FDC4
:1029C0003CE02748844209D101214804FFF71CFD5F
:1029D00000214FF40030FFF717FD2FE0214884421B
:1029E00009D101218804FFF70FFD00214FF4802059
:1029F000FFF70AFD22E01C48844208D10121402053
:102A0000FFF7E2FC00214020FFF7DEFC16E017484C
:102A1000844208D101218020FFF7D6FC00218020CC
:102A2000FFF7D2FC0AE01248844207D10121801549
:102A3000FFF7CAFC0021A015FFF7C6FC10BD00007F
:102A4000000001400004004000080040000C00406D
:102A5000001000400014004000040140004001400C
:102A6000004401400048014000180040001C0040A4
:102A70000020004070B5002400220023058C4FF692
:102A8000FE7635400584028C8388048B4FF68F7563
:102A90002C40B51E2C400D882C43751E2A408D8974
:102AA0002A434D882A43104DA84202D00F4DA84218
:102AB00013D14FF6F7752A40CD892A434FF6FB759F
:102AC0002A408D882A434FF6FF652B404FF6FF556D
:102AD0002B400D8A2B434D8A2B43838004838D68C2
:102AE0004563028470BD0000000001400004014005
:102AF0000A460021018B4FF6F773194011430183F9
:102B00007047000070B5002400220023058C4FF6AA
:102B1000EF7635400584028C8388048B48F6FF7578
:102B20002C404FF6FF452C400D884FF6FF7606EA05
:102B300005252C434FF6DF752A408D8906EA0515D9
:102B40002A434D8806EA05152A43154DA84202D0AE
:102B5000144DA8421DD14FF67F752A40CD894FF6FE
:102B6000FF7606EA05152A434FF6BF752A408D8881
:102B700006EA05152A434FF6FF352B404FF2FF7545
:102B80002B400D8A06EA85052B434D8A06EA85050A
:102B90002B43838004838D688563028470BD0000AD
:102BA00000000140000401400A460021018B4FF261
:102BB000FF7319404FF6FF7303EA022319430183A1
:102BC0007047000070B5002400220023058C4FF6EA
:102BD000FF6635400584028C8388848B4FF68F75A1
:102BE0002C404FF6FC752C400D882C434FF6FF55BA
:102BF0002A408D894FF6FF7606EA05252A434D883F
:102C000006EA05252A43154DA84202D0144DA842D4
:102C10001DD14FF2FF752A40CD894FF6FF7606EAA7
:102C200005252A434FF6FF352A408D8806EA0525FB
:102C30002A434EF6FF752B404DF6FF752B400D8A4B
:102C400006EA05152B434D8A06EA05152B438380BA
:102C500084838D68C563028470BD0000000001405C
:102C6000000401400A460021818B4FF6F77319409A
:102C700011438183704782884FF68F731A40828098
:102C800082880A438280704741637047816370473E
:102C9000C16370474162704700220288184B984216
:102CA0000ED0184B98420BD0B0F1804F08D0164B85
:102CB000984205D0154B984202D0154B984204D14A
:102CC0004FF68F731A404B881A43124B984207D025
:102CD000114B984204D04FF6FF431A400B891A4318
:102CE00002804B68C3620B880385054B984202D073
:102CF000044B984201D18B7A03860123838270476B
:102D000000000140000401400004004000080040B1
:102D1000000C0040001000400014004010B540F2CC
:102D20002441154800F0A4F9012824D11248008854
:102D3000124908601048001D008808601048FEF71E
:102D4000F7FCC0F580700D49086000210C48FEF7C3
:102D50002DFC00BF0A48FEF7E1FC0028FAD14FF431
:102D600080710748FEF764FD01210548FEF71EFC4F
:102D700001200449086010BD0044004014000020F8
:102D8000886002401800002010B596B0044601216A
:102D90005E48FFF7F9FA01214804FFF705FB072217
:102DA00002215B48FEF76AFE072203215848FEF71E
:102DB00065FE0C20149002208DF8540000208DF840
:102DC000560001208DF8570002208DF8550014A9F7
:102DD0004F48FEF70BFE26208DF83C0000208DF8B2
:102DE0003D008DF83E0001208DF83F000FA8FFF751
:102DF0003DF911208DF83C0001208DF83D008DF843
:102E00003E008DF83F000FA8FFF730F9414800F071
:102E1000B7F810940020ADF84C000C20ADF84A0033
:102E20000020ADF84800ADF84600ADF8440010A908
:102E3000384800F06DF901224021364800F096F83C
:102E40000121344800F086F8012240F22441314843
:102E500000F038F93048FEF7B5FB4FF00060009005
:102E60002C48001D01902D480290402003908000C6
:102E70000490002005904FF4806006900020079099
:102E8000089009904FF480300A9000200B900320A6
:102E90000C9000200D900E9069461F48FEF79CFC98
:102EA000012210211C48FEF779FC1B481838FEF758
:102EB00089FB4FF0006000901648001D01901848F3
:102EC0000290002003904FF4807004900020059041
:102ED0004FF4806006900020079008904FF48070B7
:102EE000099040020A9000200B9003200C900020D3
:102EF0000D900E90694608481838FEF76DFC0121C8
:102F000005481838FEF752FB16B010BD010020002E
:102F10000000024000440040A0600240D4000020B5
:102F2000D401002010B5044600210848FEF73EFBFE
:102F3000A1B20648FEF77CFC01210448FEF736FBEF
:102F400001228021024800F011F810BDA06002406B
:102F50000044004021B1828942F40052828104E0A1
:102F600082894DF6FF731A40828170471AB1838AB5
:102F70000B43838202E0838A8B4383827047000085
:102F800010B504463248844208D101211020FFF7D1
:102F90003BFA00211020FFF737FA57E02D48844212
:102FA00009D101214804FFF70FFA00214FF4003046
:102FB000FFF70AFA4AE02848844209D1012188042F
:102FC000FFF702FA00214FF48020FFF7FDF93DE002
:102FD0002248844209D10121C804FFF7F5F90021F4
:102FE0004FF40020FFF7F0F930E01D48844209D18A
:102FF00001210805FFF7E8F900214FF48010FFF7E1
:10300000E3F923E01748844208D101212020FFF78B
:10301000FBF900212020FFF7F7F917E0124884425E
:1030200009D101218807FFF7CFF900214FF0804037
:10303000FFF7CAF90AE00D48844207D10121400593
:10304000FFF7C2F900216005FFF7BEF910BD0000CF
:10305000001001400044004000480040004C004087
:10306000005000400014014000780040007C004007
:1030700070B50246002400230025002040F66A16A1
:10308000B14200D100BFC1F3421501F01F03012678
:1030900006FA03F3012D02D19689334006E0022D92
:1030A00002D1168A334001E0968A33400C12012681
:1030B00006FA04F41688344013B10CB1012000E084
:1030C000002070BDF0B50346002400260025002036
:1030D00040F66A17B94200D100BF1846C1F3421446
:1030E00001F01F06012707FA06F5012C01D10C306B
:1030F00004E0022C01D1103000E014301AB107684E
:103100002F43076002E00768AF430760F0BD00008F
:103110002DE9FF4705460E460024A14600BFA04604
:10312000B08900B100BF2C8A24F44054F0880443D5
:103130002C82AC8941F20C608443B0883189084309
:10314000718908430443AC81AC8A24F44074B0898B
:103150000443AC826846FFF767F92048854202D0F5
:103160001F48854202D1DDF80C9001E0DDF808909F
:10317000A88900F4004040B109EBC90000EB091038
:1031800031684900B0FBF1F707E009EBC90000EB3B
:10319000091031688900B0FBF1F76420B7FBF0F04B
:1031A00004012009642101FB1078A88900F4004083
:1031B00040B1322000EBC800B0FBF1F000F0070096
:1031C000044308E0322000EB08106421B0FBF1F06A
:1031D00000F00F0004432C81BDE8FF870010014080
:1031E000001401400FB4054B10B503A9044A02981E
:1031F00000F054FD10BC5DF814FB0000014F000806
:103200001C0000200FB4084B10B504A902AA0398B3
:1032100000F044FD044602A9002001F0BBF920465D
:1032200010BC5DF814FB00009545000803B401983C
:103230004100009850EAC12018BF04204A0D18BF71
:1032400040F0010040F2FF72B2EB515F08BF40F066
:103250000200012808BF052002B0704700000000EE
:1032600070B59B482DED020B2DED068B079D25F0CB
:103270000044A04218DC9748844202DC0AD1069838
:1032800040B19DED060BBDEC068B02B0BDE8704071
:1032900000F06EBB002DCCBF9FED8F0B9FED900B10
:1032A000BDEC068B02B070BD8F48A04215DD8F4883
:1032B000A042D8BF4FF0FF3458DD9DED060B51EC16
:1032C000100BFFF7B3FF042808BF00F075FB9DED5E
:1032D000060BBDEC068B02B070BD9DED060B51ECEC
:1032E000100B01F001FECDE9060181489FED828BB4
:1032F000A0423CDD8248A0421FDD00249FED82AB4E
:103300009DED060B53EC1A2B51EC100BFCF771FFE3
:103310009DED060B41EC190B53EC1A2B51EC100BE5
:10332000FDF70EF853EC182BFDF704F853EC192BAE
:10333000FDF71AFACDE9060149E09DED060B0124DF
:1033400053EC182B51EC100BFCF753FF9DED060BC3
:1033500041EC190B53EC182B51EC100BFCF7EAFF66
:1033600053EC192BFDF700FACDE906012FE0684870
:10337000A0421FDD02249FED689B9DED060B53ECE0
:10338000192B51EC100BFCF7DBFF53EC182BFCF75F
:1033900030FF9DED060B41EC180B53EC192B51EC53
:1033A000100BFCF7C7FF53EC182BFDF7DDF9CDE947
:1033B00006010CE09DED060B032453EC102B9FED52
:1033C000580B51EC100BFDF7CFF9CDE906019DED3F
:1033D000060B53EC102B51EC100BFCF7B1FF41EC3A
:1033E000180B53EC182BFCF7ABFF41EC190B4E48B4
:1033F0000621B0EE490AF0EE690A784400F03CFA82
:1034000053EC182B51EC100BFCF79AFF41EC180B06
:103410004648B0EE490AF0EE690A0521784400F00A
:103420002BFA53EC192B51EC100BFCF789FF41ECF4
:10343000100B51EC180B53EC102B002C0EDAFCF790
:10344000D8FE9DED061B53EC112BFCF779FF9DED8B
:10345000061B53EC112BFCF770FF35E0FCF7C9FE9F
:103460009DED061B53EC112BFCF76AFF41EC100B92
:103470002F48784400EBC40090ED001B51EC100B7A
:1034800053EC112BFCF756FF9DED061B53EC112B53
:10349000FCF750FF41EC100B2648784400EBC400C9
:1034A00090ED001B51EC100B53EC112BFCF745FF7A
:1034B00041EC100B002DA2BFBDEC068B02B070BD1D
:1034C00051EC100B81F0004141EC100B01E70000C2
:1034D000000010440000F07F182D4454FB21F93FF8
:1034E000182D4454FB21F9BF0000DC3F0000203EB2
:1034F0000000F33F00000000000000000000F03F6B
:103500000000E63F00000000000000000000004056
:103510000080034000000000000000000000F83FB1
:10352000000000000000F0BF3A2D0000F02C000069
:103530007A2C0000322C000070B56B4E2DED040B80
:103540002DED028B82B0DDF81CC0DDE905235C4265
:103550002CF000411C4341EAD474049D22F0004049
:10356000B44205D86C422C4340EAD474B4420BD91F
:103570009DED061B9DED040B02B0BDEC028B04B06B
:10358000BDE8704000F0FEB9ACF14054A4F17F6496
:103590001C430BD0022404EAAC7444EAD274054301
:1035A0009FED538B9FED542B07D015E09DED040B41
:1035B00051EC100B01F06EFB42E0002C11BF012C0E
:1035C0009DED040B02B0BDEC028B04BF04B070BDD6
:1035D000022C38D0032C3BD00B439FED491B9FEDB1
:1035E0004A0B0AD0B14218D1B04209D121F0804132
:1035F00020F08040079105900FE0002A15DA10E0D6
:10360000434B7B44002C08BF93ED000B0DD0012CE5
:1036100010D0022C17D0032C1AD0B0421DD1002A92
:1036200003DAB0EE410AF0EE610A02B0BDEC028BA3
:1036300004B070BD93ED000B51EC100B81F0004114
:1036400041EC100BF1E7B0EE480AF0EE680AECE747
:10365000B0EE420AF0EE620AE7E7401A00153C2895
:10366000C8BF8DED000B19DCBCF1000FBEBF10F11F
:103670003C0F9FED290B8DED000B0FDB9DED060B35
:1036800053EC102B9DED040B51EC100BFDF76CF877
:1036900001F02AFC01F0FEFACDE90001002C08BF80
:1036A0009DED000BC1D0012C10D0022C9FED1C0B06
:1036B00053EC102B9DED000B51EC100B0DD0FCF7D3
:1036C00039FE53EC182BFCF735FEB9E7019880F072
:1036D000004001909DED000BA7E7FCF72BFE53EC9B
:1036E000182BFCF72AFEABE70000F07F000000007B
:1036F000182D4454FB210940182D4454FB2109C0C6
:10370000182D4454FB21F9BF182D4454FB21F93FD7
:10371000622B00000000000000000000000000001C
:10372000075C143326A6A13C30B583B0044600F0F4
:1037300053F99FED090B05468DED000B0022214644
:103740006846FCF74AFF284600F05CF99DED000B47
:1037500003B030BD000000000000000000000000C9
:103760002DED020B019820F0004001909DED000B23
:1037700002B0704710B52DED040B86B09DED060B21
:1037800010EE100A10EE901A8DED000B002818BFF5
:103790000120084320F00040C0F17F6000F1E040CC
:1037A000C00F21D19DED080B10EE101A10EE900AFB
:1037B0008DED000B002918BF0121084320F00040C7
:1037C000C0F17F6000F1E040C00F0DD1294907989A
:1037D000B1EB400F04BF0698002842D00998400082
:1037E00004BF089800283CD09DED080B53EC102B2B
:1037F0009DED060B51EC100BFDF725F8CDE902010C
:103800009DED020B40F2FF7110EE900A8DED000B62
:1038100031EA105021D00798039900F0004001F0E0
:103820000041884219D09DED080B8DED040B9DEDF4
:10383000020B8DED000B10EE900A059961F31E004E
:1038400005909DED041B9DED020B51EC110B53EC0B
:10385000102BFCF772FDCDE902019DED020B0AB0C1
:1038600010BD012000F0CEF80AB0BDE8104000F015
:1038700093B800000000E0FF70B504462DED028B08
:103880004D1E00EBC500B0EE408AF0EE608A90ED70
:10389000000B35F0060017D053EC182B51EC100B31
:1038A000FCF74EFD41EC100B6D1E04EBC50090EDD6
:1038B000001B51EC100B53EC112BFCF79AFC41EC64
:1038C000100B35F00600E7D1022D36D0042D1CD0A8
:1038D000062D1CBFBDEC028B70BD53EC182B51ECB8
:1038E000100BFCF72DFD94ED0A1B53EC112BFCF78C
:1038F00080FC53EC182BFCF723FD94ED081B53ECD4
:10390000112BFCF776FC41EC100B53EC182B51EC0F
:10391000100BFCF715FD94ED061B53EC112BFCF777
:1039200068FC53EC182BFCF70BFD94ED040B53ECE7
:10393000102BFCF75EFC41EC100B53EC182B51ECF8
:10394000100BFCF7FDFC94ED021B53EC112BFCF764
:1039500050FC53EC182BFCF7F3FC94ED001B53ECDC
:10396000112BFCF746FCBDEC028B41EC100B70BD3B
:1039700010B553EC102B51EC100BFCF73AFC41EC5A
:10398000100B10BD10B553EC112B51EC100BFCF7C4
:1039900030FC41EC100B10BD9FED050B10B553EC46
:1039A000102B51EC100BFCF7DFFE41EC100B10BD9F
:1039B00000000000000000009FED050B10B553EC67
:1039C000102B51EC100BFCF7BBFC41EC100B10BDA5
:1039D000000000000000001001480068704700006F
:1039E000D000002002E008C8121F08C1002AFAD146
:1039F00070477047002001E001C1121F002AFBD16F
:103A0000704700000149086070470000D0000020A6
:103A100010B52DED028BF0EE408A9FED0E0A38EEC8
:103A2000800AB0EE408A9FED0C0AB4EEC08AF1EE37
:103A300010FA04DD9FED080A38EE400A01E0B0EE0E
:103A4000480AB0EE408AB0EE480A00F0BFFCBDEC78
:103A5000028B10BDDB0FC93FDB0FC940F0EE400AFF
:103A600000EE100AB8EEC00A20EE800A704700008F
:103A70002DE9FF5F82B00021DDE90430020DDDF8A1
:103A800040B0034318D044F61050A2F2FF32424334
:103A90001514119801281FD0A5EB0B00401C5FEAFC
:103AA000000A4FF000064E4FDFF83891B0465046FE
:103AB00015D5CAF1000413E0119801244AA3012886
:103AC00001D16FEA0B010298119AC0E90031C0E9F7
:103AD000024206B0BDE8F09FCBF10000DFE70446EC
:103AE0000021404A491842EB0450CDE9001012E091
:103AF000E00707D032463B4640464946FCF720FCEB
:103B00008046894632463B4610461946FCF718FC6B
:103B100006460F466410002CEAD1DDE90401DDE918
:103B20000023BAF1000F06DAFCF70AFC42464B46C6
:103B3000FCF706FC05E0FCF717FE42464B46FCF797
:103B400013FE04460E460022284BFCF78FFC03D8D8
:103B50004FF0FF30014607E00022254B204631465A
:103B6000FCF747FBFCF7B2FE102409E0002C0ADB4F
:103B70000A220023FCF7C4FC039B30321A55641E52
:103B800050EA0102F2D1641C039AC4F111031444F7
:103B9000119A012A03D0012208430DD10AE00843FB
:103BA00004D000204FF0110B119072E7A3EB0B052E
:103BB0006D1E0DE05B4504DD4FF0000205F10105CF
:103BC00004E003DA4FF00002A5F10105002AECD071
:103BD00002981199C0E90231C0E9004579E7000077
:103BE000000014400000F03F300000000000F043EF
:103BF0000000E03F30380A2801D201207047002041
:103C00007047000000BF0A4801684FF0E020826959
:103C1000074800688142F6D10648801AA823B0FB05
:103C2000F3F001EB4103C3EBC11300EBC30070479A
:103C3000100000204090020010B52DED068BB0EE74
:103C4000408A18EE100AFCF7FEFB41EC1A0B9FEDC0
:103C5000101BB0EE4A0AF0EE6A0AFFF78BFDB0EED9
:103C6000409AF0EE609A51EC190BFCF717FC08EE45
:103C7000900AF5EEC08AF1EE10FA04DBB0EE680AA5
:103C8000BDEC068B10BD9FED040A38EE800AF7E705
:103C900000000060FB211940DB0FC9402DE9FF4FF8
:103CA00095B09B468946064600250FE2252877D128
:103CB00000242746F84A0121059400E0044316F841
:103CC000013F203B01FA03F01042F7D130782A2857
:103CD00011D06FF02F033078A0F13002092A16D8E6
:103CE000059A44F0020402EB820203EB4202104404
:103CF000761C0590EFE759F8042B0592002A03DAA9
:103D0000504244F40054059044F00204761C30788C
:103D10002E2816D116F8010F44F004042A280DD0DD
:103D20006FF02F023078A0F13003092B09D807EB90
:103D3000870302EB4303C718761CF3E759F8047BAB
:103D4000761C30786C280FD006DC4C2817D06828F9
:103D50000DD06A2814D104E0742810D07A280FD12D
:103D60000DE044F400140AE044F4801401E044F44B
:103D700040147278824202D104F58014761C761CBD
:103D8000307866280BD013DC582877D009DC00285F
:103D900075D04528F6D04628F4D047281AD19DE1A1
:103DA00018E0632835D0642879D0652812D195E1D0
:103DB000702873D008DC6728F1D069286FD06E288E
:103DC0000DD06F2806D1B5E073282CD0752875D09A
:103DD000782874D05A46179990476D1C75E1C4F342
:103DE0000250022809D003280DD0D9F80010042869
:103DF0000DD00D6009F1040967E1D9F80010EA1748
:103E0000C1E90052F6E7D9F800100D80F2E70D7015
:103E1000F0E719F8041B8DF8001000208DF8010060
:103E2000EA46012003E059F804AB4FF0FF30610788
:103E30004FF0000102D40DE008F101018846B942BB
:103E40000FDA8045F8DB1AF808100029F4D108E0F1
:103E500008F1010188468142FADB1AF808100029AE
:103E6000F6D105985B46A0EB080721463846179A1D
:103E700000F094FA284400EB080507E04DE029E142
:103E80000DE01AF8010B5A4617999047B8F101084E
:103E9000F7D25B4621463846179A13E142E00A22E0
:103EA0000092C4F302524FF0000A022A08D059F8D7
:103EB00004CB032A4FEAEC710AD00DE029E02AE096
:103EC00009F1070121F00702F2E802C1914609E079
:103ED0000FFA8CFC4FEAEC71042A03D14FFA8CFCE8
:103EE0004FEAEC71002907DA0A460021DCF1000CE8
:103EF00061EB02012D2202E0220504D52B228DF870
:103F00000420012203E0E20701D02022F7E79046D7
:103F100059E00A2102E010220DE010214FF0000AC2
:103F200000910BE010224FF0000A44F0040408272F
:103F3000009203E008224FF0000A0092C4F30252FC
:103F4000022A05D059F804CB0021032A08D009E041
:103F500009F1070121F00702F2E802C1914605E0EC
:103F60001FFA8CFC042A01D10CF0FF0C4FF0000862
:103F7000220728D5702806D0009B83F0100353EA4F
:103F80000A0305D00EE040228DF80420012208E04B
:103F90005CEA010206D030228DF804208DF805007D
:103FA00002229046009B83F0080353EA0A030AD1D9
:103FB0005CEA010201D1620705D530228DF80420A8
:103FC0004FF001087F1E582804D034A003900EA89B
:103FD00002900DE036A0F9E753466046009AFCF7E0
:103FE0008FFA84460398825C0298401E0290027009
:103FF0005CEA0100F0D1029806A9081A00F1200A33
:10400000600702D524F4803400E00127574502DD23
:10401000A7EB0A0000E0002000EB0A0100900598E1
:104020004144401A0590E00306D45B462146179AA6
:10403000059800F0B3F90544002706E001A85A46A8
:10404000C05D179990476D1C7F1C4745F6DBE00368
:104050000CD55B462146179A059800F09FF9054458
:1040600004E030205A46179990476D1C0099481E6D
:1040700000900029F5DC08E0029802995A46007881
:10408000491C0291179990476D1CBAF10001AAF1E1
:10409000010AF1DC65E1000009280100303132330A
:1040A0003435363738396162636465660000000074
:1040B000303132333435363738394142434445465E
:1040C0000000000000F058F90544761C3078002804
:1040D0007FF4ECAD19B02846BDE8F08F620700D43C
:1040E000062709F1070222F0070CFCE80223E1464B
:1040F00003F000485FEA080C02D00FF2702C0DE0CC
:104100005FEA045C02D50FF2682C07E05FEAC47C2A
:1041100002D00FF2602C01E0AFF2700C4FF0FF38CC
:1041200023F00043CDF850C065280CD006DC4528AC
:1041300009D046281DD047283DD13DE0662818D03B
:1041400067287ED138E00021112F01DB112000E02B
:10415000781CCDE9000106A90EA8FFF789FCDDE96E
:104160000F010E9A03910021009207F1010A0491B8
:104170004DE04FF000400097CDE9011006A90EA8D0
:10418000FFF776FCDDE90F0203920E9B11990022E6
:10419000DDF80CA00093049211B9791C00EB010A20
:1041A000B7EB0A0004D4C0F1FF3007F1010A049014
:1041B000AAEB0700019044E0012F00DA012700215B
:1041C000112F01DD112000E03846CDE9000106A9DC
:1041D0000EA8FFF74DFCDDE90F010E9A03910021B7
:1041E00004910092BA4621070CD40399514500DA94
:1041F0008A46BAF1010F05DD009AAAF10101515C6E
:10420000302908D0B84202DA10F1040F06DA012191
:10421000CDE9011015E0AAF10101E9E7002805DC6C
:10422000049901440491AAEB000102E0411C5145AC
:1042300000DD8A460499401A401C01904FF000406E
:104240000290200704D40198504501DBCDF804808A
:1042500000208DF84F0002980DF14F07B0F1004F8C
:1042600025D02B200E9002984FF0020800280CDA7F
:10427000404202902D200E9007E00A210298FCF7A0
:1042800029F93031029007F8011DB8F10001A8F1B9
:104290000108F2DC02980028EFD1791E0E98087010
:1042A000307800F0200040F0450007F8020D12A819
:1042B000C01B00F107081498007800B1012000EB42
:1042C0000A01019801EBE07105984144401A401E33
:1042D0000590E00306D45B462146179A059800F046
:1042E0005DF805441498007818B15A46179990471C
:1042F0006D1CE00324D55B462146179A059800F013
:104300004DF805441CE00498002807DBDDE90301B3
:10431000884203DD0098405C179901E0179930202E
:104320005A469047049805F10105401C04900198F5
:10433000401E019004D12E205A46179990476D1CBB
:10434000BAF10001AAF1010ADDDC05E017F8010B62
:104350005A46179990476D1CB8F10001A8F1010861
:10436000F4DC5B462146179A0598ABE62D00000069
:104370002B000000200000002DE9F041044600253C
:104380001E461746880404D405E039462020B0476D
:104390006D1C641EF9D52846BDE8F0812DE9F04179
:1043A000044600251E469046C80301D5302700E08C
:1043B0002027880404D505E041463846B0476D1CE7
:1043C000641EF9D52846BDE8F081000010B52DED3A
:1043D000068BB0EE408A9FED660AB4EEC08AF1EE1D
:1043E00010FA2BD29FED630A28EE000AB5EEC00A40
:1043F000F1EE10FA0ADBDFED5F0AB6EE000A00EE1E
:10440000880ABDEEC00A10EE100A09E0DFED590A75
:10441000B6EE000A10EE880ABDEEC00A10EE100AD1
:10442000554951F8200000EE100AB8EEC00ADFED41
:10443000530A20EE200ABDEC068B10BD9FED500AFA
:10444000B4EEC08AF1EE10FA33D29FED4A0A28EE9C
:10445000000AB5EEC00AF1EE10FA0ADBDFED450AFC
:10446000B6EE000A00EE880ABDEEC00A10EE101A81
:1044700009E0DFED400AB6EE000A10EE880ABDEE54
:10448000C00A10EE101AC1F5C7713B4A52F821005C
:10449000FBF7C8FF41EC1A0B9FED3A0B53EC102BC6
:1044A000FBF74EFF41EC190BFBF7F8FF00EE100A8B
:1044B000C1E79FED360AB4EEC08AF1EE10FA2BD2B6
:1044C0009FED2C0A28EE000AB5EEC00AF1EE10FAB4
:1044D0000ADBDFED280AB6EE000A00EE880ABDEE20
:1044E000C00A10EE100A09E0DFED220AB6EE000A5B
:1044F00010EE880ABDEEC00A10EE100AA0F5C770D3
:104500001D4951F8200000EE100AB8EEC00ADFED98
:10451000200A20EE200A8EE79FED160A28EE000AF8
:10452000B5EEC00AF1EE10FA0ADBDFED120AB6EEC4
:10453000000A00EE880ABDEEC00A10EE100A09E07B
:10454000DFED0C0AB6EE000A10EE880ABDEEC00AD6
:1045500010EE100AC0F54770074951F8200000EE30
:10456000100AB8EEC00ADFED0A0A20EE200A62E760
:10457000DB0FC93FE65FFD42B05D000817B7D138D9
:10458000DB0F49402D431CEBE2361A3FE4CB96404B
:1045900017B7D1B80A68531C0B6010707047000041
:1045A000F0EE400AB0EE601A11EE100A0349A1EBDA
:1045B000600001EE100A20EE810A7047865A375FCC
:1045C00070B52DED028B3BA0FEF70CFE00203F499D
:1045D0000860002527E000241CE000EE104AB8EE39
:1045E000400ADFED3B0A20EE200ADFED3A0A80EEBA
:1045F000201A9FED390A31EE008AB0EE481ADFED3D
:10460000370A374890ED000A01F0D6F9022000F091
:104610002DFC641CB4F5FA7FDFD92C480068012812
:1046200000D102E06D1C0F2DD5D300BF00241EE089
:1046300000EE104AB8EE400ADFED250A20EE200A0F
:10464000DFED240A80EE201A9FED230A31EE000AE6
:10465000B0EE408AB0EE481ADFED200A204890ED17
:10466000000A01F0A9F9022000F000FC641CB4F576
:10467000FA7FDDD99FED191ADFED180A9FED170AB1
:1046800001F09AF94FF4FA7000F0F0FB0F4800685F
:1046900038B914A0FEF7A6FD00211948FEF706F967
:1046A00002E018A0FEF79EFD08480068BDEC028BF2
:1046B00070BD00004D4F543A20496E6465782073F8
:1046C00065617263682E2E2E0D0A000064000020C2
:1046D000DB0FC9400000FA43E4CB96400000000025
:1046E0004C0000204D4F543A204572726F723A20B0
:1046F0004E6F7420666F756E64210D0A0000000015
:10470000000001404D4F543A205375636365737345
:10471000210D0A0070B52DED088B0125A9A0FEF72B
:1047200061FDAE480068012802D1FFF749FF054648
:104730001DB90020BDEC088B70BDA9480068002899
:104740007ED100241CE000EE104AB8EEC00ADFED76
:10475000A50A20EE200ADFEDA40A80EE201A9FEDC4
:10476000A30A71EE009AB0EE691ADFEDA10AA14822
:1047700090ED000A01F020F9022000F077FB641CA4
:10478000B4F5FA7FDFDD00F0C9FBB0EE408A4FF4EC
:10479000FA741EE000EE104AB8EEC00ADFED910A8E
:1047A00020EE200A9FED901AC0EE010A9FED8F0ABD
:1047B00030EE800AF0EE409AB0EE691ADFED8C0A16
:1047C0008C4890ED000A01F0F7F8022000F04EFB53
:1047D000641E002CDEDA00F0A1FBF0EE408A9FEDB3
:1047E000841ADFED830A9FED820A01F0E5F8C82004
:1047F00000F03CFB18EE100AFBF725FE41EC1A0B0B
:1048000053EC1A2B7CA0FEF7EDFC18EE900AFBF798
:104810001AFE41EC1A0B53EC1A2B7CA0FEF7E2FCBB
:1048200038EE680A10EE101A0846FBF70CFE41EC51
:104830001B0BB0EE4B0AF0EE6B0AFEF791FF00E0A7
:1048400070E0B0EE40AAF0EE60AA51EC1A0BFBF754
:1048500025FE09EE100AB4EE688AF1EE10FA06D0D1
:104860009FED6F0AB4EEC09AF1EE10FA08D26DA077
:10487000FEF7B8FC00217648FEF718F8002059E74B
:10488000B4EEE88AF1EE10FA07D272A0FEF7AAFCA5
:104890004FF0FF305249086005E076A0FEF7A2FC19
:1048A00001204F4908607AA0FEF79CFC7C4890EDFF
:1048B000000AF8EEC00A9FED4B0A19EE200A10EE2E
:1048C000101A0846FBF7BFFD41EC1B0BB0EE4B0A7C
:1048D000F0EE6B0AFEF744FFB0EE40AAF0EE60AADD
:1048E0009FED700B53EC102B51EC1A0BFBF7BEFD38
:1048F00014D26EA0FEF776FCDFED3A0A80EE890A4C
:10490000F6EE000A30EE200ABDEEC00A644880EDE3
:10491000000A01686BA0FEF765FC06E06BA0FEF7DD
:1049200061FC02E06BA0FEF75DFC704890ED000AB0
:10493000B5EEC00AF1EE10FA3FD19FED2C1ADFED73
:104940002C0A2C4890ED000A01F036F84FF42F7035
:1049500000F08CFA00F0E2FA2148D0ED000AF8EEFF
:10496000E00A20EE200AF0EE40AA4D480068FFF76A
:1049700075F8B0EE40AAFFF75FF95C4880ED000AD9
:10498000142000F073FA5AA0FEF72CFC5748006878
:10499000FBF759FD41EC1A0B53EC1A2B5AA0FEF70A
:1049A00021FC9FED131ADFED120A9FED110A01F0B1
:1049B00003F8C82000F05AFA02E055A0FEF712FCF6
:1049C0000120B7E64D4F543A20416C69676E207361
:1049D000656E736F722E0D0A0000000060000020EB
:1049E00040000020DB0FC9400000FA43E4CB9640B2
:1049F000000000004C0000206D69645F616E676C10
:104A0000653D252E34660D0A00000000656E645F6A
:104A1000616E676C653D252E34660D0A000000004E
:104A20000AD7233C4D4F543A204661696C65642097
:104A3000746F206E6F74696365206D6F76656D6548
:104A40006E74206C6F6F703232322E0D0A000000CF
:104A5000000001404D4F543A2073656E736F725FD2
:104A6000646972656374696F6E3D3D4343570D0A17
:104A7000000000004D4F543A2073656E736F725FF3
:104A8000646972656374696F6E3D3D43570D0A003A
:104A90004D4F543A20505020636865636B3A2000B4
:104AA00050000020000000000000E03F6661696CDB
:104AB000202D20657374696D617465642070703A8F
:104AC0000000000025640D0A000000004F4B210D7E
:104AD0000A0000004D4F543A20536B6970206469FE
:104AE000722063616C69622E0D0A0000980000203C
:104AF0004D4F543A205A65726F20656C65632E20C5
:104B0000616E676C653A0000252E34660D0A000060
:104B10004D4F543A20536B6970206F66667365740D
:104B20002063616C69622E0D0A00000010B52DED46
:104B30000A8BB0EE408AFFF765F804464C480068DF
:104B4000201A00EE100AB8EE400ADFED4A0A20EE05
:104B5000200AF0EE408AF5EEC08AF1EE10FA06D98E
:104B6000B6EE000AF4EEC08AF1EE10FA03DD9FED16
:104B7000420AF0EE408A3E480460404890ED000A48
:104B800020EE280A10EE101A0846FBF75CFC41ECF8
:104B90001A0B3B4890ED000A38EE400A10EE101A4E
:104BA0000846FBF750FC41EC1C0BB0EE4C0AF0EE53
:104BB0006C0AFEF7D5FDB0EE40BAF0EE60BA53ECE9
:104BC0001A2B51EC1B0BFBF751FC30D22C4890ED0B
:104BD000000A38EE400AB5EEC00AF1EE10FA02D231
:104BE0004FF0FF300CE0264890ED000A38EE400A06
:104BF000B5EEC00AF1EE10FA01DD012000E0002060
:104C000000EE100AB8EEC00A1C48D0ED000A60EEB3
:104C1000200A1B4890ED000A00EEA80A80ED000A69
:104C2000164890ED000A174880ED000A07E0144886
:104C300080ED008A9FED140A124880ED000A1348A7
:104C400090ED009A124800680D4991ED000AFEF7B8
:104C500005FFF0EE409AB0EE691ADFED0B0AB0EEF8
:104C6000490A00F0A9FEB0EE490ABDEC0A8B10BD5E
:104C700054000020BD3786356F12833A580000205B
:104C80006800002070000020000000004C000020A0
:104C90005000002010B541EC100BFEF7E1FA51EC8A
:104CA000100B10BD10B52DED028B56480068012881
:104CB0007DD100205349086053480078502832D0F5
:104CC00006DC412874D0482807D049280CD14CE094
:104CD00054280AD05628F9D16BE04CA14F48FEF772
:104CE00091FA0446FEF71EF983E04748401CFEF7A0
:104CF0001BFDB0EE408AF0EE608A51EC180BFBF71A
:104D0000CDFB4749086008460068FBF79CFB41EC77
:104D1000180B53EC182B43A14048FEF773FA0446D6
:104D2000FEF700F965E03848401CFEF7FDFCB0EEE8
:104D3000408AF0EE608A51EC180BFBF7AFFB3C4960
:104D40000860084690ED000A10EE101A0846FBF7BE
:104D50007AFB41EC180B53EC182B36A12F48FEF7C9
:104D600051FA0446FEF7DEF843E02748401CFEF700
:104D7000DBFCB0EE408AF0EE608A51EC180BFBF7DA
:104D80008DFB2B494860084690ED010A10EE101A81
:104D90000846FBF758FB41EC180B53EC182B28A1E5
:104DA0001E48FEF72FFA0446FEF7BCF821E025E086
:104DB0000FE026480068FBF746FB41EC180B53EC6C
:104DC000182B23A11548FEF71DFA0446FEF7AAF892
:104DD0000FE022480068FBF736FB41EC180B53EC60
:104DE000182B1FA10D48FEF70DFA0446FEF79AF89E
:104DF00000BF00BF10210448FBF7E9F9BDEC028BAE
:104E000010BD000018000020D401002048656C6C23
:104E10006F20576F726C64210D0A0000D4000020CF
:104E2000C800002052583D252E32660D0A000000B1
:104E300080030020503D252E32660D0A0000000040
:104E4000493D252E32660D0A00000000700000204A
:104E500056656C3D252E32660D0A00006800002064
:104E6000416E673D252E32660D0A0000F0B50646FC
:104E7000FEF7C8FE054600BFFEF7C4FE0446AC427E
:104E800001D3671B02E0C5F1FF30071906EB4600AE
:104E9000C0EBC610B7EBC00FEED3F0BD00BF011ED4
:104EA000A0F10100FBD1704710B50B48D0ED000A0E
:104EB0000A4890ED001A30EE811A0948D0ED000A38
:104EC000F8EEE01A0748D0ED000A51EE210AB0EEE4
:104ED000600AFEF7B1FE10BD6800002094000020BB
:104EE000500000209800002082B0CDE9000121F0A0
:104EF000004001909DED000B02B051EC100B70478B
:104F000000BF054A128802F04002002AF9D0C2B25E
:104F1000014B1B1D1A8070470044004070B500F023
:104F200069FA044635480068251A281E01DB014647
:104F300000E0414200EE101AF8EEC00A304991ED4F
:104F4000000AB8EEC00A9FED2F1A20EE010AF4EE17
:104F5000C00AF1EE10FA0DDD002D02DD9FED2A0AE8
:104F600001E09FED2A0A2A48D0ED000A30EE200A1F
:104F700080ED000A21480460254890ED000ADFED2D
:104F8000250AB4EEE00AF1EE10FA0CDB9FED220ADE
:104F900080ED000A214890ED000ADFED1E0A30EE98
:104FA000600A80ED000A1A4890ED000ADFED1C0A45
:104FB000B4EEE00AF1EE10FA0CD89FED170A80ED7E
:104FC000000A164890ED000ADFED120A30EE200AC2
:104FD00080ED000A00EE104AB8EEC01A084890EDC5
:104FE000000AB8EEC00AC1EE000A094890ED000AB6
:104FF0009FED061A00EE810A70BD0000340000200B
:105000002C000020CDCC4C3FDB0FC9C0DB0FC940CA
:105010003C0000207C59444600000000380000207D
:105020007C5944C600B52DED068B83B0B0EE409A96
:10503000B7EE000AF0EE409A00F072F98DED000A2A
:10504000CDED010A8DED021A9DED020AB5EEC00A02
:10505000F1EE10FA0FD19DED008A9DED000ADFED13
:10506000520A20EE200ADDED010A9FED501AF0EE03
:10507000408A41EE208A9DED000AB5EEC00AF1EEAD
:1050800010FA18D1DDED020AF1EE600A9DED011A69
:1050900070EEC10AB0EE600AB0EE408ADFED420A5F
:1050A00060EE200A9DED011ADFED401A41EE810A03
:1050B000F0EE608A00BF9DED010AB5EEC00AF1EE88
:1050C00010FA1AD1DDED000AF1EE600A9DED021A28
:1050D00070EEC10AB0EE600ADDED000AB0EE608A43
:1050E000DDED000A9FED301A60EE810A9FED2F1A68
:1050F00041EE000AF0EE608A28E0DDED001A9DED39
:10510000012A71EE821A9DED022A71EE821A9FED3C
:10511000282A61EE821AB0EE610ADDED001A71EE06
:10512000C01AF0EE610ADDED011A71EEC01AB0EEA0
:10513000611AB0EE608ADFED1C1A60EEA11A9FEDD5
:105140001B2A42EE011AF0EE618A00BFB5EEC09A4A
:10515000F1EE10FA1AD0B0EE490AFEF759FC20EE33
:1051600028AAB0EE490AFFF731F908EE40AAB5EED9
:10517000C0AAF1EE10FA01DD012001E04FF0FF308E
:1051800000EE100AB8EEC00AF0EE409A68EE080A87
:1051900048EEA80AB0EE600AFFF702FA20EE290AEC
:1051A00003B0BDEC068B00BD3ACD133F3ACD933F23
:1051B000ABAAAA3E00B52DED068B85B0B0EE40AA95
:1051C00000F0AEF88DED020ACDED030A8DED041A64
:1051D0009DED040AB5EEC00AF1EE10FA0FD19DED77
:1051E000028A9DED020ADFED4B0A20EE200ADDED7A
:1051F000030A9FED491AF0EE408A41EE208A9DEDA8
:10520000020AB5EEC00AF1EE10FA18D1DDED040A7B
:10521000F1EE600A9DED031A70EEC10AB0EE600A6D
:10522000B0EE408ADFED3B0A60EE200A9DED031AE6
:10523000DFED391A41EE810AF0EE608A00BF9DED84
:10524000030AB5EEC00AF1EE10FA1AD1DDED020A3A
:10525000F1EE600A9DED041A70EEC10AB0EE600A2C
:10526000DDED020AB0EE608ADDED020A9FED291A3B
:1052700060EE810A9FED281A41EE000AF0EE608A86
:1052800028E0DDED021A9DED032A71EE821A9DEDF4
:10529000042A71EE821A9FED212A61EE821AB0EE85
:1052A000610ADDED021A71EEC01AF0EE610ADDED61
:1052B000031A71EEC01AB0EE611AB0EE608ADFED2B
:1052C000151A60EEA11A9FED142A42EE011AF0EEB3
:1052D000618A00BFB0EE4A0AFEF79AFBB0EE409A30
:1052E000B0EE4A0AFFF772F8F0EE409A28EE090A8B
:1052F00008EEA90A8DED000A28EE890A08EE690A6F
:105300008DED010A9DED000ADDED010A05B0BDEC51
:10531000068B00BD3ACD133F3ACD933FABAAAA3ED0
:105320000EB5264800682649884202D19FED250A1D
:105330000CE0254890ED000A2448D0ED000A30EE3C
:10534000600A2348D0ED000A20EE200A8DED000A05
:10535000204800681A49884202D19FED1A0A0CE0E1
:105360001D4890ED000A1D48D0ED000A30EE600A9D
:105370001B48D0ED000A20EE200A8DED010A1948E5
:1053800000680F49884202D19FED0E0A0CE01648D2
:1053900090ED000A1548D0ED000A30EE600A14487E
:1053A000D0ED000A20EE200A8DED020A9DED000AE4
:1053B000DDED010A9DED021A0EBD00009C000020EB
:1053C000C7CFFFFF0000000020000020B400002035
:1053D000A8000020A000002024000020B800002029
:1053E000AC000020A400002028000020BC00002009
:1053F000B000002010B5FDF78BF8C0F30B04204679
:1054000010BD000010B52DED048BFEF7FBFB04462C
:1054100018480068201A00EE100AB8EEC00ADFED46
:10542000160A20EE200AB0EE408AB5EEC08AF1EEF0
:1054300010FA06D9B6EE000AB4EEC08AF1EE10FA00
:1054400003DD9FED0E0AB0EE408AFFF767FDF0EE38
:10545000408A0B4890ED000A38EEC00A80EE089AA8
:10546000C0ED008A03480460B0EE490ABDEC048B2D
:1054700010BD000030000020BD3786356F12833A22
:105480003800002010B549480078042803D0474868
:105490000078032800D110BD00F0DAFB444880ED0D
:1054A000000AFFF701FD434880ED000A42480078FA
:1054B00020B1012803D0022862D126E064E03D48F3
:1054C00090ED000AFFF7AEFD3C4880ED010AD0EDFB
:1054D000010AB0EE600A3A48FCF76EFC374880EDEE
:1054E000010AD0ED010A374890ED001A71EE600A0A
:1054F000B0EE600A3448FCF787FE344880ED010ABC
:105500009FED330A80ED000A3EE02A4890ED000A44
:10551000FFF750FE294880ED000AC0ED010AD0EDEA
:10552000010AB0EE600A2648FCF746FC234880EDED
:10553000010AD0ED000AB0EE600A2648FCF73CFCF8
:105540001E4880ED000AD0ED010A1E4890ED001AB9
:1055500071EE600AB0EE600A1B48FCF755FE1B486E
:1055600080ED010A1548D0ED000AF1EE600AB0EEB8
:10557000600A1948FCF748FE144880ED000A03E071
:1055800016A0FDF72FFE00BF00BF104890ED001AD7
:10559000F0EE410A90ED011AB0EE410A054890ED97
:1055A000001A00F009FA00BF75E700009100002022
:1055B000680000206C00002090000020880000207F
:1055C0001403002074000020380300208000002015
:1055D00000000000200300205C0300204D4F543ADF
:1055E000206E6F20746F7271756520636F6E7472B8
:1055F0006F6C2073656C6563746564210000000046
:105600002DED068B84B0FCF7D5F94FF4E130FDF7B2
:10561000BBFBFDF771F800F047FBC820FFF726FC45
:10562000FCF758FC0B220A216348F3EE040A9FEDB5
:10563000630AFCF70FFCFCF737FCFCF789FBFCF76F
:1056400051FDB2EE080A5E4880ED000A0068FAF7E4
:10565000FAFE41EC180B53EC182B5AA0FDF7C2FDD3
:10566000574890ED000AF0EE000A80EE201A5848E4
:1056700080ED001A072057490860B0EE0C0A564822
:1056800080ED000A9FED550A554880ED000A9FED18
:10569000550A554880ED000A0220544908705449C3
:1056A00008709FED540A544880ED000AB7EE000AD6
:1056B00080ED010AB3EE040A504880ED000A9FED28
:1056C000500A4D4880ED030A9FED4E0A4E4880ED8A
:1056D000000A9FED4E0A4E4880ED000A00204D4919
:1056E000086008460068012801D1FCF7D9F8FCF7EA
:1056F00027FC00209FED450AFCF772FC46A0FDF751
:1057000071FD57E0FFF70CFE474880ED000AC0ED41
:10571000010A80ED021A00F0D3FA444909680844EE
:1057200042490860084600684149884239D3002050
:105730003E4908603F48006880F004003D49086029
:10574000394890ED020A10EE101A0846FAF77BFE6F
:1057500041EC180B344890ED010A10EE101A08467F
:10576000FAF771FE41EC190B2F4890ED000A10EE8C
:10577000101A0846FAF767FE41EC1A0B8DED028B02
:105780008DED009B53EC1A2B2BA13648FDF73AFD0B
:105790003448FAF727FD3449086008460068FDF7E9
:1057A000C1FB1B4890ED000A00F060F8FFF76AFEAD
:1057B000FFF778FAA6E70000C7CFFFFF6F12833A22
:1057C00044000020766275733D252E32660D0A0076
:1057D00048000020500000204C0000202DB2DD4089
:1057E00058000020000048425C000020900000208B
:1057F000910000208FC2F53D80030020A40300200B
:105800000000C8420AD7233C2C03002000000000FF
:10581000C8000020600000204D6F746F7220726518
:105820006164792E0D0A0000C8030020C400002026
:1058300040420F00140C024043757272656E743D55
:10584000252E32662C43757272656E743D252E329C
:10585000662C43757272656E743D252E32660D0A94
:1058600000000000D4000020CC00002010B52DED79
:10587000028BB0EE408A00F0FFF9444880ED000A48
:105880004348007805287CD2DFE800F0033D0E5D38
:105890006C004048007818B93F4880ED018A02E06A
:1058A0003E4880ED008A6CE03D4880ED008AD0EDF6
:1058B000000A3C4890ED001A70EEC10AB0EE600A92
:1058C0003948FCF7A1FC394880ED000AD0ED000A08
:1058D0002E4890ED001A70EEC10AB0EE600A34480E
:1058E000FCF792FC2D4880ED000A2A48007848B960
:1058F0002A4890ED000A284880ED010A9FED2D0A04
:1059000080ED000A3DE0294880ED008AD0ED000AD4
:105910001E4890ED001A70EEC10AB0EE600A2448ED
:10592000FCF772FC1D4880ED000A1A48007848B95F
:105930001A4890ED000A184880ED010A9FED1D0AF3
:1059400080ED000A1DE0194880ED008A90ED000A04
:1059500000F0CEF9104880ED010A9FED160A80EDA7
:10596000000A0EE00E4880ED008A90ED000AFFF775
:10597000DDF8094880ED010A9FED0E0A80ED000A6E
:1059800000BF00BFBDEC028B10BD00007000002006
:105990009100002090000020800000207400002072
:1059A0007C00002068000020A40300207800002074
:1059B000800300200000000010B52DED108B86B094
:1059C000F0EE40EAB0EE60FAB0EE41EAB5EEC0FAB1
:1059D000F1EE10FA38D06FEE0F0A4EEEAE0AB0EECE
:1059E000600AFEF7DDFD9348D0ED000AC0EE20FA14
:1059F0001FEE100AFAF727FDCDE902011EEE900A0C
:105A0000FAF721FDCDE900019DED021B9DED000B94
:105A1000FDF792FDB0EE40CAF0EE60CA1EEE100A2D
:105A2000FAF711FD41EC1D0B53EC1C2BFAF7E1FBCF
:105A300041EC1B0BFAF732FD04909DED040AFEF7D2
:105A4000FBF8B0EE40EA0EE07A4890ED000ACEEEA8
:105A500080FADFED790A7EEE200AB0EE600AFEF7EA
:105A6000EBF8B0EE40EADFED750A8EEE200AF7EEB5
:105A7000000A30EE200ABCEEC00A10EE104A00EE1A
:105A8000904AB8EE601ADFED6D1AF0EE4E0A51EE54
:105A9000210AB0EE600AFEF799FCDFED690A20EEFC
:105AA000200A60EE2F8A00EE904AF8EE600AB7EE08
:105AB000001A30EEC11ADFED611AF0EE4E0A41EE27
:105AC000610AB0EE600AFEF781FCDFED5D0A20EEB0
:105AD000200A20EE2F9AB7EE000A30EE680A30EE68
