:020000040800F2
:10000000280900209D010008A5010008A70100089B
:10001000A9010008AB010008AD01000800000000C4
:10002000000000000000000000000000AF01000818
:10003000B101000800000000B30100080D2C000809
:10004000B7010008B7010008B7010008B7010008B0
:10005000B7010008B7010008B7010008B7010008A0
:10006000B7010008B7010008B7010008B701000890
:10007000B7010008B7010008B7010008B701000880
:10008000B701000889150008C9100008B701000869
:10009000B7010008B7010008B701000805190008FA
:1000A000B7010008B7010008B7010008B701000850
:1000B000B7010008B7010008B7010008B701000840
:1000C000B7010008B7010008B7010008B701000830
:1000D000B7010008B70100084D340008B701000857
:1000E000CD180008B7010008B7010008B7010008E3
:1000F000B7010008B7010008B7010008B701000800
:10010000B7010008B7010008B7010008B7010008EF
:10011000B7010008B7010008B7010008B7010008DF
:10012000B1150008B7010008B7010008B7010008C1
:10013000B7010008B7010008B7010008B7010008BF
:10014000B7010008B7010008B7010008B7010008AF
:10015000B7010008B7010008B7010008B70100089F
:10016000B7010008B7010008B7010008B70100088F
:10017000B7010008B7010008B7010008B70100087F
:10018000B7010008B7010008DFF80CD000F0A6FBAB
:1001900000480047755E000828090020064880478F
:1001A00006480047FEE7FEE7FEE7FEE7FEE7FEE75C
:1001B000FEE7FEE7FEE7FEE71D2C000889010008C8
:1001C000D2B201E000F8012B491EFBD27047002299
:1001D000F6E710B513460A4604461946FFF7F0FF46
:1001E000204610BD421C10F8011B0029FBD1801ACB
:1001F0007047034611F8012B00F8012B002AF9D1B2
:10020000184670472DE9FE4F804681EA0300C00F73
:100210000C46009021F0004123F00045B8EB0200AD
:10022000A94105D24046214690461C460B4602464F
:1002300023F00040104347D0270DC7F30A00C3F353
:100240000A510290401A019040286BDAC3F3130060
:1002500040F4801B0098924620B10023D2EB030AA1
:1002600063EB0B0B01985946C0F14002504600F079
:1002700082F906460D4650465946019A00F08AF921
:1002800010EB08006141002487EA115284EAE77309
:100290001A4340D0009A62B3019A012A4FEA0752EA
:1002A00015DC001B61EB02014FF0004202EA07522D
:1002B000CDE90042001C41F5801132462B4600F08A
:1002C00038FA03B0BDE8F08F40462146F9E7001B3D
:1002D00061EB0201001C41F5801300185B412018FE
:1002E000A2F5001747EB030140EAD570B6196D413E
:1002F00011E06D084FEA360645EAC0754FEA07522D
:10030000001B61EB0201001C41F5801149084FEA16
:1003100030000019514132462B4603B0BDE8F04F82
:1003200000F0F8B90098012240000023D0EB02024F
:1003300063EBE073009821464FEAE074B8EB0000ED
:1003400061EB0401E9E783F000435BE781F00041E2
:1003500058E72DE9FE4F81EA030404F0004421F040
:10036000004100944FF0000B23F0004350EA0104D9
:100370005ED052EA03045BD0C3F30A54C1F30A55BA
:100380002C44A4F2F3340194A0FB0254C1F31301F2
:1003900041F48011C3F3130343F4801301FB0244BF
:1003A00000FB034E840A970A44EA815447EA8357C4
:1003B000A4FB076802958D0A05FB07854FEA932C7D
:1003C00004FB0C542705029D4FEA065847EA1637EE
:1003D000B5EB08056EEB070C870E920E47EA811706
:1003E00042EA8312A7FB0201B6EB0B0164EB0004A7
:1003F0002B0D43EA0C335E1844EB1C50DA46514691
:10040000E7FB0201C5F313044FEA0B3343EA14532D
:100410004FEA0432019C43EA0603A4F10C0402945F
:10042000009CCDE900B400F084F903B0BDE8F08F82
:1004300000200146F9E70EB5C10F80EAE0700844DC
:10044000CA07002140F233438DE80E000A460B46EE
:1004500000F06FF903B000BD00F0004230F0004042
:100460000AD0C10D01F56071C0F3160042EA0151D6
:10047000C208400711437047002001467047000042
:1004800030B5041E71F1000404DB4FF0004440421B
:1004900064EB0101141E73F1000405DB1C464FF0F0
:1004A0000043524263EB0403994208BF904230BDBF
:1004B00001F0004330B421F0004150EA010206D0BF
:1004C0000A0DA2F56072C1F31301002A02DC30BCF0
:1004D00000207047440F44EAC104C100E01830BC5A
:1004E00000EBC25000F0B6B830B50B460146002014
:1004F0002022012409E021FA02F59D4205D303FAE6
:1005000002F5491B04FA02F52844151EA2F1010266
:10051000F1DC30BD2DE9F05F0546002092469B4698
:1005200088460646814640241BE028464146474609
:10053000224600F0E5F953465A46C01A914110D3BD
:1005400011461846224600F016F82D1A67EB0108EE
:100550004F4622460120002100F00DF817EB00095C
:100560004E41201EA4F10104DFDC484631462A46F4
:100570004346BDE8F09F202A04DB203A00FA02F14E
:10058000002070479140C2F1200320FA03F3194381
:1005900090407047202A06DBCB17203A41FA02F040
:1005A00043EAE07306E041FA02F3D040C2F12002D0
:1005B00091400843194670470FB4002300B589B035
:1005C0000CA900910B996FF00042CB601E4B069373
:1005D0001E4B07930423CDE901321D4A08920246BF
:1005E0006B46002000F036FA09B05DF814FB70B5D8
:1005F00086B006464FF0FF300091CDE901010020A2
:1006000015460C4604903246694604A8FFF7D4FF0D
:1006100002460498211825B108B1084600E020469A
:100620002860049800280DD0002A02DD0098884236
:1006300008D0081B0094CDE901043246694604A89D
:10064000FFF7BAFF06B070BD8D0C0008AB0C0008B8
:10065000210900080029A8BF7047401C490008BFB5
:1006600020F00100704710B4B0FA80FC00FA0CF0E2
:1006700050EA010404BF10BC704749B1CCF120041A
:1006800021FA04F411FA0CF118BF012121430843A7
:10069000A3EB0C01CB1D4FEA00614FEA102042BFD3
:1006A000002010BC704700EBC35010440029A4BFC9
:1006B00010BC7047401C490008BF20F0010010BC6E
:1006C0007047F0B400F0004221F0004120F00040FB
:1006D000CE0DC30DC1F3160141F40001C0F31600A5
:1006E0004C42154640F40000761E09E010EB440031
:1006F00002D582F0004240428842F7D840005B1E9B
:10070000B342F9DA18B1F0BC0021FFF7ACBF2846BC
:10071000F0BC704710B5141E73F1000408DA401CD9
:1007200041F1000192185B411A4301D120F0010010
:1007300010BD2DE9F04D92469B4611B1B1FA81F200
:1007400002E0B0FA80F220329046FFF714FF044630
:100750000F4640EA0A0041EA0B0153465A46084355
:1007600013D0114653EA010019D0C8F14002504697
:1007700000F0C6F805460E46504659464246FFF779
:10078000FAFE084305D0012004E020463946BDE8C2
:10079000F08D0020054346EAE0762C4337430A9863
:1007A0006305E40AA0EB08000022FD0A44EA47546E
:1007B0000A3002D500200146E9E701051019694118
:1007C000DDE9084500196941BDE8F04DA2E72DE9D2
:1007D000F04D81EA030404F0004B21F0004514467B
:1007E0004FF0000A23F0004150EA050220D054EAFD
:1007F00001021DD0C5F30A570246C5F31303C1F326
:100800001300C1F30A5640F4801543F48013A7EB9C
:100810000608101BD64608F2FD3873EB050002D31C
:1008200008F1010801E092185B41B8F1000F03DA0A
:1008300000200146BDE8F08D00204FF480110646EF
:1008400084460EE0171B73EB050705D3121B63EB01
:10085000050306434CEA010C49084FEA30009218A0
:100860005B4150EA0107EDD152EA030012D082EA5F
:10087000040083EA0501084305D0101BAB4106D2F2
:100880000122002306E000224FF0004302E06FF057
:10089000010253101AEB06004CEB085110EB0A0052
:1008A00041EB0B01BDE8F04DFFF734BFC1F30A5235
:1008B000C1F3130140F2FF3341F480119A4202DA8E
:1008C00000200146704740F233439A42A2F233427D
:1008D00002DC524200F014B8FFF74DBE064C074D43
:1008E00006E0E06840F0010394E807009847103400
:1008F000AC42F6D3FFF74CFC106B0008306B0008DD
:10090000202A04DB203A21FA02F00021704721FA64
:1009100002F3D040C2F120029140084319467047CB
:10092000C0B24FF4F05100F0D1B900002DE9FF4FF3
:10093000087883B09946FF2805D0491C2D2804D09B
:100940000024002008E000200BE00124F9E700EB80
:10095000800003EB4000491C0B78FF2BF7D104B15A
:10096000404200230293147819461D462D2C01D0D5
:100970002B2C04D1521C2D2C13D000240294AA46F7
:100980001478FF2C0FD00A25A3FB057801FB058105
:100990004FF0000C03FB0C11521CE3194AEB010150
:1009A000EEE70124EAE7814453EA010002D019F599
:1009B000C87F06DA03980021C0E9001107B0BDE83E
:1009C000F08F0025AE4E2F46DFF8B882184600F0B3
:1009D00091F9CDE90001B9F1000002DAC9F1000492
:1009E00000E004460023A74A1AEB030B42EB045A2B
:1009F00012E0E00707D02A46334638464146FFF763
:100A0000A8FC074688462A46334610461946FFF793
:100A1000A0FC05460E466410002CEAD1DDE9000179
:100A2000B9F1000F5A46534606DAFFF7D0FE3A46B0
:100A30004346FFF7CCFE05E0FFF78BFC3A46434602
:100A4000FFF787FC029A0AB181F00041039AC2E9DC
:100A50000001B3E72DE9FF4F1F468DB0D7E90146EE
:100A60004FF0FF382E2045464FF000090B90B96932
:100A70006D1C0E988847396A824688470028F6D14F
:100A8000BAF1FF3F0AD024F4D064002E11DDBAF190
:100A90002B0F08D0BAF12D0F0BD102E0404611B058
:100AA0008DE744F48064B9696D1C0E9888478246CE
:100AB000761E6946600501D52D2000E02B208DF8BB
:100AC000000001F1010B0DF1200809E0B9696D1C6E
:100AD0000E98884782460F9844F40074761E05608D
:100AE000002E02DDBAF1300FF0D00B998A453ED1CD
:100AF00044F0800406E00F99681CA9F1010944F450
:100B000000740860B9696D1C761E0E98884782468D
:100B10003028F0D02BE00B998A4505D1200603D46C
:100B200044F08004761E18E0504603F0CBFB08B377
:100B30000DF11301761E44F400748B4508D2AAF11E
:100B400030000BF8010B200607D5A9F1010003E0E6
:100B5000200602D409F101008146A00502D50F99B3
:100B6000681C0860B9696D1C0E9888478246002E83
:100B7000D1DC53E0002E51DDBAF1650F02D0BAF19D
:100B8000450F4BD1A00549D5B9696D1C24F44074BB
:100B9000761E0E9888478246002E0CDD2B2804D046
:100BA000BAF12D0F07D144F48074B9696D1C0E9809
:100BB00088478246761EE00501D52D2100E02B21D5
:100BC00008F8011BCDF82C8021E00DF12901761EDB
:100BD00044F4007488450CD2AAF1300010F0FF00F4
:100BE00088F8000002D10B99884509D908F101085D
:100BF00006E0E00501D5244801E042F20F7081468D
:100C0000B9696D1C0E98884782460F980560002EC2
:100C100004DD504603F056FB0028D6D1F9690E9842
:100C20008847FF208BF8000088F80000002006901D
:100C300007904B466A4608A906A8FFF777FEA0056D
:100C400002D46FF001002AE714F0240F0AD0E00765
:100C500014D1DDE906123868031D3B600068C0E965
:100C600000120BE0DDE90601FFF722FC0146E00778
:100C700004D13868021D3A600068016028460EE71A
:100C8000000014400000F03FF1D8FFFF426842B17D
:100C9000016811F8013B23B1521EC0E90012184649
:100CA00070470121C160881E704742685AB1C3680D
:100CB000016843B983688B4205D0491E521CC0E9C4
:100CC0000012002070474FF0FF3070477F2801D995
:100CD000002208E0064A02EB5002C007127800D159
:100CE000120902F00F0201209040084070470000F6
:100CF000D06A00080EB540F2334202920022CDE9DC
:100D000000221346FFF715FD03B000BD00B597B0F4
:100D10000121880501F0C0FC0121080201F0ECFC72
:100D200038208DF8580001208DF85B0016A801F0DE
:100D300033FB00200790384808903848099000207D
:100D40000A9004200B9000200C904FF480600D90CE
:100D500040000E9080000F904011109040021190C2
:100D6000002012900120139000201490159007A9E4
:100D70002B4800F07DFD0121294800F063FC102183
:100D8000274800F02BFC01221021254800F052FDDD
:100D90000020019001208DF8080000208DF8090046
:100DA0000390059004208DF8180001A91A484C38CA
:100DB00000F024FA042301220F2117484C3800F0D8
:100DC000C9FA04230222194613484C3800F0C2FA2B
:100DD00004230322052110484C3800F0BBFA0423F9
:100DE0001A4606210C484C3800F0B4FA01210A4892
:100DF0004C3800F042F9012107484C3800F032F934
:100E0000012105484C3800F0D4F803484C3800F074
:100E100007FB17B000BD00004C2001404802002035
:100E20001064024000B587B00121480201F064FC63
:100E3000002001908DF808008DF809004FF08050D7
:100E400003904FF0606004900020059001208DF821
:100E5000180001A9214800F0D1F900211F4800F035
:100E60000CF900211D4800F013F9002301220D2187
:100E70001A4800F06FFA0121184800F05FFA0023C9
:100E800001220A21154800F00DFA0022142113480E
:100E900000F0BCFA4FF48011104800F00CF94FF448
:100EA00080310E4800F0FFF800210C4800F076F881
:100EB00000210A4800F037FA012240F205210748D4
:100EC00000F08CF9012240F20741044800F086F955
:100ED0000121024800F06DF807B000BD002101407B
:100EE00000B587B00121880201F006FC00200190C6
:100EF0008DF808008DF809004FF0805003904FF0F6
:100F0000606004900020059001208DF8180001A970
:100F1000214800F073F900211F4800F0AEF80021CD
:100F20001D4800F0B5F8002301220C211A4800F0FA
:100F300011FA0121184800F001FA002301220B21C7
:100F4000154800F0AFF900221421134800F05EFAB2
:100F50004FF48011104800F0AEF84FF480310E4885
:100F600000F0A1F800210C4800F018F800210A4810
:100F700000F0D9F9012240F20521074800F02EF9CE
:100F8000012240F20741044800F028F901210248FB
:100F900000F00FF807B000BD0022014021B1426807
:100FA00042F48062426003E0426822F48062426060
:100FB000704721B1826842F00102826003E08268DA
:100FC00022F00102826070470021084A1168084A35
:100FD0001140D0E900231A4383681A43C3681A43B7
:100FE0001143044AC2F8041370470000042301406F
:100FF000E030FCFF0020014000B587B00121052052
:1010000001F04AFB0121080201F076FB70200590F7
:1010100003208DF8180005A9104800F071FD2F205D
:10102000059003208DF8180005A90D4800F068FD13
:1010300012208DF8100001208DF8130004A801F093
:10104000ABF9002000904FF4803001900020029016
:1010500003906846FFF7B8FF07B000BD00000240EC
:101060000008024021B1826842F48072826003E08D
:10107000826822F480728260704721B1826842F4F3
:101080000072826003E0826822F40072826070471E
:1010900021B1826842F48062826003E0826822F4B7
:1010A0008062826070470A460021816821F47021C5
:1010B0001143816070470A460021816821F4401184
:1010C00011438160704700003B48006800F0040055
:1010D000042834D13948006800F0040004282ED1D7
:1010E000C043354908603649C1F8000235480088D8
:1010F00000F0100018BB30483C30006800EE100AC9
:10110000B8EE400ADFED300A20EE200ADFED2F0AAC
:1011100080EE201A2E4880ED411A0846D0F83C0295
:1011200000EE100AB8EE400ADFED270A20EE200A92
:10113000DFED260A80EE201A254880ED421A1E486F
:10114000006800F00200022834D11C48006800F05A
:10115000020002282ED1401F174908601849C1F823
:1011600000021C48008800F0100018BB12484C30E8
:10117000006800EE100AB8EE400ADFED130A20EE18
:10118000200ADFED120A80EE201A134880ED411A82
:101190000846D0F84C0200EE100AB8EE400ADFED27
:1011A0000A0A20EE200ADFED090A80EE201A0A481A
:1011B00080ED421A704700000021014000220140EA
:1011C00000200140000001403333534000008045BF
:1011D0008802002000040140D003002010B50B4617
:1011E0000021D9B2012404FA01F11AB144680C4378
:1011F000446002E044688C43446010BD30B5024650
:10120000002000235068104C20400D790C6844EAFF
:1012100005242043506090680C4C2040D1E90354D1
:101220002C438D682C434D7944EA4504204390605B
:10123000D06A20F470000C7D641EE4B2234340EABF
:101240000350D06230BD0000FFFEFFFCFDF7FFC081
:1012500010B5FFF7D1FEFFF759FDFFF7E3FDFFF7EC
:101260003FFE0E48808A40F001000C49888240F21F
:10127000D64048620A48008840F0010008490880CA
:1012800000200749103108600121044801F0A6FE42
:1012900001210348143801F0A1FE10BD00000140F7
:1012A00014040140F0B50446154600200022002633
:1012B000092911DDE068A1F10A0707EB470C0727B0
:1012C00007FA0CF29043A1F10A0707EB470703FA6C
:1012D00007F21043E0600CE0206901EB410C0727A6
:1012E00007FA0CF2904301EB410703FA07F21043AF
:1012F0002061A06BC0F30156EF1C06F1010CA7EBB7
:101300000C0707EB870C1F2707FA0CF29043EF1C22
:1013100006F1010CA7EB0C0707EB870701FA07F2B0
:101320001043A063F0BD21B1426842F48052426094
:1013300003E0426822F480524260704710B50A46CA
:1013400000210023816B21F44011531E41EA035117
:10135000816310BDF0B504460D4600200021092D23
:1013600011DDE068A5F10A0606EB4607072606FA36
:1013700007F18843A5F10A0606EB460603FA06F1D3
:101380000843E0600CE0206905EB4507072606FAF4
:1013900007F1884305EB450603FA06F1084320618F
:1013A000072A0FDA606B561E06EB86071F2606FA21
:1013B00007F18843561E06EB860605FA06F1084338
:1013C000606322E00D2A0FDA206BD61F06EB86073A
:1013D0001F2606FA07F18843D61F06EB860605FA94
:1013E00006F10843206310E0E06AA2F10D0606EB67
:1013F00086071F2606FA07F18843A2F10D0606EBC1
:10140000860605FA06F10843E062F0BD08B5002340
:1014100000930090009B0B440093009B1A6008BD52
:10142000816841F0804181607047000030B52DED4A
:10143000068B85B004469FED450A84ED3D0A9FED7D
:10144000430A84ED3E0A9FED410A84ED3F0A0025E0
:101450002AE03F49D4F8DC00884207D094ED3D0AE9
:10146000D4ED400A30EE200A84ED3D0A3849D4F824
:10147000E000884207D094ED3E0AD4ED410A30EEF8
:10148000200A84ED3E0A3249D4F8E400884207D0AD
:1014900094ED3F0AD4ED420A30EE200A84ED3F0A73
:1014A000012004F03BF96D1CB5F57A7FD1DB2849AA
:1014B000D4F8DC00884207D094ED3D0ADFED250A20
:1014C00080EE201A84ED3D1A2149D4F8E0008842CC
:1014D00007D094ED3E0ADFED1F0A80EE201A84ED5E
:1014E0003E1A1B49D4F8E400884207D094ED3F0A25
:1014F000DFED180A80EE201A84ED3F1A94ED3F0AC2
:1015000010EE101A0846FEF7A7FF41EC180B94EDF9
:101510003E0A10EE101A0846FEF79EFF41EC190B2A
:1015200094ED3D0A10EE101A0846FEF795FF41ECC7
:101530001A0B8DED028B8DED009B53EC1A2B06A040
:1015400002F0E8F905B0BDEC068B30BD00000000EC
:10155000C7CFFFFF00007A446F66667365745F69EA
:10156000613A252E34662C6F66667365745F696216
:101570003A252E34662C6F66667365745F69633A2C
:10158000252E34662E0D0A0010B50749074800F0D5
:101590001FF9012807D10449044800F039F8002157
:1015A000024800F04FF810BD00802020A0600240EB
:1015B00010B50749074800F00BF9012806D1044986
:1015C000044800F025F80448FFF72AFF10BD00008A
:1015D0002080001010640240002001400246094BA8
:1015E0009A4201D2084801E00648103801F0005341
:1015F0001BB1064B0B40C36002E0044B0B40836001
:101600007047000010640240006002407D0F7D0FB3
:101610000246094B9A4201D2084801E006481038B8
:1016200001F000531BB1064B0B40C36002E0044BBA
:101630000B4083607047000010640240006002406D
:101640007D0F7D0F21B1026842F00102026003E0CC
:10165000026822F00102026070470000016821F078
:10166000010101600021016041608160C160016190
:10167000212141614A49884204D13D21484A103A1A
:1016800091608CE046491831884205D14FF474616D
:10169000434A103A916082E041493031884205D195
:1016A0004FF474113E4A103A916078E03C49483159
:1016B000884205D14FF07461394A103A91606EE06A
:1016C00037496031884204D13649354A103AD160F1
:1016D00065E033497831884204D13349304A103AC1
:1016E000D1605CE02E499031884204D12F492C4AC8
:1016F000103AD16053E02A49A831884205D14FF011
:101700003D51274A103AD16049E02949884204D125
:101710003D21274A083A116041E0254918318842A5
:1017200005D14FF47461224A083A116037E020492C
:101730003031884205D14FF474111D4A083A1160C6
:101740002DE01B494831884205D14FF07461184A99
:10175000083A116023E016496031884204D11149EA
:10176000134A121F11601AE011497831884204D1DE
:101770000D490F4A121F116011E00D499031884246
:1017800004D10A490A4A121F116008E00849A83129
:10179000884204D14FF03D51054A121F1160704735
:1017A000106002403D000020400F002000003D205E
:1017B00010640240014600200A6802F001020AB1EA
:1017C000012000E0002070470146486880B2704761
:1017D00070B50246002000240025124EB24201D20C
:1017E000114B01E00F4B103B104E0E4036B11E2640
:1017F00006EAD124166806EA040502E0566906F0F6
:10180000800501F000560EB15C6800E01C68084ECF
:10181000344004EA010616B10DB1012000E00020B9
:1018200070BD000010640240006002403C0F3C0F9D
:101830007D0F7D0F10B501F080034BB122B14369DC
:1018400043F08003436103E0436923F08003436175
:1018500080290BD02AB1036801F01E0423430360E2
:1018600004E0036801F01E04A343036010BD000000
:1018700010B500220268134B1A40CC680B68234352
:101880004C6923438C692343CC6923430C6A23436B
:101890004C6A23438C6A23434C6B23438C6B234356
:1018A0001A430260426922F00702D1E90B34234354
:1018B0001A4342610B6943604B6883608B68C36065
:1018C00010BD00003F801CF04160704710B54FF420
:1018D0000041094800F07FF9012807D1002107489D
:1018E00001F070FD0120064981F82C014FF4004001
:1018F00000F024F810BD000000080240000800407D
:10190000D003002010B54FF40071094800F063F9CE
:10191000012807D10021074801F054FD01200649A4
:1019200081F82C014FF4007000F008F810BD0000A1
:1019300000080240000400408802002001490860BD
:1019400070470000143C014010B586B004460121E8
:10195000042000F0A1FE0121880300F0CDFE94BB1D
:101960004FF40070049000208DF8140003208DF8CF
:10197000150000208DF8170004A92D4800F0C0F8CC
:101980000921022001F0ACF84FF400700190002012
:101990008DF8080008208DF8090001208DF80A0054
:1019A00001A800F047F817208DF80C0000208DF8F2
:1019B0000D0002208DF80E0001208DF80F0003A805
:1019C00000F0EAFC32E0FFE74FF400400490002012
:1019D0008DF8140003208DF8150000208DF81700F5
:1019E00004A9134800F08CF80F21022001F078F8C8
:1019F0004FF40040019000208DF8080008208DF879
:101A0000090001208DF80A0001A800F013F8282031
:101A10008DF80C0000208DF80D0002208DF80E00CE
:101A200001208DF80F0003A800F0B6FC06B010BD31
:101A300000080240002123498279002A3AD00A4650
:101A4000126803689A430B461A600A1D12680368FD
:101A50009A430B1D1A60027911440A6803681A43FD
:101A60000A60184A0832126803689A43154B083313
:101A70001A601A1D126803689A43124B0C331A60DD
:101A80004279102A0ED11A1F126803681A430D4BAF
:101A900008331A601A1D126803681A43094B0C3385
:101AA0001A600DE00749427911440A6803681A4335
:101AB0000A6005E0027911440A6803689A430A60E3
:101AC00070470000003C01401CB501210F2000F0D0
:101AD000E3FD0420009001208DF804008DF807003C
:101AE00000208DF805008DF806006946034800F0D7
:101AF00007F80421014800F077F81CBD000C0240F3
:101B0000F0B50A4600210023002400BF3DE0012576
:101B100005FA01F3156805EA03049C4234D105680F
:101B20004F000326BE40B543056015794E00B54011
:101B30000668354305601579012D02D01579022D0F
:101B400016D185684F000326BE40B54385605579A0
:101B50004E00B540866835438560456801268E4055
:101B6000B5434560456896798E40B6B235434560C9
:101B7000C5684F000326BE40B543C560D5794E0009
:101B8000B540C6683543C560491C1029BFD3F0BDB8
:101B9000F0B5002300244D07ED0E02FA05F3CE1038
:101BA00000F1200555F826504E07F70E0F26BE40CF
:101BB000B543CF1000F1200646F82750CE1000F1B3
:101BC000200555F8265045EA0304CE1000F1200503
:101BD00045F82640F0BD0246002013690B400BB1CA
:101BE000012000E000207047418370470183704767
:101BF0001CB504460121022000F04EFDACB9302096
:101C0000009001208DF804008DF8070003208DF866
:101C1000050000208DF8060069460F48FFF770FFA9
:101C200030210D48FFF7E2FF14E0C02000900120B2
:101C30008DF804008DF8070003208DF805000020C2
:101C40008DF8060069460448FFF75AFFC021024894
:101C5000FFF7CCFF1CBD00000004024010B51021AE
:101C60000A48FFF7C1FF20210848FFF7BDFF1020F9
:101C700003F06CFD10210548FFF7B8FF102003F0BA
:101C800065FD10210148FFF7AFFF10BD00040240C1
:101C900010B510210A48FFF7A7FF20210848FFF7D9
:101CA000A5FF102003F052FD10210548FFF79EFF0D
:101CB000102003F04BFD10210148FFF795FF10BDE8
:101CC0000004024070B5054600241D48006820F459
:101CD00040601B490860084600680860002619E05B
:101CE00010211748FFF780FF102003F02FFD10216F
:101CF0001348FFF77BFF6006040E114810300068A0
:101D000000F0200008B1601CC4B2082003F01EFDE2
:101D1000701CC6B2082EE3DB0948006820F440605E
:101D2000074908600846006840F48060086015B9FB
:101D3000FFF7AEFF01E0FFF791FF204670BD000006
:101D40000004024070B5044610211448FFF74CFF10
:101D500000251FE004F0800020B120210F48FFF78C
:101D600045FF03E020210D48FFF73EFF6006040E0B
:101D7000102003F0EBFC10210848FFF737FF10207C
:101D800003F0E4FC10210548FFF72EFF102003F0BC
:101D9000DDFC6D1C082DDDD370BD00000004024089
:101DA00010B520210A48FFF721FF10210848FFF74E
:101DB0001DFF102003F0CAFC20210548FFF714FF87
:101DC000102003F0C3FC10210148FFF70DFF10BDE8
:101DD0000004024010B510210A48FFF705FF20213A
:101DE0000848FFF701FF102003F0B0FC1021054860
:101DF000FFF7FCFE20210348FFF7F8FE102003F058
:101E0000A5FC10BD0004024010B500242048006865
:101E100020F440601E4908600846006808602021E0
:101E20001B48FFF7E3FE10211948FFF7DFFE0820EB
:101E300003F08CFC13E0601CC0B20446FA280EDDEF
:101E40001348006820F440601149086008460068A3
:101E500040F480600860FFF7BDFF012010BD0C4812
:101E60001030006800F020000028E4D10848006825
:101E700020F44060064908600846006840F480602D
:101E8000086010210248FFF7AFFE0020E6E70000DF
:101E90000004024010B540210A48FFF7A5FE80214A
:101EA0000848FFF7A1FE102003F050FC4021054830
:101EB000FFF79CFE102003F049FC40210148FFF78A
:101EC00093FE10BD0004024010B540210A48FFF700
:101ED0008BFE80210848FFF789FE102003F036FCB6
:101EE00040210548FFF782FE102003F02FFC40211F
:101EF0000148FFF779FE10BD0004024070B50546A9
:101F000000241D48006820F440401B490860084632
:101F100000680860002619E040211748FFF764FEBA
:101F2000102003F013FC40211348FFF75FFE60060A
:101F3000040E11481030006800F0800008B1601CE9
:101F4000C4B2082003F002FC701CC6B2082EE3DB0A
:101F50000948006820F440400749086008460068C6
:101F600040F48040086015B9FFF7AEFF01E0FFF7CD
:101F700091FF204670BD00000004024070B5044689
:101F800040211448FFF730FE00251FE004F08000D8
:101F900020B180210F48FFF729FE03E080210D4882
:101FA000FFF722FE6006040E102003F0CFFB402155
:101FB0000848FFF71BFE102003F0C8FB402105482E
:101FC000FFF712FE102003F0C1FB6D1C082DDDD3BE
:101FD00070BD00000004024010B580210A48FFF7E0
:101FE00005FE40210848FFF701FE102003F0AEFB7C
:101FF00080210548FFF7F8FD102003F0A7FB4021E2
:102000000148FFF7F1FD10BD0004024010B540216A
:102010000A48FFF7E9FD80210848FFF7E5FD102099
:1020200003F094FB40210548FFF7E0FD80210348C1
:10203000FFF7DCFD102003F089FB10BD0004024017
:1020400010B500242048006820F440401E49086074
:1020500008460068086080211B48FFF7C7FD402143
:102060001948FFF7C3FD082003F070FB13E0601C64
:10207000C0B20446FA280EDD1348006820F4404040
:10208000114908600846006840F480400860FFF786
:10209000BDFF012010BD0C481030006800F080002A
:1020A0000028E4D10848006820F440400649086050
:1020B0000846006840F48040086040210248FFF76D
:1020C00093FD0020E6E700000004024010B504463E
:1020D0009FED100A84ED0A0A9FED0F0A84ED0B0AAA
:1020E00002F0F8F820639FED0B0A84ED0D0A9FEDD6
:1020F0000A0A84ED0E0A02F0EDF8E0639FED050A8E
:1021000084ED100A9FED040A84ED110A02F0E2F852
:10211000A06410BD0AD7A33C0000000070B52DEDEF
:10212000048B0446B0EE408A02F0D4F80546A0685D
:10213000281A00EE100AB8EE400ADFED1C0A20EE65
:10214000200AF0EE408AA560F5EEC08AF1EE10FAA2
:1021500004D29FED170AF0EE408A0DE09FED150ABC
:10216000F4EEC08AF1EE10FA06DD84ED018AB0EEDD
:10217000480ABDEC048B70BD94ED000AD4ED000A52
:1021800070EEA80A80EE209A94ED010A20EE090A6A
:10219000F7EE000A70EEC90AF0EE409A40EE889A17
:1021A000C4ED019AB0EE690AE3E70000BD37863559
:1021B0006F12833A9A99993EB0EE401A40F8DC1FAC
:1021C00042608360B7EE002AC2EE011A81EEA02AB7
:1021D000B0EE420A80ED030AF1EE401AC0ED041A97
:1021E000F1EE401AC0ED051ADC38704710B5044610
:1021F000142003F093FA2046FFF718F910BD0000F1
:1022000010B50020FFF7F4FC4FF480502349C1F8CB
:10221000340123A001F07EFB0021012000F07EFBB1
:102220004FF480402149C1F8340121A001F072FB34
:102230000A2003F073FA002003F0FAFC1749C1F8F2
:102240003C019FED1F0A084680ED4E0A02F042F85D
:102250001249C1F84401052003F060FA0F4803F069
:10226000A7FA0E4880ED500A012003F0E1FC0F4967
:10227000C1F83C019FED120A084680ED4E0A02F0BB
:1022800029F80A49C1F84401052003F047FA074834
:1022900003F08EFA054880ED500A10BD8802002038
:1022A0004D305F4153353630300D0A00D0030020E9
:1022B0004D315F415335303437500D0A0000000076
:1022C0000000000010B50446611D15A001F022FBBE
:1022D00094ED040AD4ED030AB4EEE00AF1EE10FA2C
:1022E00003DD94ED030A84ED040A94ED030A84ED02
:1022F000170A94ED030A84ED200A94F80C0120B922
:1023000094ED030A84ED290A03E094ED070A84EDB5
:10231000290A94ED060A84ED320A0120206010BDDE
:1023200025733A20496E69740D0A000070B52DEDD1
:10233000028B0446B0EE408A0D46B5EEC08AF1EE3F
:1023400010FA03D084ED448A84F80E51204602F03E
:1023500031FD204603F02CFA84ED500A322003F0C0
:10236000DDF9204604F044F984ED470A052003F026
:10237000D5F9204604F026F984ED450A94F80D01BC
:10238000022803D194ED450A84ED090AC82003F020
:10239000C5F9BDEC028B70BD70B5002100230F2282
:1023A000C4781CB3174C246804F4E064C4F5E064FA
:1023B000C4F30721C1F10404E3B20A4144789C400C
:1023C000E1B28478144021430C07210E0E4C0578AD
:1023D0006155047804F01F050124AC4005786D11A7
:1023E000AD0005F1E025C5F8004109E0047804F0EE
:1023F0001F050124AC40054D0678761145F82640AE
:1024000070BD00000CED00E000E400E080E100E0C1
:1024100010B50446B6EE000A84ED250A9FED3D0A8C
:1024200084ED260A9FED3B0A84ED270A9FED390AC9
:1024300084ED280A9FED370A84ED2A0A9FED350ABC
:1024400084ED2B0A9FED330A84ED2C0A01F042FF44
:10245000B4210851B3EE040A84ED2E0A9FED2D0A33
:1024600084ED2F0A9FED2B0A84ED300A9FED290A97
:1024700084ED310A9FED270A84ED330A9FED250A8A
:1024800084ED340A9FED230A84ED350A01F022FF22
:10249000D8210851B6EE000A84ED130A9FED1D0AFB
:1024A00084ED140A9FED1B0A84ED150A9FED190AAD
:1024B00084ED160A9FED170A84ED180A9FED150AA0
:1024C00084ED190A9FED130A84ED1A0A01F002FF48
:1024D000E066B6EE000A84ED1C0A9FED0E0A84ED5C
:1024E0001D0A9FED0C0A84ED1E0A9FED0A0A84ED79
:1024F0001F0A9FED080A84ED210A9FED060A84ED6C
:10250000220A9FED040A84ED230A01F0E3FE9021E4
:10251000085110BD0000000070B52DED088B044679
:10252000B0EE409A01F0D6FE0546206A281A00EE69
:10253000100AB8EE400ADFED560A20EE200AB0EE8F
:10254000408A2562B5EEC08AF1EE10FA06D9B6EEE1
:10255000000AB4EEC08AF1EE10FA03DD9FED4D0AD9
:10256000B0EE408A94ED000A60EE09AA94ED070AE5
:10257000D4ED010A60EE880AB6EE001A60EE810A18
:1025800094ED051A31EE091AF0EE409A40EE819A68
:1025900094ED040AB1EE400AB4EEE90AF1EE10FA45
:1025A00004DD94ED040AB1EE400A0BE094ED040A58
:1025B000B4EEE90AF1EE10FA02D294ED040A01E059
:1025C000B0EE690AF0EE409A94ED020AD4ED050AE5
:1025D00079EE600A20EE200A80EE08BA3AEEA90AE7
:1025E00070EE0B8A94ED040AB1EE400AB4EEE80AEC
:1025F000F1EE10FA04DD94ED040AB1EE400A0BE0AE
:1026000094ED040AB4EEE80AF1EE10FA02D294ED69
:10261000040A01E0B0EE680AF0EE408A94ED030A85
:10262000B5EEC00AF1EE10FA26DD94ED060A38EE9A
:10263000C00A80EE08AA94ED030AB4EECA0AF1EECD
:1026400010FA08D294ED060AD4ED030A00EE880AC7
:10265000F0EE408A10E094ED030AB1EE400AB4EEC9
:10266000CA0AF1EE10FA07DD94ED060AD4ED030A6A
:1026700000EEC80AF0EE408AC4ED079AC4ED068A5F
:1026800084ED059AB0EE680ABDEC088B70BD0000C1
:10269000BD3786356F12833A29B1064A1268024364
:1026A000044B1A6004E0034A12688243014B1A602B
:1026B000704700003038024029B1064A12680243D0
:1026C000044B1A6004E0034A12688243014B1A600B
:1026D000704700004038024029B1064A12680243A0
:1026E000044B1A6004E0034A12688243014B1A60EB
:1026F000704700002038024029B1064A12680243A0
:10270000044B1A6004E0034A12688243014B1A60CA
:10271000704700004438024029B1064A126802435B
:10272000044B1A6004E0034A12688243014B1A60AA
:102730007047000024380240F0B500210022002438
:10274000022500260223324F3F6807F00C0121B119
:10275000042905D0082937D105E02E4F076036E05F
:102760002D4F076033E02A4F3F1F3F68C7F3805665
:10277000274F3F1F3F6807F03F036EB1264FB7FB5F
:10278000F3F7DFF88CC0ACF1040CDCF800C0CCF33C
:10279000881C07FB0CF40CE01E4FB7FBF3F7DFF8C7
:1027A00070C0ACF1040CDCF800C0CCF3881C07FB53
:1027B0000CF4174F3F1F3F68C7F301477F1C7D0094
:1027C000B4FBF5F7076002E0124F076000BF00BFDF
:1027D0000F4F3F6807F0F0010909104F7A5C076856
:1027E000D74047600A4F3F6807F4E051890A0B4F12
:1027F0007A5C4768D7408760054F3F6807F46041BF
:10280000490B064F7A5C4768D740C760F0BD0000AF
:10281000083802400024F40000127A000000002072
:1028200070B5044624B901211A48FFF7DDF903E029
:1028300002211848FFF7D8F94FF6FF7000F036F97B
:1028400024B901211348FFF7D1F903E0022111480F
:10285000FFF7CCF9102002F079FF24B901210D48CF
:10286000FFF7C2F903E002210A48FFF7BDF9002093
:1028700000F01CF9054624B901210648FFF7B6F916
:1028800003E002210348FFF7B1F9102002F05EFFD8
:10289000284670BD0000024070B50646EEB9FFF74D
:1028A0007FFA6C20FFF74EFAFFF7AEFA0C20FFF725
:1028B00049FAFFF7A9FAFFF773FA6D20FFF742FA1A
:1028C000FFF7A2FA0120FFF7FDF904460020FFF709
:1028D000F9F90546FFF77EFA1CE0FFF77DFB6C2057
:1028E000FFF74CFBFFF7ACFB0C20FFF747FBFFF7B4
:1028F000A7FBFFF771FB6D20FFF740FBFFF7A0FB85
:102900000120FFF7FBFA04460020FFF7F7FA05461F
:10291000FFF77CFB05EB042080B270BD30B587B0BB
:1029200005460C4601210520FFF7B6FE0121C8032C
:10293000FFF7C2FEADB9012005908DF81800002008
:102940008DF81A0003208DF8190001208DF81B0066
:1029500005A93748FFF7D4F801213548FFF746F9B4
:1029600015E00220059001208DF8180000208DF858
:102970001A0003208DF8190001208DF81B0005A90D
:102980002B48FFF7BDF802212948FFF72FF94FF434
:10299000E050059002208DF8180000208DF81A00F4
:1029A00003208DF8190001208DF81B0005A921488E
:1029B000FFF7A6F806220A211E48FFF7E9F80622CB
:1029C0000B211C48FFF7E4F806220C211948FFF7F9
:1029D000DFF80121C803FFF77FFE00214FF400401C
:1029E000FFF77AFE0020ADF800004FF48270ADF8DA
:1029F00002004FF40060ADF80400ADF8064001207D
:102A0000ADF808004002ADF80A001020ADF80C0047
:102A10000020ADF80E000720ADF81000694606480A
:102A200000F026F80121044800F008F807B030BD96
:102A30000000024000080240003C004021B1028832
:102A400042F04002028004E002884FF6BF731A4051
:102A5000028070470246002013890B400BB1012011
:102A600000E00020704701468889704781817047E7
:102A700010B50022028802F441520B884C8823438F
:102A80008C882343CC8823430C8923434C892343DC
:102A90008C892343CC8923431A430280838B4FF2D2
:102AA000FF74234083830B8A038210BD10B5044654
:102AB00000BF02210948FFF7CDFF0028F9D02146C9
:102AC0000648FFF7D3FF00BF01210448FFF7C2FF0C
:102AD0000028F9D00148FFF7C6FF10BD003C0040B8
:102AE00030B500228B071C0F0F2303FA04F20B4BA7
:102AF0008C1053F824309343084C8D1044F8253043
:102B000023468C1053F824308C07240F00FA04F469
:102B10002343024C8D1044F8253030BD0838014065
:102B20000CB50020019000903448006840F48030DB
:102B30003249086000BF3148006800F4003000905E
:102B40000198401C0190009818B90198B0F5A04F69
:102B5000F1D12A48006800F4003010B10120009043
:102B600001E0002000900098012846D12348403021
:102B7000006840F0805021494031086020480068DA
:102B800040F440401E4908601C48083000681B495A
:102B9000083108600846006840F4004008600846B4
:102BA000006840F4A05008601648091F0860081F1C
:102BB000006840F08070091F086000BF0F4800687F
:102BC00000F000700028F9D040F205700E4908604E
:102BD0000A480830006820F00300084908310860FE
:102BE0000846006840F00200086000BF0348083053
:102BF000006800F00C000828F8D10CBD0038024035
:102C00000070004008544007003C02400248006841
:102C1000401C0149086070471000002010B515489D
:102C2000006840F47000134908601348006840F0E1
:102C300001001149086000200F49083108600E4862
:102C400000680E4908400C4908600D48091D0860DD
:102C5000081F006820F48020091F08600020064932
:102C60000C310860FFF75CFF4FF0006001498039CC
:102C7000086010BD88ED00E000380240FFFFF6FE5E
:102C80001030002400B58FB001210320FFF704FDB0
:102C900001210846FFF730FD012208215548FEF7C3
:102CA00077FF012209215348FEF772FF01220A2112
:102CB0005048FEF76DFF01220D214F48FEF768FFD7
:102CC00001220E214C48FEF763FF01220F214A48E2
:102CD000FEF75EFF4FF4E0600D9002208DF83800A3
:102CE00000208DF83A0003208DF8390000208DF87F
:102CF0003B000DA93F48FEF703FF4FF460400D90E5
:102D000002208DF8380000208DF83A0003208DF85D
:102D1000390000208DF83B000DA93748FEF7F0FE82
:102D2000364800F077F90020ADF828006020ADF8B3
:102D30002A0040F6AC500B900020ADF83000022085
:102D40008DF832000AA92D4800F03EFB7020ADF846
:102D500014000120ADF816000420ADF81800002082
:102D60000790ADF82000ADF82200ADF82400ADF8D2
:102D7000260005A9214800F015FA05A91F4800F012
:102D800059FA05A91D4800F0B5FA08211B4800F0C2
:102D900047FA0821194800F09FFA0821174800F067
:102DA000F9FA4FF40060ADF804004010ADF80600E9
:102DB0000020ADF808006420ADF80A000020ADF84E
:102DC0000C004FF40050ADF80E000020ADF81000DC
:102DD00001A90A4800F0F2F82021084800F0E3FABF
:102DE0000121064800F0DEF80121044800F002F954
:102DF0000FB000BD0000024000040240000001408E
:102E000000B58FB001210720FFF746FC0121022009
:102E1000FFF772FC032206215E48FEF7B9FE03228B
:102E200007215C48FEF7B4FE032208215948FEF74B
:102E3000AFFE032207215848FEF7AAFE0322002115
:102E40005648FEF7A5FE032201215448FEF7A0FED6
:102E50004FF4E0700D9002208DF8380000208DF8BE
:102E60003A0003208DF8390000208DF83B000DA9B1
:102E70004848FEF745FE80200D9002208DF838006E
:102E800000208DF83A0003208DF8390000208DF8DD
:102E90003B000DA94048FEF733FE03200D900220B1
:102EA0008DF8380000208DF83A0003208DF83900A5
:102EB00000208DF83B000DA93848FEF721FE384868
:102EC00000F0A8F80020ADF828006020ADF82A0036
:102ED00040F6AC500B900020ADF8300002208DF889
:102EE00032000AA92E4800F06FFA7020ADF81400E5
:102EF0000120ADF816000420ADF81800002007905E
:102F0000ADF82000ADF82200ADF82400ADF82600A1
:102F100005A9234800F046F905A9214800F08AF9DF
:102F200005A91F4800F0E6F908211D4800F078F9CE
:102F300008211B4800F0D0F90821194800F02AFAAE
:102F40004FF40060ADF804004010ADF8060000201A
:102F5000ADF808006420ADF80A000020ADF80C00C0
:102F60004FF40050ADF80E000020ADF8100001A99C
:102F70000B4800F023F82021094800F014FA012141
:102F8000074800F00FF80121054800F033F80FB0B2
:102F900000BD0000000802400000024000040240A2
:102FA0000004014021B1028842F08002028004E066
:102FB00002884FF67F731A40028070470A884B8858
:102FC0001A438B881A43CB881A430B891A434B89BF
:102FD0001A438B891A43A0F84420704721B1028814
:102FE00042F00102028004E002884FF6FE731A40AC
:102FF0000280704731B1B0F8442042F40042A0F89A
:10300000442005E0B0F84420C2F30E02A0F84420AA
:103010007047000010B504465548844208D101218C
:103020000846FFF779FB00210120FFF775FB9DE0C3
:10303000B4F1804F08D101210846FFF74DFB002174
:103040000120FFF749FB91E04A48844208D1012161
:103050000220FFF741FB00210220FFF73DFB85E046
:103060004548844208D101210420FFF735FB0021A7
:103070000420FFF731FB79E04048844208D1012168
:103080000820FFF729FB00210820FFF725FB6DE052
:103090003B48844208D101211020FFF71DFB00218D
:1030A0001020FFF719FB61E03648844208D1012166
:1030B0002020FFF711FB00212020FFF70DFB55E03A
:1030C0003148844208D101210220FFF725FB00216D
:1030D0000220FFF721FB49E02C48844209D101215D
:1030E0000804FFF719FB00214FF48030FFF714FBB1
:1030F0003CE02748844209D101214804FFF70CFB3A
:1031000000214FF40030FFF707FB2FE021488442F5
:1031100009D101218804FFF7FFFA00214FF4802034
:10312000FFF7FAFA22E01C48844208D1012140202E
:10313000FFF7D2FA00214020FFF7CEFA16E0174839
:10314000844208D101218020FFF7C6FA00218020A7
:10315000FFF7C2FA0AE01248844207D10121801524
:10316000FFF7BAFA0021A015FFF7B6FA10BD00006C
:10317000000001400004004000080040000C004036
:1031800000100040001400400004014000400140D5
:10319000004401400048014000180040001C00406D
:1031A0000020004070B5002400220023058C4FF65B
:1031B000FE7635400584028C8388048B4FF68F752C
:1031C0002C40B51E2C400D882C43751E2A408D893D
:1031D0002A434D882A43104DA84202D00F4DA842E1
:1031E00013D14FF6F7752A40CD892A434FF6FB7568
:1031F0002A408D882A434FF6FF652B404FF6FF5536
:103200002B400D8A2B434D8A2B43838004838D688A
:103210004563028470BD00000000014000040140CD
:103220000A460021018B4FF6F773194011430183C1
:103230007047000070B5002400220023058C4FF673
:10324000EF7635400584028C8388048B48F6FF7541
:103250002C404FF6FF452C400D884FF6FF7606EACE
:1032600005252C434FF6DF752A408D8906EA0515A2
:103270002A434D8806EA05152A43154DA84202D077
:10328000144DA8421DD14FF67F752A40CD894FF6C7
:10329000FF7606EA05152A434FF6BF752A408D884A
:1032A00006EA05152A434FF6FF352B404FF2FF750E
:1032B0002B400D8A06EA85052B434D8A06EA8505D3
:1032C0002B43838004838D688563028470BD000076
:1032D00000000140000401400A460021018B4FF22A
:1032E000FF7319404FF6FF7303EA0223194301836A
:1032F0007047000070B5002400220023058C4FF6B3
:10330000FF6635400584028C8388848B4FF68F7569
:103310002C404FF6FC752C400D882C434FF6FF5582
:103320002A408D894FF6FF7606EA05252A434D8807
:1033300006EA05252A43154DA84202D0144DA8429D
:103340001DD14FF2FF752A40CD894FF6FF7606EA70
:1033500005252A434FF6FF352A408D8806EA0525C4
:103360002A434EF6FF752B404DF6FF752B400D8A14
:1033700006EA05152B434D8A06EA05152B43838083
:1033800084838D68C563028470BD00000000014025
:10339000000401400A460021818B4FF6F773194063
:1033A00011438183704782884FF68F731A40828061
:1033B00082880A4382807047416370478163704707
:1033C000C16370474162704700220288184B9842DF
:1033D0000ED0184B98420BD0B0F1804F08D0164B4E
:1033E000984205D0154B984202D0154B984204D113
:1033F0004FF68F731A404B881A43124B984207D0EE
:10340000114B984204D04FF6FF431A400B891A43E0
:1034100002804B68C3620B880385054B984202D03B
:10342000044B984201D18B7A038601238382704733
:10343000000001400004014000040040000800407A
:10344000000C0040001000400014004010B540F295
:103450002441154800F0A4F9012824D1124800881D
:10346000124908601048001D008808601048FEF7E7
:10347000ABF9C0F580700D49086000210C48FEF7DB
:10348000E1F800BF0A48FEF795F90028FAD14FF499
:1034900080710748FEF718FA01210548FEF7D2F8B7
:1034A00001200449086010BD0044004014000020C1
:1034B000886002401800002010B596B00446012133
:1034C0005E48FFF7E9F801214804FFF7F5F8072205
:1034D00002215B48FEF75CFB072203215848FEF7F8
:1034E00057FB0C20149002208DF8540000208DF81A
:1034F000560001208DF8570002208DF8550014A9C0
:103500004F48FEF7FDFA26208DF83C0000208DF88C
:103510003D008DF83E0001208DF83F000FA8FEF71A
:103520003BFF11208DF83C0001208DF83D008DF807
:103530003E008DF83F000FA8FEF72EFF414800F037
:10354000B7F810940020ADF84C000C20ADF84A00FC
:103550000020ADF84800ADF84600ADF8440010A9D1
:10356000384800F06DF901224021364800F096F805
:103570000121344800F086F8012240F2244131480C
:1035800000F038F93048FEF769F84FF0006000901D
:103590002C48001D01902D4802904020039080008F
:1035A0000490002005904FF4806006900020079062
:1035B000089009904FF480300A9000200B9003206F
:1035C0000C9000200D900E9069461F48FEF750F9B0
:1035D000012210211C48FEF72DF91B481838FEF770
:1035E0003DF84FF0006000901648001D019018480B
:1035F0000290002003904FF480700490002005900A
:103600004FF4806006900020079008904FF480707F
:10361000099040020A9000200B9003200C9000209B
:103620000D900E90694608481838FEF721F90121DF
:1036300005481838FEF706F816B010BD0100200046
:103640000000024000440040A0600240480000200A
:103650004801002010B5044600210848FDF7F2FF9C
:10366000A1B20648FEF730F901210448FDF7EAFF50
:1036700001228021024800F011F810BDA060024034
:103680000044004021B1828942F40052828104E06A
:1036900082894DF6FF731A40828170471AB1838A7E
:1036A0000B43838202E0838A8B438382704700004E
:1036B00010B504463248844208D101211020FFF79A
:1036C0002BF800211020FFF727F857E02D488442FF
:1036D00009D101214804FEF7FFFF00214FF400301B
:1036E000FEF7FAFF4AE02848844209D10121880404
:1036F000FEF7F2FF00214FF48020FEF7EDFF3DE0E2
:103700002248844209D10121C804FEF7E5FF0021C7
:103710004FF40020FEF7E0FF30E01D48844209D15D
:1037200001210805FEF7D8FF00214FF48010FEF7B5
:10373000D3FF23E01748844208D101212020FEF75F
:10374000EBFF00212020FEF7E7FF17E0124884423C
:1037500009D101218807FEF7BFFF00214FF080400B
:10376000FEF7BAFF0AE00D48844207D10121400567
:10377000FEF7B2FF00216005FEF7AEFF10BD0000AE
:10378000001001400044004000480040004C004050
:10379000005000400014014000780040007C0040D0
:1037A00070B50246002400230025002040F66A166A
:1037B000B14200D100BFC1F3421501F01F03012641
:1037C00006FA03F3012D02D19689334006E0022D5B
:1037D00002D1168A334001E0968A33400C1201264A
:1037E00006FA04F41688344013B10CB1012000E04D
:1037F000002070BDF0B503460024002600250020FF
:1038000040F66A17B94200D100BF1846C1F342140E
:1038100001F01F06012707FA06F5012C01D10C3033
:1038200004E0022C01D1103000E014301AB1076816
:103830002F43076002E00768AF430760F0BD000058
:103840002DE9FF4705460E460024A14600BFA046CD
:10385000B08900B100BF2C8A24F44054F08804439E
:103860002C82AC8941F20C608443B08831890843D2
:10387000718908430443AC81AC8A24F44074B08954
:103880000443AC826846FEF757FF2048854202D0C9
:103890001F48854202D1DDF80C9001E0DDF8089068
:1038A000A88900F4004040B109EBC90000EB091001
:1038B00031684900B0FBF1F707E009EBC90000EB04
:1038C000091031688900B0FBF1F76420B7FBF0F014
:1038D00004012009642101FB1078A88900F400404C
:1038E00040B1322000EBC800B0FBF1F000F007005F
:1038F000044308E0322000EB08106421B0FBF1F033
:1039000000F00F0004432C81BDE8FF870010014048
:10391000001401400FB4054B10B503A9044A0298E6
:1039200000F010FD10BC5DF814FB00009557000876
:103930001C0000200FB4084B10B504A902AA03987C
:1039400000F000FD044602A9002001F077F92046AE
:1039500010BC5DF814FB00003D4C000803B4019856
:103960004100009850EAC12018BF04204A0D18BF3A
:1039700040F0010040F2FF72B2EB515F08BF40F02F
:103980000200012808BF052002B0704700000000B7
:1039900070B59B482DED020B2DED068B079D25F094
:1039A0000044A04218DC9748844202DC0AD1069801
:1039B00040B19DED060BBDEC068B02B0BDE870403A
:1039C00000F044BB002DCCBF9FED8F0B9FED900B03
:1039D000BDEC068B02B070BD8F48A04215DD8F484C
:1039E000A042D8BF4FF0FF3458DD9DED060B51ECDF
:1039F000100BFFF7B3FF042808BF00F03DFB9DED5F
:103A0000060BBDEC068B02B070BD9DED060B51ECB4
:103A1000100B01F0B2FECDE9060181489FED828BCB
:103A2000A0423CDD8248A0421FDD00249FED82AB16
:103A30009DED060B53EC1A2B51EC100BFCF7E2FB3F
:103A40009DED060B41EC190B53EC1A2B51EC100BAE
:103A5000FCF77FFC53EC182BFCF775FC53EC192B8F
:103A6000FCF7B5FECDE9060149E09DED060B01240A
:103A700053EC182B51EC100BFCF7C4FB9DED060B1F
:103A800041EC190B53EC182B51EC100BFCF75BFCC1
:103A900053EC192BFCF79BFECDE906012FE068489B
:103AA000A0421FDD02249FED689B9DED060B53ECA9
:103AB000192B51EC100BFCF74CFC53EC182BFCF7BA
:103AC000A1FB9DED060B41EC180B53EC192B51ECAF
:103AD000100BFCF738FC53EC182BFCF778FECDE903
:103AE00006010CE09DED060B032453EC102B9FED1B
:103AF000580B51EC100BFCF76AFECDE906019DED69
:103B0000060B53EC102B51EC100BFCF722FC41EC94
:103B1000180B53EC182BFCF71CFC41EC190B4E480E
:103B20000621B0EE490AF0EE690A784400F012FA74
:103B300053EC182B51EC100BFCF70BFC41EC180B61
:103B40004648B0EE490AF0EE690A0521784400F0D3
:103B500001FA53EC192B51EC100BFCF7FAFB41EC7A
:103B6000100B51EC180B53EC102B002C0EDAFCF759
:103B700049FB9DED061B53EC112BFCF7EAFB9DED79
:103B8000061B53EC112BFCF7E1FB35E0FCF73AFB8D
:103B90009DED061B53EC112BFCF7DBFB41EC100BEE
:103BA0002F48784400EBC40090ED001B51EC100B43
:103BB00053EC112BFCF7C7FB9DED061B53EC112BAF
:103BC000FCF7C1FB41EC100B2648784400EBC40025
:103BD00090ED001B51EC100B53EC112BFCF7B6FBD6
:103BE00041EC100B002DA2BFBDEC068B02B070BDE6
:103BF00051EC100B81F0004141EC100B01E700008B
:103C0000000010440000F07F182D4454FB21F93FC0
:103C1000182D4454FB21F9BF0000DC3F0000203E7A
:103C20000000F33F00000000000000000000F03F33
:103C30000000E63F0000000000000000000000401F
:103C40000080034000000000000000000000F83F7A
:103C5000000000000000F0BF6A2F0000202F0000CD
:103C6000AA2E0000622E000070B56B4E2DED040BE5
:103C70002DED028B82B0DDF81CC0DDE905235C422E
:103C80002CF000411C4341EAD474049D22F0004012
:103C9000B44205D86C422C4340EAD474B4420BD9E8
:103CA0009DED061B9DED040B02B0BDEC028B04B034
:103CB000BDE8704000F0D4B9ACF14054A4F17F6489
:103CC0001C430BD0022404EAAC7444EAD2740543CA
:103CD0009FED538B9FED542B07D015E09DED040B0A
:103CE00051EC100B01F02CFB42E0002C11BF012C19
:103CF0009DED040B02B0BDEC028B04BF04B070BD9F
:103D0000022C38D0032C3BD00B439FED491B9FED79
:103D10004A0B0AD0B14218D1B04209D121F08041FA
:103D200020F08040079105900FE0002A15DA10E09E
:103D3000434B7B44002C08BF93ED000B0DD0012CAE
:103D400010D0022C17D0032C1AD0B0421DD1002A5B
:103D500003DAB0EE410AF0EE610A02B0BDEC028B6C
:103D600004B070BD93ED000B51EC100B81F00041DD
:103D700041EC100BF1E7B0EE480AF0EE680AECE710
:103D8000B0EE420AF0EE620AE7E7401A00153C285E
:103D9000C8BF8DED000B19DCBCF1000FBEBF10F1E8
:103DA0003C0F9FED290B8DED000B0FDB9DED060BFE
:103DB00053EC102B9DED040B51EC100BFCF707FDA1
:103DC00001F0DBFC01F0BCFACDE90001002C08BFDA
:103DD0009DED000BC1D0012C10D0022C9FED1C0BCF
:103DE00053EC102B9DED000B51EC100B0DD0FCF79C
:103DF000AAFA53EC182BFCF7A6FAB9E7019880F061
:103E0000004001909DED000BA7E7FCF79CFA53ECF6
:103E1000182BFCF79BFAABE70000F07F00000000D6
:103E2000182D4454FB210940182D4454FB2109C08E
:103E3000182D4454FB21F9BF182D4454FB21F93FA0
:103E4000922D0000000000000000000000000000B3
:103E5000075C143326A6A13C30B583B0044600F0BD
:103E600023F99FED090B05468DED000B002221463D
:103E70006846FCF7BCFB284600F02CF99DED000BD2
:103E800003B030BD00000000000000000000000092
:103E90002DED020B019820F0004001909DED000BEC
:103EA00002B0704710B52DED028BF0EE408A18EE8F
:103EB000900AB0EE608A20F00040C0F1FF40C00FD1
:103EC00007D118EE100A20F00040C0F1FF40C00FEB
:103ED0002BD018EE101A18EE900AFCF7F2FB00EE49
:103EE000100A10EE100A6FEAD05010F0FF0F04BF56
:103EF000BDEC028B10BD18EE900A00F0004110EEF0
:103F0000100A00F00040814204BFBDEC028B10BDDE
:103F100018EE101A10EE100ABDEC028B61F31E00B1
:103F200000EE900A30EE600A10BD18EE900A4FF0D5
:103F30007F41B1EB400F1CBF18EE100A5FEA400052
:103F4000C7D1012000F0C6F8BDEC028BBDE81040DF
:103F500000F0A2B870B504462DED028B4D1E00EBAB
:103F6000C500B0EE408AF0EE608A90ED000B35F0AF
:103F7000060017D053EC182B51EC100BFCF7E9F9A5
:103F800041EC100B6D1E04EBC50090ED001B51ECD5
:103F9000100B53EC112BFCF735F941EC100B35F0FD
:103FA0000600E7D1022D36D0042D1CD0062D1CBFF3
:103FB000BDEC028B70BD53EC182B51EC100BFCF7D1
:103FC000C8F994ED0A1B53EC112BFCF71BF953ECC9
:103FD000182BFCF7BEF994ED081B53EC112BFCF7E2
:103FE00011F941EC100B53EC182B51EC100BFCF7B2
:103FF000B0F994ED061B53EC112BFCF703F953ECCD
:10400000182BFCF7A6F994ED040B53EC102BFCF7DE
:10401000F9F841EC100B53EC182B51EC100BFCF79A
:1040200098F994ED021B53EC112BFCF7EBF853ECD1
:10403000182BFCF78EF994ED001B53EC112BFCF7B9
:10404000E1F8BDEC028B41EC100B70BD10B553ECE8
:10405000102B51EC100BFCF7D5F841EC100B10BDF8
:1040600010B553EC112B51EC100BFCF7CBF841ECD5
:10407000100B10BD000000009FED050B10B553ECB8
:10408000102B51EC100BFCF764F941EC100B10BD38
:104090000000000000000010DFED020A80EEA00A20
:1040A00070470000000000000148006870470000F1
:1040B0004400002002E008C8121F08C1002AFAD1FB
:1040C00070477047002001E001C1121F002AFBD198
:1040D000704700000149086070470000440000205C
:1040E00010B52DED028BF0EE408A9FED0E0A38EEF2
:1040F000800AB0EE408A9FED0C0AB4EEC08AF1EE61
:1041000010FA04DD9FED080A38EE400A01E0B0EE37
:10411000480AB0EE408AB0EE480A00F0ABFCBDECB5
:10412000028B10BDDB0FC93FDB0FC940F0EE400A28
:1041300000EE100AB8EEC00A20EE800A70470000B8
:104140002DE9FF5F82B00021DDE90430020DDDF8CA
:1041500040B0034318D044F61050A2F2FF3242435D
:104160001514119801281FD0A5EB0B00401C5FEA25
:10417000000A4FF000064E4FDFF83891B046504627
:1041800015D5CAF1000413E0119801244AA30128AF
:1041900001D16FEA0B010298119AC0E90031C0E920
:1041A000024206B0BDE8F09FCBF10000DFE7044615
:1041B0000021404A491842EB0450CDE9001012E0BA
:1041C000E00707D032463B4640464946FCF7C1F877
:1041D0008046894632463B4610461946FCF7B9F8F8
:1041E00006460F466410002CEAD1DDE90401DDE942
:1041F0000023BAF1000F06DAFCF7ABF842464B4653
:10420000FCF7A7F805E0FCF7E2FA42464B46FCF75C
:10421000DEFA04460E460022284BFCF731F903D89B
:104220004FF0FF30014607E00022254B2046314683
:10423000FBF7E8FFFCF73AFB102409E0002C0ADB4F
:104240000A220023FCF766F9039B30321A55641EDC
:1042500050EA0102F2D1641C039AC4F11103144420
:10426000119A012A03D0012208430DD10AE0084324
:1042700004D000204FF0110B119072E7A3EB0B0557
:104280006D1E0DE05B4504DD4FF0000205F10105F8
:1042900004E003DA4FF00002A5F10105002AECD09A
:1042A00002981199C0E90231C0E9004579E70000A0
:1042B000000014400000F03F300000000000F04318
:1042C0000000E03F30380A2801D20120704700206A
:1042D0007047000000BF0A4801684FF0E020826983
:1042E000074800688142F6D10648801AA823B0FB2F
:1042F000F3F001EB4103C3EBC11300EBC3007047C4
:10430000100000204090020010B52DED028BF0EE61
:10431000408ADFED0B0AB0EE680AFFF7C3FDB0EE8E
:10432000408AB5EEC08AF1EE10FA04DBB0EE480A1E
:10433000BDEC028B10BD9FED020A38EE000AF7E7D4
:10434000DB0FC9402DE9FF4F95B09B4689460646D5
:1043500000250FE2252877D100242746F84A0121BD
:10436000059400E0044316F8013F203B01FA03F0F6
:104370001042F7D130782A2811D06FF02F0330780F
:10438000A0F13002092A16D8059A44F0020402EB83
:10439000820203EB42021044761C0590EFE759F8C5
:1043A000042B0592002A03DA504244F4005405908D
:1043B00044F00204761C30782E2816D116F8010F2E
:1043C00044F004042A280DD06FF02F023078A0F1B9
:1043D0003003092B09D807EB870302EB4303C71807
:1043E000761CF3E759F8047B761C30786C280FD0E4
:1043F00006DC4C2817D068280DD06A2814D104E0B8
:10440000742810D07A280FD10DE044F400140AE08B
:1044100044F4801401E044F440147278824202D1E2
:1044200004F58014761C761C307866280BD013DCDB
:10443000582877D009DC002875D04528F6D04628C2
:10444000F4D047281AD19DE118E0632835D06428BC
:1044500079D0652812D195E1702873D008DC6728DF
:10446000F1D069286FD06E280DD06F2806D1B5E045
:1044700073282CD0752875D0782874D05A4617998F
:1044800090476D1C75E1C4F30250022809D003283F
:104490000DD0D9F8001004280DD00D6009F10409E1
:1044A00067E1D9F80010EA17C1E90052F6E7D9F838
:1044B00000100D80F2E70D70F0E719F8041B8DF87D
:1044C000001000208DF80100EA46012003E059F8B1
:1044D00004AB4FF0FF3061074FF0000102D40DE054
:1044E00008F101018846B9420FDA8045F8DB1AF875
:1044F00008100029F4D108E008F101018846814242
:10450000FADB1AF808100029F6D105985B46A0EBF3
:10451000080721463846179A00F094FA284400EB21
:10452000080507E04DE029E10DE01AF8010B5A46B5
:1045300017999047B8F10108F7D25B4621463846F3
:10454000179A13E142E00A220092C4F302524FF09C
:10455000000A022A08D059F804CB032A4FEAEC716A
:104560000AD00DE029E02AE009F1070121F0070255
:10457000F2E802C1914609E00FFA8CFC4FEAEC71B7
:10458000042A03D14FFA8CFC4FEAEC71002907DAB8
:104590000A460021DCF1000C61EB02012D2202E051
:1045A000220504D52B228DF80420012203E0E20726
:1045B00001D02022F7E7904659E00A2102E01022BC
:1045C0000DE010214FF0000A00910BE010224FF097
:1045D000000A44F004040827009203E008224FF088
:1045E000000A0092C4F30252022A05D059F804CB03
:1045F0000021032A08D009E009F1070121F0070290
:10460000F2E802C1914605E01FFA8CFC042A01D1B0
:104610000CF0FF0C4FF00008220728D5702806D0B8
:10462000009B83F0100353EA0A0305D00EE04022FA
:104630008DF80420012208E05CEA010206D0302255
:104640008DF804208DF8050002229046009B83F02F
:10465000080353EA0A030AD15CEA010201D16207A6
:1046600005D530228DF804204FF001087F1E582810
:1046700004D034A003900EA802900DE036A0F9E714
:1046800053466046009AFBF745FF84460398825CD8
:104690000298401E029002705CEA0100F0D102987C
:1046A00006A9081A00F1200A600702D524F4803414
:1046B00000E00127574502DDA7EB0A0000E00020DB
:1046C00000EB0A01009005984144401A0590E00370
:1046D00006D45B462146179A059800F0B3F90544C5
:1046E000002706E001A85A46C05D179990476D1C47
:1046F0007F1C4745F6DBE0030CD55B462146179A45
:10470000059800F09FF9054404E030205A461799B7
:1047100090476D1C0099481E00900029F5DC08E0C8
:10472000029802995A460078491C029117999047BD
:104730006D1CBAF10001AAF1010AF1DC65E100008B
:104740000928010030313233343536373839616267
:10475000636465660000000030313233343536372B
:1047600038394142434445460000000000F058F902
:104770000544761C307800287FF4ECAD19B028464B
:10478000BDE8F08F620700D4062709F1070222F086
:10479000070CFCE80223E14603F000485FEA080C3E
:1047A00002D00FF2702C0DE05FEA045C02D50FF22C
:1047B000682C07E05FEAC47C02D00FF2602C01E0B5
:1047C000AFF2700C4FF0FF3823F00043CDF850C02B
:1047D00065280CD006DC452809D046281DD047287E
:1047E0003DD13DE0662818D067287ED138E0002111
:1047F000112F01DB112000E0781CCDE9000106A992
:104800000EA8FFF79DFCDDE90F010E9A0391002130
:10481000009207F1010A04914DE04FF0004000972B
:10482000CDE9011006A90EA8FFF78AFCDDE90F0209
:1048300003920E9B11990022DDF80CA000930492C4
:1048400011B9791C00EB010AB7EB0A0004D4C0F1DE
:10485000FF3007F1010A0490AAEB0700019044E041
:10486000012F00DA01270021112F01DD112000E0C6
:104870003846CDE9000106A90EA8FFF761FCDDE985
:104880000F010E9A0391002104910092BA4621076C
:104890000CD40399514500DA8A46BAF1010F05DDBF
:1048A000009AAAF10101515C302908D0B84202DA1D
:1048B00010F1040F06DA0121CDE9011015E0AAF18B
:1048C0000101E9E7002805DC049901440491AAEB01
:1048D000000102E0411C514500DD8A460499401A5E
:1048E000401C01904FF000400290200704D4019832
:1048F000504501DBCDF8048000208DF84F00029870
:104900000DF14F07B0F1004F25D02B200E900298EB
:104910004FF0020800280CDA404202902D200E9041
:1049200007E00A210298FBF7DFFD3031029007F81B
:10493000011DB8F10001A8F10108F2DC029800287D
:10494000EFD1791E0E980870307800F0200040F00A
:10495000450007F8020D12A8C01B00F107081498C3
:10496000007800B1012000EB0A01019801EBE07131
:1049700005984144401A401E0590E00306D45B466A
:104980002146179A059800F05DF8054414980078C0
:1049900018B15A46179990476D1CE00324D55B4621
:1049A0002146179A059800F04DF805441CE004983C
:1049B000002807DBDDE90301884203DD0098405C45
:1049C000179901E0179930205A469047049805F14D
:1049D0000105401C04900198401E019004D12E2036
:1049E0005A46179990476D1CBAF10001AAF1010AC5
:1049F000DDDC05E017F8010B5A46179990476D1C4E
:104A0000B8F10001A8F10108F4DC5B462146179AD1
:104A10000598ABE62D0000002B00000020000000F0
:104A20002DE9F041044600251E461746880404D4AB
:104A300005E039462020B0476D1C641EF9D5284694
:104A4000BDE8F0812DE9F041044600251E46904660
:104A5000C80301D5302700E02027880404D505E0ED
:104A600041463846B0476D1C641EF9D52846BDE85E
:104A7000F081000010B52DED068BB0EE408A9FED61
:104A8000660AB4EEC08AF1EE10FA2BD29FED630AEB
:104A900028EE000AB5EEC00AF1EE10FA0ADBDFEDEF
:104AA0005F0AB6EE000A00EE880ABDEEC00A10EEFC
:104AB000100A09E0DFED590AB6EE000A10EE880A86
:104AC000BDEEC00A10EE100A554951F8200000EE64
:104AD000100AB8EEC00ADFED530A20EE200ABDEC42
:104AE000068B10BD9FED500AB4EEC08AF1EE10FAAD
:104AF00033D29FED4A0A28EE000AB5EEC00AF1EE65
:104B000010FA0ADBDFED450AB6EE000A00EE880A6D
:104B1000BDEEC00A10EE101A09E0DFED400AB6EE55
:104B2000000A10EE880ABDEEC00A10EE101AC1F598
:104B3000C7713B4A52F82100FBF77DFC41EC1A0B90
:104B40009FED3A0B53EC102BFBF703FC41EC190BD8
:104B5000FBF7AEFC00EE100AC1E79FED360AB4EE9B
:104B6000C08AF1EE10FA2BD29FED2C0A28EE000A33
:104B7000B5EEC00AF1EE10FA0ADBDFED280AB6EE58
:104B8000000A00EE880ABDEEC00A10EE100A09E025
:104B9000DFED220AB6EE000A10EE880ABDEEC00A6A
:104BA00010EE100AA0F5C7701D4951F8200000EE64
:104BB000100AB8EEC00ADFED200A20EE200A8EE7C8
:104BC0009FED160A28EE000AB5EEC00AF1EE10FAC3
:104BD0000ADBDFED120AB6EE000A00EE880ABDEE2F
:104BE000C00A10EE100A09E0DFED0C0AB6EE000A6A
:104BF00010EE880ABDEEC00A10EE100AC0F547702C
:104C0000074951F8200000EE100AB8EEC00ADFEDA7
:104C10000A0A20EE200A62E7DB0FC93FE65FFD4289
:104C20000C67000817B7D138DB0F49402D431CEB48
:104C3000E2361A3FE4CB964017B7D1B80A68531C46
:104C40000B60107070470000F0EE400AB0EE601A82
:104C500011EE100A0349A1EB600001EE100A20EEEC
:104C6000810A7047865A375F70B52DED028B044676
:104C7000611D3CA0FEF74EFE002084F82C010026AA
:104C800029E000251EE000EE105AB8EE400ADFEDE4
:104C90003B0A60EE200A9FED3A1A80EE810ADFEDB2
:104CA000390A30EE208AD4ED040AB0EE600AB0EE84
:104CB000481ADFED350A204601F00CFB022000F017
:104CC0002DFD6D1CB5F5FA7FDDD994F82C01012876
:104CD00000D102E0761C0F2ED3D300BF002520E0C8
:104CE00000EE105AB8EE400ADFED240A60EE200A0A
:104CF0009FED231A80EE810ADFED220A30EE200AB2
:104D0000B0EE408AD4ED040AB0EE600AB0EE481A64
:104D1000DFED1D0A204601F0DDFA022000F0FEFC66
:104D20006D1CB5F5FA7FDBD99FED171ADFED160A7A
:104D30009FED150A204601F0CDFA4FF4FA7000F00D
:104D4000EDFC94F82C0120B9611D10A0FEF7E2FDE6
:104D500003E0611D13A0FEF7DDFD94F82C01BDEC0E
:104D6000028B70BD25733A20496E646578207365A7
:104D7000617263682E2E2E0D0A000000DB0FC94001
:104D80000000FA43E4CB96400000000025733A206F
:104D90004572726F723A204E6F7420666F756E6442
:104DA000210D0A0025733A205375636365737321DF
:104DB0000D0A000070B52DED088B04460126611D1B
:104DC000BCA0FEF7A7FD94F82D01012803D12046D1
:104DD000FFF74AFF06467EB9207920B90021BA487C
:104DE000FEF7FCF803E00021B848FEF7F7F80020D2
:104DF0002060BDEC088B70BD94F80E0100287DD1B9
:104E000000251EE000EE105AB8EEC00ADFEDB00A31
:104E100020EE200ADFEDAF0A80EE201A9FEDAE0AE9
:104E200071EE009AD4ED040AB0EE600AB0EE691A91
:104E3000DFEDAA0A204601F04DFA022000F06EFCD8
:104E40006D1CB5F5FA7FDDDD204600F0B1FCB0EE5B
:104E5000408A4FF4FA7520E000EE105AB8EEC00A0E
:104E6000DFED9B0A60EE200A9FED9A1A80EE810A20
:104E7000DFED990A30EE200AF0EE409AD4ED040AF4
:104E8000B0EE600AB0EE691ADFED940A204601F038
:104E900021FA022000F042FC6D1E002DDCDA2046D3
:104EA00000F086FCF0EE408A9FED8C1ADFED8B0A55
:104EB0009FED8A0A204601F00DFAC82000F02EFC72
:104EC00018EE100AFBF7C8FA41EC1A0B53EC1A2B38
:104ED00083A0FEF71FFD18EE900AFBF7BDFA41EC28
:104EE0001A0B53EC1A2B83A0FEF714FD38EE680A58
:104EF00010EE101A0846FBF7AFFA00E081E041EC33
:104F00001B0BB0EE4B0AF0EE6B0AFEF7C1FFB0EEE2
:104F100040AAF0EE60AA51EC1A0BFBF7C9FA09EEB1
:104F2000100AB4EE688AF1EE10FA06D09FED760A08
:104F3000B4EEC09AF1EE10FA11D2611D73A0FEF723
:104F4000E9FC207920B900215F48FEF747F803E02B
:104F500000215E48FEF742F80020206049E7B4EEE9
:104F6000E88AF1EE10FA07D2611D73A0FEF7D2FCB9
:104F7000FF2084F80E0106E0611D76A0FEF7CAFC52
:104F8000012084F80E01611D79A0FEF7C3FC94EDA9
:104F9000050AF8EEC00A9FED4E0A19EE200A10EE3F
:104FA000101A0846FBF758FA41EC1B0BB0EE4B0AFF
:104FB000F0EE6B0AFEF76CFFB0EE40AAF0EE60AACE
:104FC0009FED6F0B53EC102B51EC1A0BFBF758FABB
:104FD00013D26DA0FEF79EFCDFED3D0A80EE890A3C
:104FE000F6EE000A30EE200ABDEEC00A84ED050A96
:104FF0006BA06169FEF78EFC07E06BA0FEF78AFCF0
:1050000003E0611D6AA0FEF785FC94ED440AB5EE4D
:10501000C00AF1EE10FA46D1D4ED040AB0EE600AEF
:105020009FED2D1ADFED2D0A204601F053F94FF4C4
:105030002F7000F073FB204600F0BAFB94F90E01CC
:1050400000EE900AF8EEE00A20EE200AF0EE40AA08
:105050006069FFF76BF8B0EE40AAFFF755F984EDF1
:10506000440A142000F05AFB611D57A0FEF752FCC1
:1050700094ED440A10EE101A0846FBF7EDF941ECE6
:105080001A0B53EC1A2B56A0FEF744FC9FED131A93
:10509000DFED120A9FED110A204601F01BF9C8202E
:1050A00000F03CFB03E0611D4FA0FEF733FC012044
:1050B0009FE6000025733A20416C69676E20736596
:1050C0006E736F722E0D0A00000001400004014053
:1050D000DB0FC9400000FA43E4CB9640000000001B
:1050E0006D69645F616E676C653D252E34660D0ADF
:1050F00000000000656E645F616E676C653D252E83
:1051000034660D0A000000000AD7233C25733A20BC
:105110004661696C656420746F206E6F74696365A5
:10512000206D6F76656D656E74206C6F6F703232B6
:10513000322E0D0A0000000025733A2073656E734D
:105140006F725F646972656374696F6E3D3D43435E
:10515000570D0A0025733A2073656E736F725F6492
:105160006972656374696F6E3D3D43570D0A0000B7
:1051700025733A20505020636865636B3A20000025
:10518000000000000000E03F6661696C202D206592
:105190007374696D617465642070703A000000007A
:1051A00025640D0A000000004F4B210D0A0000008D
:1051B00025733A20536B6970206469722063616CB7
:1051C00069622E0D0A00000025733A205A65726F3D
:1051D00020656C65632E20616E676C653A00000087
:1051E000252E34660D0A000025733A20536B697032
:1051F000206F66667365742063616C69622E0D0AA8
:105200000000000070B52DED0A8B0446B0EE408A18
:10521000FFF760F80546206A281A00EE100AB8EE7B
:10522000400ADFED440A20EE200AF0EE408A2562B3
:10523000F5EEC08AF1EE10FA06D9B6EE000AF4EEE9
:10524000C08AF1EE10FA03DD9FED3B0AF0EE408AD2
:1052500094ED060A20EE280A10EE101A0846FBF715
:10526000FBF841EC1A0B94ED450A38EE400A10EEBB
:10527000101A0846FBF7F0F841EC1C0BB0EE4C0A94
:10528000F0EE6C0AFEF704FEB0EE40BAF0EE60BA43
:1052900053EC1A2B51EC1B0BFBF7F2F82AD294EDCE
:1052A000450A38EE400AB5EEC00AF1EE10FA02D215
:1052B0004FF0FF300BE094ED450A38EE400AB5EEB2
:1052C000C00AF1EE10FA01DD012000E0002000EE3E
:1052D000100AB8EEC00AD4ED060A60EE200A94ED7A
:1052E000450A00EEA80A84ED450A94ED060A84ED0D
:1052F000470A05E084ED458A9FED100A84ED470AD0
:1053000094ED039A6069D4ED450AB0EE600AFEF7A9
:105310000DFFF0EE409AB0EE691ADFED080AB0EE2C
:10532000490A204600F0D6FFB0EE490ABDEC0A8BD0
:1053300070BD0000BD3786356F12833A0000000053
:1053400010B541EC100BFEF723FB51EC100B10BD18
:1053500010B52DED028BC748006801287ED10020D2
:10536000C4490860C44800784D2878D006DC41283C
:1053700011D0422831D048280CD104E04E286FD0FB
:105380005428F9D14BE0BDA1C048FEF7D3FA04463A
:10539000FEF760F965E1B848401CFEF75DFDB0EE30
:1053A000408AF0EE608A51EC180BFBF781F8B8499F
:1053B0004862084690ED090A10EE101A0846FBF7FD
:1053C0004BF841EC180B53EC182BB2A1AF48FEF789
:1053D000B1FA0446FEF73EF943E1A748401CFEF748
:1053E0003BFDB0EE408AF0EE608A51EC180BFBF703
:1053F0005FF8AB494862084690ED090A10EE101AB2
:105400000846FBF729F841EC180B53EC182BA5A123
:105410009E48FEF78FFA0446FEF71CF921E19648F4
:10542000401CFEF719FDB0EE408AF0EE608A51ECA8
:10543000180BFBF73DF896494862084690ED090ABB
:10544000974880ED090A084690ED090A10EE101AF7
:105450000846FBF701F841EC180B02E006E10AE010
:1054600084E053EC182B92A18848FEF763FA0446B7
:10547000FEF7F0F8F5E080484078412860D04928F0
:1054800027D0502802D056286ED145E07A48801C9B
:10549000FEF7E2FCB0EE408AF0EE608A51EC180BA9
:1054A000FBF706F87A49C1F89400084690ED250A02
:1054B00010EE101A0846FAF7CFFF41EC180B53EC28
:1054C000182B7EA17148FEF735FA0446FEF7C2F8A4
:1054D0004AE06948801CFEF7BFFCB0EE408AF0EE5F
:1054E000608A51EC180BFAF7E3FF6949C1F898009C
:1054F000084690ED260A10EE101A0846FAF7ACFF9F
:1055000041EC180B53EC182B6FA16048FEF712FA10
:105510000446FEF79FF827E05D4890ED470A10EE3D
:10552000101A0846FAF798FF41EC180B53EC182BA9
:1055300068A15648FEF7FEF90446FEF78BF813E023
:10554000534890ED450A10EE101A0846FAF784FF0A
:1055500041EC180B53EC182B61A14C48FEF7EAF90B
:105560000446FEF777F800BF00BF7AE04248407873
:10557000412860D0492827D0502802D056286ED123
:1055800045E03D48801CFEF767FCB0EE408AF0EE37
:10559000608A51EC180BFAF78BFF4149C1F894006F
:1055A000084690ED250A10EE101A0846FAF754FF47
:1055B00041EC180B53EC182B4CA13448FEF7BAF908
:1055C0000446FEF747F84AE02B48801CFEF744FCEF
:1055D000B0EE408AF0EE608A51EC180BFAF768FFE3
:1055E0002F49C1F89800084690ED260A10EE101ACF
:1055F0000846FAF731FF41EC180B53EC182B3EA18B
:105600002248FEF797F90446FEF724F827E02448DD
:1056100090ED470A10EE101A0846FAF71DFF41EC0C
:10562000180B53EC182B37A11848FEF783F90446E2
:10563000FEF710F813E01A4890ED450A10EE101A24
:105640000846FAF709FF41EC180B53EC182B30A170
:105650000E48FEF76FF90446FDF7FCFF00BF00BFE0
:1056600000BF00BF10210448FAF7B1FDBDEC028B6A
:1056700010BD0000180000204801002048656C6C37
:105680006F20576F726C64210D0A000048000020E3
:1056900088020020413D252E32660D0A00000000E0
:1056A000D0030020423D252E32660D0A0000000086
:1056B000543D252E32660D0A0000000050303D2575
:1056C0002E32660D0A00000049303D252E32660D4F
:1056D0000A00000056656C303D252E32660D0A002A
:1056E000416E67303D252E32660D0A0050313D2552
:1056F0002E32660D0A00000049313D252E32660D1E
:105700000A00000056656C313D252E32660D0A00F8
:10571000416E67313D252E32660D0A00F0B5064612
:10572000FEF7D8FD054600BFFEF7D4FD0446AC42A7
:1057300001D3671B02E0C5F1FF30071906EB4600F5
:10574000C0EBC610B7EBC00FEED3F0BD00BF011E1B
:10575000A0F10100FBD1704710B50446D4ED440A16
:10576000D4ED451A94ED051AB8EEC11A51EE810A2E
:10577000B0EE600AFEF7C8FD10BD82B0CDE90001B1
:1057800021F0004001909DED000B02B051EC100B98
:105790007047000000BF054A128802F04002002A4C
:1057A000F9D0C2B2014B1B1D1A8070470044004063
:1057B00070B50446207900F03BFA0546D4F83C0168
:1057C0002E1A301E01DB014600E0414200EE101AA5
:1057D000F8EEC00A94ED4D0AB8EEC00A9FED291A02
:1057E00020EE010AF4EEC00AF1EE10FA0CDD94EDA1
:1057F0004E0A002E02DDDFED240A01E0DFED230A70
:1058000030EE200A84ED4E0AC4F83C5194ED4E0A65
:10581000DFED1F0AB4EEE00AF1EE10FA0BDB9FEDAC
:105820001D0A84ED4E0A94ED500ADFED190A30EEA0
:10583000600A84ED500A94ED4E0ADFED170AB4EECB
:10584000E00AF1EE10FA0BD89FED120A84ED4E0A31
:1058500094ED500ADFED0E0A30EE200A84ED500A76
:1058600094ED4D0AB8EEC01A00EE105AB8EEC00A18
:10587000C0EE010A94ED4E0A9FED041A00EE810A73
:1058800070BD0000CDCC4C3FDB0FC9C0DB0FC94061
:105890007C594446000000007C5944C610B52DEDEB
:1058A000068B84B00446B0EE409AB7EE000AF0EEE4
:1058B000409A204600F074F98DED010ACDED020A00
:1058C0008DED031A9DED030AB5EEC00AF1EE10FA54
:1058D0000FD19DED018A9DED010ADFED520A20EE08
:1058E000200ADDED020A9FED501AF0EE408A41EEEB
:1058F000208A9DED010AB5EEC00AF1EE10FA18D12A
:10590000DDED030AF1EE600A9DED021A70EEC10AA8
:10591000B0EE600AB0EE408ADFED420A60EE200A87
:105920009DED021ADFED401A41EE810AF0EE608A29
:1059300000BF9DED020AB5EEC00AF1EE10FA1AD1D1
:10594000DDED010AF1EE600A9DED031A70EEC10A69
:10595000B0EE600ADDED010AB0EE608ADDED010A0D
:105960009FED301A60EE810A9FED2F1A41EE000A7A
:10597000F0EE608A28E0DDED011A9DED022A71EE5D
:10598000821A9DED032A71EE821A9FED282A61EE9C
:10599000821AB0EE610ADDED011A71EEC01AF0EE66
:1059A000610ADDED021A71EEC01AB0EE611AB0EEB6
:1059B000608ADFED1C1A60EEA11A9FED1B2A42EEF1
:1059C000011AF0EE618A00BFB5EEC09AF1EE10FA4E
:1059D0001AD0B0EE490AFEF783FB20EE28AAB0EEFB
:1059E000490AFFF747F808EE40AAB5EEC0AAF1EE63
:1059F00010FA01DD012001E04FF0FF3000EE100A47
:105A0000B8EEC00AF0EE409A68EE080A48EEA80A1E
:105A1000B0EE600AFFF718F920EE290A04B0BDECD9
:105A2000068B10BD3ACD133F3ACD933FABAAAA3EA9
:105A300010B52DED068B86B00446B0EE40AA204688
:105A400000F0AEF88DED030ACDED040A8DED051AD8
:105A50009DED050AB5EEC00AF1EE10FA0FD19DEDED
:105A6000038A9DED030ADFED4B0A20EE200ADDEDEF
:105A7000040A9FED491AF0EE408A41EE208A9DED1E
:105A8000030AB5EEC00AF1EE10FA18D1DDED050AF1
:105A9000F1EE600A9DED041A70EEC10AB0EE600AE4
:105AA000B0EE408ADFED3B0A60EE200A9DED041A5D
:105AB000DFED391A41EE810AF0EE608A00BF9DEDFC
:105AC000040AB5EEC00AF1EE10FA1AD1DDED030AB0
:105AD000F1EE600A9DED051A70EEC10AB0EE600AA3
