:020000040800F2
:10000000080400209D010008A5010008A7010008C0
:10001000A9010008AB010008AD01000800000000C4
:10002000000000000000000000000000AF01000818
:10003000B101000800000000B3010008C10300087E
:10004000B7010008B7010008B7010008B7010008B0
:10005000B7010008B7010008B7010008B7010008A0
:10006000B7010008B7010008B7010008B701000890
:10007000B7010008B7010008B7010008B701000880
:10008000B7010008B7010008B7010008B701000870
:10009000B7010008B7010008B7010008B701000860
:1000A000B7010008B7010008B7010008B701000850
:1000B000B7010008B7010008B7010008B701000840
:1000C000B7010008B7010008B7010008B701000830
:1000D000B7010008B7010008B7010008B701000820
:1000E000B7010008B7010008B7010008B701000810
:1000F000B7010008B7010008B7010008B701000800
:10010000B7010008B7010008B7010008B7010008EF
:10011000B7010008B7010008B7010008B7010008DF
:10012000B7010008B7010008B7010008B7010008CF
:10013000B7010008B7010008B7010008B7010008BF
:10014000B7010008B7010008B7010008B7010008AF
:10015000B7010008B7010008B7010008B70100089F
:10016000B7010008B7010008B7010008B70100088F
:10017000B7010008B7010008B7010008B70100087F
:10018000B7010008B7010008DFF80CD000F018F83C
:1001900000480047BD0400080804002006488047C6
:1001A00006480047FEE7FEE7FEE7FEE7FEE7FEE75C
:1001B000FEE7FEE7FEE7FEE7D1030008890100083D
:1001C000064C074D06E0E06840F0010394E80700A4
:1001D00098471034AC42F6D3FFF7DAFF0005000869
:1001E000200500081CB50121082000F063F8042058
:1001F000009001208DF804008DF8070002208DF892
:10020000050000208DF806006946044800F008F853
:100210000421024800F04CF81CBD0000000C024014
:10022000F0B50A4600210023002400BF3DE001256F
:1002300005FA01F3156805EA03049C4234D1056808
:100240004F000326BE40B543056015794E00B5400A
:100250000668354305601579012D02D01579022D08
:1002600016D185684F000326BE40B5438560557999
:100270004E00B540866835438560456801268E404E
:10028000B5434560456896798E40B6B235434560C2
:10029000C5684F000326BE40B543C560D5794E0002
:1002A000B540C6683543C560491C1029BFD3F0BDB1
:1002B0004183704729B1064A12680243044B1A6011
:1002C00004E0034A12688243014B1A607047000041
:1002D000303802400CB5002001900090344800688E
:1002E00040F480303249086000BF3148006800F4B3
:1002F000003000900198401C0190009818B90198B6
:10030000B0F5A04FF1D12A48006800F4003010B1D8
:100310000120009001E0002000900098012846D1C3
:1003200023484030006840F0805021494031086047
:100330002048006840F440401E4908601C480830CE
:1003400000681B49083108600846006840F4004016
:1003500008600846006840F4A05008601648091F6D
:100360000860081F006840F08070091F086000BF27
:100370000F48006800F000700028F9D040F20570C6
:100380000E4908600A480830006820F00300084958
:10039000083108600846006840F00200086000BFAD
:1003A00003480830006800F00C000828F8D10CBDA4
:1003B000003802400070004008544007003C0240F2
:1003C00002480068401C0149086070470000002096
:1003D00010B51548006840F47000134908601348D0
:1003E000006840F001001149086000200F49083101
:1003F00008600E4800680E4908400C4908600D4826
:10040000091D0860081F006820F48020091F08608B
:10041000002006490C310860FFF75CFF4FF00060D8
:1004200001498039086010BD88ED00E000380240C5
:10043000FFFFF6FE1030002402E008C8121F08C1BA
:10044000002AFAD170477047002001E001C1121F55
:10045000002AFBD17047000000BF0A4801684FF036
:10046000E0208269074800688142F6D10648801A78
:10047000A823B0FBF3F001EB4103C3EBC11300EB86
:10048000C30070470000002040900200F0B506460F
:10049000FFF7E2FF054600BFFFF7DEFF0446AC4270
:1004A00001D3671B02E0C5F1FF30071906EB4600D8
:1004B000C0EBC610B7EBC00FEED3F0BDFFF792FE56
:1004C00000F012F84FF4FA70FFF7E0FF09E005487A
:1004D000006880F00400034908604FF4FA70FFF7E9
:1004E000D5FFF4E7140C024004484FF0E0214861C6
:1004F00000208861072008617047000040900200DA
:100500002005000800000020040000003804000856
:10051000240500080400002004040000480400082A
:0405200000000000D7
:040000050800018965
:00000001FF
